Component: Arm Compiler for Embedded 6.19 Tool: armlink [5e73cb00]

==============================================================================

Section Cross References

    gd32e23x_it.o(.ARM.exidx.text.NMI_Handler) refers to gd32e23x_it.o(.text.NMI_Handler) for [Anonymous Symbol]
    gd32e23x_it.o(.ARM.exidx.text.HardFault_Handler) refers to gd32e23x_it.o(.text.HardFault_Handler) for [Anonymous Symbol]
    gd32e23x_it.o(.ARM.exidx.text.SVC_Handler) refers to gd32e23x_it.o(.text.SVC_Handler) for [Anonymous Symbol]
    gd32e23x_it.o(.ARM.exidx.text.PendSV_Handler) refers to gd32e23x_it.o(.text.PendSV_Handler) for [Anonymous Symbol]
    gd32e23x_it.o(.ARM.exidx.text.SysTick_Handler) refers to gd32e23x_it.o(.text.SysTick_Handler) for [Anonymous Symbol]
    main.o(.text.main) refers to systick.o(.text.systick_config) for systick_config
    main.o(.text.main) refers to hw_gpio.o(.text.mx_gpio_init) for mx_gpio_init
    main.o(.text.main) refers to hw_spi.o(.text.mx_spi0_init) for mx_spi0_init
    main.o(.text.main) refers to hw_adc.o(.text.mx_adc_init) for mx_adc_init
    main.o(.text.main) refers to hw_tim.o(.text.mx_tim2_init) for mx_tim2_init
    main.o(.text.main) refers to hw_tim.o(.text.mx_tim14_init) for mx_tim14_init
    main.o(.text.main) refers to hw_tim.o(.text.mx_tim15_init) for mx_tim15_init
    main.o(.text.main) refers to hw_led.o(.text.led_init) for led_init
    main.o(.text.main) refers to hw_key.o(.text.key_init) for key_init
    main.o(.text.main) refers to hw_ec11.o(.text.ec11_init) for ec11_init
    main.o(.text.main) refers to mid_adc.o(.text.Set_ADC_Channel) for Set_ADC_Channel
    main.o(.text.main) refers to mid_adc.o(.text.Get_ADC_Average) for Get_ADC_Average
    main.o(.text.main) refers to systick.o(.text.delay_1ms) for delay_1ms
==============================================================================

Removing Unused input sections from the image.

    Removing gd32e23x_it.o(.text), (0 bytes).
    Removing gd32e23x_it.o(.ARM.exidx.text.NMI_Handler), (8 bytes).
    Removing gd32e23x_it.o(.ARM.exidx.text.HardFault_Handler), (8 bytes).
    Removing gd32e23x_it.o(.ARM.exidx.text.SVC_Handler), (8 bytes).
    Removing gd32e23x_it.o(.ARM.exidx.text.PendSV_Handler), (8 bytes).
    Removing gd32e23x_it.o(.ARM.exidx.text.SysTick_Handler), (8 bytes).
    Removing main.o(.text), (0 bytes).
    Removing main.o(.ARM.exidx.text.main), (8 bytes).
    Removing main.o(.ARM.exidx.text.EXTI4_15_IRQHandler), (8 bytes).
    Removing main.o(.ARM.use_no_argv), (4 bytes).
    Removing systick.o(.text), (0 bytes).
    Removing systick.o(.ARM.exidx.text.systick_config), (8 bytes).
    Removing systick.o(.text.delay_1us), (128 bytes).
    Removing systick.o(.ARM.exidx.text.delay_1us), (8 bytes).
    Removing systick.o(.text.delay_us), (128 bytes).
    Removing systick.o(.ARM.exidx.text.delay_us), (8 bytes).
    Removing systick.o(.ARM.exidx.text.delay_1ms), (8 bytes).
    Removing systick.o(.text.delay_ms), (128 bytes).
==============================================================================

Image Symbol Table

    Local Symbols

    Symbol Name                              Value     Ov Type        Size  Object(Section)

    ../Firmware/CMSIS/GD/GD32E23x/Source/ARM/startup_gd32e23x.s 0x00000000   Number         0  startup_gd32e23x.o ABSOLUTE
    ../clib/division.s                       0x00000000   Number         0  aeabi_sdiv.o ABSOLUTE
    ../clib/division.s                       0x00000000   Number         0  aeabi_sdiv_div0.o ABSOLUTE
    ../clib/microlib/division.c              0x00000000   Number         0  uidiv.o ABSOLUTE
    ../clib/microlib/division.c              0x00000000   Number         0  uldiv.o ABSOLUTE
    ../clib/microlib/division.c              0x00000000   Number         0  uidiv_div0.o ABSOLUTE
    ../clib/microlib/division.c              0x00000000   Number         0  idiv_div0.o ABSOLUTE
    ../clib/microlib/division.c              0x00000000   Number         0  idiv0.o ABSOLUTE
    ../clib/microlib/init/entry.s            0x00000000   Number         0  entry.o ABSOLUTE
    ../clib/microlib/init/entry.s            0x00000000   Number         0  entry2.o ABSOLUTE
    ../clib/microlib/init/entry.s            0x00000000   Number         0  entry5.o ABSOLUTE
    ../clib/microlib/init/entry.s            0x00000000   Number         0  entry7a.o ABSOLUTE
    ../clib/microlib/init/entry.s            0x00000000   Number         0  entry7b.o ABSOLUTE
    ../clib/microlib/init/entry.s            0x00000000   Number         0  entry8a.o ABSOLUTE
    ../clib/microlib/init/entry.s            0x00000000   Number         0  entry8b.o ABSOLUTE
    ../clib/microlib/init/entry.s            0x00000000   Number         0  entry9a.o ABSOLUTE
    ../clib/microlib/init/entry.s            0x00000000   Number         0  entry9b.o ABSOLUTE
    ../clib/microlib/init/entry.s            0x00000000   Number         0  entry10a.o ABSOLUTE
    ../clib/microlib/init/entry.s            0x00000000   Number         0  entry10b.o ABSOLUTE
    ../clib/microlib/init/entry.s            0x00000000   Number         0  entry11a.o ABSOLUTE
    ../clib/microlib/init/entry.s            0x00000000   Number         0  entry11b.o ABSOLUTE
    ../clib/microlib/longlong.c              0x00000000   Number         0  llshl.o ABSOLUTE
    ../clib/microlib/longlong.c              0x00000000   Number         0  llushr.o ABSOLUTE
    ../clib/microlib/longlong.c              0x00000000   Number         0  llsshr.o ABSOLUTE
    ../clib/microlib/printf/printf.c         0x00000000   Number         0  printfa.o ABSOLUTE
    ../clib/microlib/stdio/fputc.c           0x00000000   Number         0  fputc.o ABSOLUTE
    ../clib/microlib/stdio/fputc.c           0x00000000   Number         0  fputc_h.o ABSOLUTE
    ../clib/microlib/stdio/semi.s            0x00000000   Number         0  semi.o ABSOLUTE
    ../clib/microlib/stdio/streams.c         0x00000000   Number         0  stdout.o ABSOLUTE
    ../clib/microlib/string/memset.c         0x00000000   Number         0  memseta.o ABSOLUTE
    ../clib/microlib/stubs.s                 0x00000000   Number         0  iusefp.o ABSOLUTE
    ../clib/microlib/stubs.s                 0x00000000   Number         0  iusesemip.o ABSOLUTE
    ../fplib/microlib/f2d.c                  0x00000000   Number         0  f2d.o ABSOLUTE
    ../fplib/microlib/fpadd.c                0x00000000   Number         0  fadd.o ABSOLUTE
    ../fplib/microlib/fpadd.c                0x00000000   Number         0  dadd.o ABSOLUTE
    ../fplib/microlib/fpcmp.c                0x00000000   Number         0  fcmple.o ABSOLUTE
    ../fplib/microlib/fpcmp.c                0x00000000   Number         0  fcmpge.o ABSOLUTE
    ../fplib/microlib/fpdiv.c                0x00000000   Number         0  fdiv.o ABSOLUTE
    ../fplib/microlib/fpdiv.c                0x00000000   Number         0  ddiv.o ABSOLUTE
    ../fplib/microlib/fpepilogue.c           0x00000000   Number         0  fepilogue.o ABSOLUTE
    ../fplib/microlib/fpepilogue.c           0x00000000   Number         0  depilogue.o ABSOLUTE
    ../fplib/microlib/fpfix.c                0x00000000   Number         0  ffixi.o ABSOLUTE
    ../fplib/microlib/fpfix.c                0x00000000   Number         0  ffixui.o ABSOLUTE
    ../fplib/microlib/fpfix.c                0x00000000   Number         0  dfixul.o ABSOLUTE
    ../fplib/microlib/fpflt.c                0x00000000   Number         0  fflti.o ABSOLUTE
    ../fplib/microlib/fpflt.c                0x00000000   Number         0  ffltui.o ABSOLUTE
    ../fplib/microlib/fpmul.c                0x00000000   Number         0  fmul.o ABSOLUTE
    ../fplib/microlib/fpmul.c                0x00000000   Number         0  dmul.o ABSOLUTE
    cdrcmple.s                               0x00000000   Number         0  cdrcmple.o ABSOLUTE
    dc.s                                     0x00000000   Number         0  dc.o ABSOLUTE
    gd32e23x_adc.c                           0x00000000   Number         0  gd32e23x_adc.o ABSOLUTE
    gd32e23x_cmp.c                           0x00000000   Number         0  gd32e23x_cmp.o ABSOLUTE
    gd32e23x_crc.c                           0x00000000   Number         0  gd32e23x_crc.o ABSOLUTE
    gd32e23x_dbg.c                           0x00000000   Number         0  gd32e23x_dbg.o ABSOLUTE
    gd32e23x_dma.c                           0x00000000   Number         0  gd32e23x_dma.o ABSOLUTE
    gd32e23x_exti.c                          0x00000000   Number         0  gd32e23x_exti.o ABSOLUTE
    gd32e23x_fmc.c                           0x00000000   Number         0  gd32e23x_fmc.o ABSOLUTE
    gd32e23x_fwdgt.c                         0x00000000   Number         0  gd32e23x_fwdgt.o ABSOLUTE
    gd32e23x_gpio.c                          0x00000000   Number         0  gd32e23x_gpio.o ABSOLUTE
    gd32e23x_i2c.c                           0x00000000   Number         0  gd32e23x_i2c.o ABSOLUTE
    gd32e23x_it.c                            0x00000000   Number         0  gd32e23x_it.o ABSOLUTE
    gd32e23x_misc.c                          0x00000000   Number         0  gd32e23x_misc.o ABSOLUTE
    gd32e23x_pmu.c                           0x00000000   Number         0  gd32e23x_pmu.o ABSOLUTE
    gd32e23x_rcu.c                           0x00000000   Number         0  gd32e23x_rcu.o ABSOLUTE
    gd32e23x_rtc.c                           0x00000000   Number         0  gd32e23x_rtc.o ABSOLUTE
    gd32e23x_spi.c                           0x00000000   Number         0  gd32e23x_spi.o ABSOLUTE
    gd32e23x_syscfg.c                        0x00000000   Number         0  gd32e23x_syscfg.o ABSOLUTE
    gd32e23x_timer.c                         0x00000000   Number         0  gd32e23x_timer.o ABSOLUTE
    gd32e23x_usart.c                         0x00000000   Number         0  gd32e23x_usart.o ABSOLUTE
    gd32e23x_wwdgt.c                         0x00000000   Number         0  gd32e23x_wwdgt.o ABSOLUTE
    handlers.s                               0x00000000   Number         0  handlers.o ABSOLUTE
    hw_adc.c                                 0x00000000   Number         0  hw_adc.o ABSOLUTE
    hw_ec11.c                                0x00000000   Number         0  hw_ec11.o ABSOLUTE
    hw_gpio.c                                0x00000000   Number         0  hw_gpio.o ABSOLUTE
    hw_key.c                                 0x00000000   Number         0  hw_key.o ABSOLUTE
    hw_lcdinit.c                             0x00000000   Number         0  hw_lcdinit.o ABSOLUTE
    hw_led.c                                 0x00000000   Number         0  hw_led.o ABSOLUTE
    hw_spi.c                                 0x00000000   Number         0  hw_spi.o ABSOLUTE
    hw_tim.c                                 0x00000000   Number         0  hw_tim.o ABSOLUTE
    init.s                                   0x00000000   Number         0  init.o ABSOLUTE
    main.c                                   0x00000000   Number         0  main.o ABSOLUTE
    mid_adc.c                                0x00000000   Number         0  mid_adc.o ABSOLUTE
    mid_lcd.c                                0x00000000   Number         0  mid_lcd.o ABSOLUTE
    mid_pwm.c                                0x00000000   Number         0  mid_pwm.o ABSOLUTE
    mid_timer.c                              0x00000000   Number         0  mid_timer.o ABSOLUTE
    osc_task.c                               0x00000000   Number         0  osc_task.o ABSOLUTE
    system_gd32e23x.c                        0x00000000   Number         0  system_gd32e23x.o ABSOLUTE
    systick.c                                0x00000000   Number         0  systick.o ABSOLUTE
    RESET                                    0x08000000   Section      204  startup_gd32e23x.o(RESET)
    .ARM.Collect$$$$00000000                 0x080000cc   Section        0  entry.o(.ARM.Collect$$$$00000000)
    .ARM.Collect$$$$00000001                 0x080000cc   Section        4  entry2.o(.ARM.Collect$$$$00000001)
    .ARM.Collect$$$$00000004                 0x080000d0   Section        4  entry5.o(.ARM.Collect$$$$00000004)
    .ARM.Collect$$$$00000008                 0x080000d4   Section        0  entry7b.o(.ARM.Collect$$$$00000008)
    .ARM.Collect$$$$0000000A                 0x080000d4   Section        0  entry8b.o(.ARM.Collect$$$$0000000A)
    .ARM.Collect$$$$0000000B                 0x080000d4   Section        8  entry9a.o(.ARM.Collect$$$$0000000B)
    __lit__00000000                          0x080000dc   Data           4  entry2.o(.ARM.Collect$$$$00002712)
    .ARM.Collect$$$$0000000D                 0x080000dc   Section        0  entry10a.o(.ARM.Collect$$$$0000000D)
    .ARM.Collect$$$$0000000F                 0x080000dc   Section        0  entry11a.o(.ARM.Collect$$$$0000000F)
    .ARM.Collect$$$$00002712                 0x080000dc   Section        4  entry2.o(.ARM.Collect$$$$00002712)
    .text                                    0x080000e0   Section       28  startup_gd32e23x.o(.text)
    .text                                    0x080000fc   Section        0  memseta.o(.text)
    .text                                    0x08000120   Section        0  fadd.o(.text)
    .text                                    0x080001d2   Section        0  fmul.o(.text)
    .text                                    0x0800024c   Section        0  fdiv.o(.text)
    .text                                    0x080002c8   Section        0  fcmple.o(.text)
    .text                                    0x080002e4   Section        0  fcmpge.o(.text)
    .text                                    0x08000300   Section        0  fflti.o(.text)
    .text                                    0x08000316   Section        0  ffltui.o(.text)
    .text                                    0x08000324   Section        0  ffixi.o(.text)
    .text                                    0x08000356   Section        0  ffixui.o(.text)
    .text                                    0x0800037e   Section        0  f2d.o(.text)
    .text                                    0x080003a6   Section        0  uldiv.o(.text)
    .text                                    0x08000406   Section        0  iusefp.o(.text)
    .text                                    0x08000406   Section        0  fepilogue.o(.text)
    .text                                    0x08000488   Section        0  dadd.o(.text)
    .text                                    0x080005ec   Section        0  dmul.o(.text)
    .text                                    0x080006bc   Section        0  ddiv.o(.text)
    .text                                    0x080007ac   Section        0  dfixul.o(.text)
    .text                                    0x080007ec   Section       40  cdrcmple.o(.text)
    .text                                    0x08000814   Section       36  init.o(.text)
    .text                                    0x08000838   Section        0  uidiv_div0.o(.text)
    .text                                    0x08000876   Section        0  llshl.o(.text)
    .text                                    0x08000896   Section        0  llushr.o(.text)
    .text                                    0x080008b8   Section        0  llsshr.o(.text)
    .text                                    0x080008de   Section        0  depilogue.o(.text)
    [Anonymous Symbol]                       0x0800099c   Section        0  mid_adc.o(.text.DMA_Channel0_IRQHandler)
    __arm_cp.3_0                             0x080009cc   Number         4  mid_adc.o(.text.DMA_Channel0_IRQHandler)
    [Anonymous Symbol]                       0x080009d0   Section        0  main.o(.text.EXTI4_15_IRQHandler)
    __arm_cp.1_0                             0x080009e8   Number         4  main.o(.text.EXTI4_15_IRQHandler)
    [Anonymous Symbol]                       0x080009ec   Section        0  mid_adc.o(.text.Get_ADC_Average)
    __arm_cp.0_0                             0x08000a8c   Number         4  mid_adc.o(.text.Get_ADC_Average)
    Get_ADC_Val                              0x08000a91   Thumb Code    46  mid_adc.o(.text.Get_ADC_Val)
    [Anonymous Symbol]                       0x08000a90   Section        0  mid_adc.o(.text.Get_ADC_Val)
    [Anonymous Symbol]                       0x08000abe   Section        0  gd32e23x_it.o(.text.HardFault_Handler)
    [Anonymous Symbol]                       0x08000ac2   Section        0  gd32e23x_it.o(.text.NMI_Handler)
    [Anonymous Symbol]                       0x08000ac4   Section        0  gd32e23x_it.o(.text.PendSV_Handler)
    [Anonymous Symbol]                       0x08000ac8   Section        0  osc_task.o(.text.Register_oscShowData)
    __arm_cp.0_0                             0x08000ad8   Number         4  osc_task.o(.text.Register_oscShowData)
    [Anonymous Symbol]                       0x08000adc   Section        0  gd32e23x_it.o(.text.SVC_Handler)
    [Anonymous Symbol]                       0x08000ade   Section        0  mid_adc.o(.text.Set_ADC_Channel)
    [Anonymous Symbol]                       0x08000af6   Section        0  gd32e23x_it.o(.text.SysTick_Handler)
    [Anonymous Symbol]                       0x08000af8   Section        0  system_gd32e23x.o(.text.SystemInit)
    __arm_cp.0_0                             0x08000bd0   Number         4  system_gd32e23x.o(.text.SystemInit)
    __arm_cp.0_1                             0x08000bd4   Number         4  system_gd32e23x.o(.text.SystemInit)
    __arm_cp.0_2                             0x08000bd8   Number         4  system_gd32e23x.o(.text.SystemInit)
    __arm_cp.0_3                             0x08000bdc   Number         4  system_gd32e23x.o(.text.SystemInit)
    __arm_cp.0_4                             0x08000be0   Number         4  system_gd32e23x.o(.text.SystemInit)
    __arm_cp.0_5                             0x08000be4   Number         4  system_gd32e23x.o(.text.SystemInit)
    __arm_cp.0_6                             0x08000be8   Number         4  system_gd32e23x.o(.text.SystemInit)
    __arm_cp.0_7                             0x08000bec   Number         4  system_gd32e23x.o(.text.SystemInit)
    __arm_cp.0_8                             0x08000bf0   Number         4  system_gd32e23x.o(.text.SystemInit)
    [Anonymous Symbol]                       0x08000bf4   Section        0  hw_lcdinit.o(.text.TFT_Address_Set)
    [Anonymous Symbol]                       0x08000c46   Section        0  mid_lcd.o(.text.TFT_DrawLine)
    [Anonymous Symbol]                       0x08000d7e   Section        0  mid_lcd.o(.text.TFT_DrawPoint)
    [Anonymous Symbol]                       0x08000daa   Section        0  mid_lcd.o(.text.TFT_Fill)
    [Anonymous Symbol]                       0x08000e3c   Section        0  hw_lcdinit.o(.text.TFT_Init)
    __arm_cp.4_0                             0x08001064   Number         4  hw_lcdinit.o(.text.TFT_Init)
    [Anonymous Symbol]                       0x08001068   Section        0  mid_lcd.o(.text.TFT_ShowChar)
    __arm_cp.3_0                             0x08001220   Number         4  mid_lcd.o(.text.TFT_ShowChar)
    __arm_cp.3_1                             0x08001224   Number         4  mid_lcd.o(.text.TFT_ShowChar)
    [Anonymous Symbol]                       0x08001228   Section        0  mid_lcd.o(.text.TFT_ShowChinese)
    [Anonymous Symbol]                       0x0800130c   Section        0  mid_lcd.o(.text.TFT_ShowChinese12x12)
    __arm_cp.6_0                             0x080014f4   Number         4  mid_lcd.o(.text.TFT_ShowChinese12x12)
    [Anonymous Symbol]                       0x080014f8   Section        0  mid_lcd.o(.text.TFT_ShowChinese16x16)
    __arm_cp.7_0                             0x080016e0   Number         4  mid_lcd.o(.text.TFT_ShowChinese16x16)
    [Anonymous Symbol]                       0x080016e4   Section        0  mid_lcd.o(.text.TFT_ShowChinese24x24)
    __arm_cp.8_0                             0x080018cc   Number         4  mid_lcd.o(.text.TFT_ShowChinese24x24)
    [Anonymous Symbol]                       0x080018d0   Section        0  mid_lcd.o(.text.TFT_ShowString)
    [Anonymous Symbol]                       0x08001948   Section        0  osc_task.o(.text.TFT_ShowUI)
    __arm_cp.8_0                             0x08001b78   Number         4  osc_task.o(.text.TFT_ShowUI)
    __arm_cp.8_1                             0x08001b7c   Number         4  osc_task.o(.text.TFT_ShowUI)
    __arm_cp.8_2                             0x08001b80   Number         4  osc_task.o(.text.TFT_ShowUI)
    __arm_cp.8_3                             0x08001b84   Number         4  osc_task.o(.text.TFT_ShowUI)
    __arm_cp.8_4                             0x08001b88   Number         4  osc_task.o(.text.TFT_ShowUI)
    __arm_cp.8_5                             0x08001b8c   Number         4  osc_task.o(.text.TFT_ShowUI)
    __arm_cp.8_6                             0x08001b90   Number         4  osc_task.o(.text.TFT_ShowUI)
    __arm_cp.8_7                             0x08001b94   Number         4  osc_task.o(.text.TFT_ShowUI)
    __arm_cp.8_8                             0x08001b98   Number         4  osc_task.o(.text.TFT_ShowUI)
    __arm_cp.8_9                             0x08001b9c   Number         4  osc_task.o(.text.TFT_ShowUI)
    __arm_cp.8_10                            0x08001ba0   Number         4  osc_task.o(.text.TFT_ShowUI)
    __arm_cp.8_11                            0x08001ba4   Number         4  osc_task.o(.text.TFT_ShowUI)
    __arm_cp.8_12                            0x08001ba8   Number         4  osc_task.o(.text.TFT_ShowUI)
    [Anonymous Symbol]                       0x08001bac   Section        0  osc_task.o(.text.TFT_StaticUI)
    __arm_cp.6_0                             0x08001e60   Number         4  osc_task.o(.text.TFT_StaticUI)
    __arm_cp.6_1                             0x08001e64   Number         4  osc_task.o(.text.TFT_StaticUI)
    __arm_cp.6_2                             0x08001e68   Number         4  osc_task.o(.text.TFT_StaticUI)
    __arm_cp.6_3                             0x08001e6c   Number         4  osc_task.o(.text.TFT_StaticUI)
    __arm_cp.6_4                             0x08001e70   Number         4  osc_task.o(.text.TFT_StaticUI)
    __arm_cp.6_5                             0x08001e74   Number         4  osc_task.o(.text.TFT_StaticUI)
    __arm_cp.6_6                             0x08001e78   Number         4  osc_task.o(.text.TFT_StaticUI)
    __arm_cp.6_7                             0x08001e7c   Number         4  osc_task.o(.text.TFT_StaticUI)
    __arm_cp.6_8                             0x08001e80   Number         4  osc_task.o(.text.TFT_StaticUI)
    __arm_cp.6_9                             0x08001e84   Number         4  osc_task.o(.text.TFT_StaticUI)
    __arm_cp.6_10                            0x08001e88   Number         4  osc_task.o(.text.TFT_StaticUI)
    [Anonymous Symbol]                       0x08001e8c   Section        0  hw_lcdinit.o(.text.TFT_WR_DATA)
    [Anonymous Symbol]                       0x08001ef0   Section        0  hw_lcdinit.o(.text.TFT_WR_DATA8)
    [Anonymous Symbol]                       0x08001f2c   Section        0  hw_lcdinit.o(.text.TFT_WR_REG)
    __arm_cp.2_0                             0x08001f84   Number         4  hw_lcdinit.o(.text.TFT_WR_REG)
    __arm_cp.2_1                             0x08001f88   Number         4  hw_lcdinit.o(.text.TFT_WR_REG)
    [Anonymous Symbol]                       0x08001f8c   Section        0  mid_timer.o(.text.TIMER15_IRQHandler)
    __arm_cp.0_0                             0x08001fe4   Number         4  mid_timer.o(.text.TIMER15_IRQHandler)
    __arm_cp.0_1                             0x08001fe8   Number         4  mid_timer.o(.text.TIMER15_IRQHandler)
    __arm_cp.0_2                             0x08001fec   Number         4  mid_timer.o(.text.TIMER15_IRQHandler)
    __arm_cp.0_3                             0x08001ff0   Number         4  mid_timer.o(.text.TIMER15_IRQHandler)
    __arm_cp.0_4                             0x08001ff4   Number         4  mid_timer.o(.text.TIMER15_IRQHandler)
    __arm_cp.0_5                             0x08001ff8   Number         4  mid_timer.o(.text.TIMER15_IRQHandler)
    [Anonymous Symbol]                       0x08001ffc   Section        0  mid_timer.o(.text.TIMER2_IRQHandler)
    __arm_cp.7_0                             0x080020a0   Number         4  mid_timer.o(.text.TIMER2_IRQHandler)
    __arm_cp.7_1                             0x080020a4   Number         4  mid_timer.o(.text.TIMER2_IRQHandler)
    __arm_cp.7_2                             0x080020a8   Number         4  mid_timer.o(.text.TIMER2_IRQHandler)
    __arm_cp.7_3                             0x080020ac   Number         4  mid_timer.o(.text.TIMER2_IRQHandler)
    __arm_cp.7_4                             0x080020b0   Number         4  mid_timer.o(.text.TIMER2_IRQHandler)
    __arm_cp.7_5                             0x080020b4   Number         4  mid_timer.o(.text.TIMER2_IRQHandler)
    __arm_cp.7_6                             0x080020b8   Number         4  mid_timer.o(.text.TIMER2_IRQHandler)
    __arm_cp.7_7                             0x080020bc   Number         4  mid_timer.o(.text.TIMER2_IRQHandler)
    __NVIC_EnableIRQ                         0x080020c1   Thumb Code    48  gd32e23x_misc.o(.text.__NVIC_EnableIRQ)
    [Anonymous Symbol]                       0x080020c0   Section        0  gd32e23x_misc.o(.text.__NVIC_EnableIRQ)
    __arm_cp.2_0                             0x080020f0   Number         4  gd32e23x_misc.o(.text.__NVIC_EnableIRQ)
    __NVIC_SetPriority                       0x080020f5   Thumb Code   124  gd32e23x_misc.o(.text.__NVIC_SetPriority)
    [Anonymous Symbol]                       0x080020f4   Section        0  gd32e23x_misc.o(.text.__NVIC_SetPriority)
    __arm_cp.1_0                             0x08002170   Number         4  gd32e23x_misc.o(.text.__NVIC_SetPriority)
    __arm_cp.1_1                             0x08002174   Number         4  gd32e23x_misc.o(.text.__NVIC_SetPriority)
    [Anonymous Symbol]                       0x08002178   Section        0  gd32e23x_adc.o(.text.adc_calibration_enable)
    [Anonymous Symbol]                       0x080021b0   Section        0  gd32e23x_adc.o(.text.adc_channel_length_config)
    __arm_cp.11_0                            0x08002210   Number         4  gd32e23x_adc.o(.text.adc_channel_length_config)
    __arm_cp.11_1                            0x08002214   Number         4  gd32e23x_adc.o(.text.adc_channel_length_config)
    [Anonymous Symbol]                       0x08002218   Section        0  gd32e23x_adc.o(.text.adc_data_alignment_config)
    [Anonymous Symbol]                       0x08002244   Section        0  gd32e23x_adc.o(.text.adc_dma_mode_enable)
    [Anonymous Symbol]                       0x08002254   Section        0  gd32e23x_adc.o(.text.adc_enable)
    [Anonymous Symbol]                       0x0800226c   Section        0  gd32e23x_adc.o(.text.adc_external_trigger_config)
    [Anonymous Symbol]                       0x080022e8   Section        0  gd32e23x_adc.o(.text.adc_external_trigger_source_config)
    [Anonymous Symbol]                       0x08002338   Section        0  gd32e23x_adc.o(.text.adc_flag_get)
    __arm_cp.20_0                            0x08002360   Number         4  gd32e23x_adc.o(.text.adc_flag_get)
    [Anonymous Symbol]                       0x08002364   Section        0  gd32e23x_adc.o(.text.adc_regular_channel_config)
    __arm_cp.12_0                            0x080024ac   Number         4  gd32e23x_adc.o(.text.adc_regular_channel_config)
    __arm_cp.12_1                            0x080024b0   Number         4  gd32e23x_adc.o(.text.adc_regular_channel_config)
    __arm_cp.12_2                            0x080024b4   Number         4  gd32e23x_adc.o(.text.adc_regular_channel_config)
    __arm_cp.12_3                            0x080024b8   Number         4  gd32e23x_adc.o(.text.adc_regular_channel_config)
    __arm_cp.12_4                            0x080024bc   Number         4  gd32e23x_adc.o(.text.adc_regular_channel_config)
    [Anonymous Symbol]                       0x080024c0   Section        0  gd32e23x_adc.o(.text.adc_regular_data_read)
    __arm_cp.18_0                            0x080024c8   Number         4  gd32e23x_adc.o(.text.adc_regular_data_read)
    [Anonymous Symbol]                       0x080024cc   Section        0  gd32e23x_adc.o(.text.adc_software_trigger_enable)
    __arm_cp.17_0                            0x08002508   Number         4  gd32e23x_adc.o(.text.adc_software_trigger_enable)
    [Anonymous Symbol]                       0x0800250c   Section        0  gd32e23x_adc.o(.text.adc_special_function_config)
    __arm_cp.9_0                             0x080025b8   Number         4  gd32e23x_adc.o(.text.adc_special_function_config)
    [Anonymous Symbol]                       0x080025bc   Section        0  gd32e23x_adc.o(.text.adc_tempsensor_vrefint_enable)
    __arm_cp.6_0                             0x080025cc   Number         4  gd32e23x_adc.o(.text.adc_tempsensor_vrefint_enable)
    [Anonymous Symbol]                       0x080025d0   Section        0  osc_task.o(.text.clear_adc_value)
    __arm_cp.1_0                             0x080025e4   Number         4  osc_task.o(.text.clear_adc_value)
    [Anonymous Symbol]                       0x080025e8   Section        0  systick.o(.text.delay_1ms)
    __arm_cp.3_0                             0x08002658   Number         4  systick.o(.text.delay_1ms)
    __arm_cp.3_1                             0x0800265c   Number         4  systick.o(.text.delay_1ms)
    __arm_cp.3_2                             0x08002660   Number         4  systick.o(.text.delay_1ms)
    __arm_cp.3_3                             0x08002664   Number         4  systick.o(.text.delay_1ms)
    [Anonymous Symbol]                       0x08002668   Section        0  gd32e23x_dma.o(.text.dma_channel_disable)
    [Anonymous Symbol]                       0x08002684   Section        0  gd32e23x_dma.o(.text.dma_channel_enable)
    [Anonymous Symbol]                       0x080026a0   Section        0  gd32e23x_dma.o(.text.dma_circulation_enable)
    [Anonymous Symbol]                       0x080026bc   Section        0  gd32e23x_dma.o(.text.dma_deinit)
    [Anonymous Symbol]                       0x08002714   Section        0  gd32e23x_dma.o(.text.dma_init)
    __arm_cp.2_0                             0x08002820   Number         4  gd32e23x_dma.o(.text.dma_init)
    __arm_cp.2_1                             0x08002824   Number         4  gd32e23x_dma.o(.text.dma_init)
    __arm_cp.2_2                             0x08002828   Number         4  gd32e23x_dma.o(.text.dma_init)
    [Anonymous Symbol]                       0x0800282c   Section        0  gd32e23x_dma.o(.text.dma_interrupt_enable)
    [Anonymous Symbol]                       0x0800284c   Section        0  gd32e23x_dma.o(.text.dma_interrupt_flag_clear)
    __arm_cp.24_0                            0x0800286c   Number         4  gd32e23x_dma.o(.text.dma_interrupt_flag_clear)
    [Anonymous Symbol]                       0x08002870   Section        0  gd32e23x_dma.o(.text.dma_interrupt_flag_get)
    __arm_cp.23_0                            0x0800292c   Number         4  gd32e23x_dma.o(.text.dma_interrupt_flag_get)
    __arm_cp.23_1                            0x08002930   Number         4  gd32e23x_dma.o(.text.dma_interrupt_flag_get)
    [Anonymous Symbol]                       0x08002934   Section        0  hw_ec11.o(.text.ec11_exti_callback)
    __arm_cp.1_0                             0x080029e8   Number         4  hw_ec11.o(.text.ec11_exti_callback)
    __arm_cp.1_1                             0x080029ec   Number         4  hw_ec11.o(.text.ec11_exti_callback)
    [Anonymous Symbol]                       0x080029f0   Section        0  hw_ec11.o(.text.ec11_init)
    [Anonymous Symbol]                       0x08002a1c   Section        0  gd32e23x_exti.o(.text.exti_init)
    __arm_cp.1_0                             0x08002aec   Number         4  gd32e23x_exti.o(.text.exti_init)
    __arm_cp.1_1                             0x08002af0   Number         4  gd32e23x_exti.o(.text.exti_init)
    __arm_cp.1_2                             0x08002af4   Number         4  gd32e23x_exti.o(.text.exti_init)
    __arm_cp.1_3                             0x08002af8   Number         4  gd32e23x_exti.o(.text.exti_init)
    [Anonymous Symbol]                       0x08002afc   Section        0  gd32e23x_exti.o(.text.exti_interrupt_flag_clear)
    [Anonymous Symbol]                       0x08002b0c   Section        0  gd32e23x_exti.o(.text.exti_interrupt_flag_get)
    __arm_cp.10_0                            0x08002b34   Number         4  gd32e23x_exti.o(.text.exti_interrupt_flag_get)
    [Anonymous Symbol]                       0x08002b38   Section        0  mid_adc.o(.text.get_adc_convert_value)
    __arm_cp.4_0                             0x08002b40   Number         4  mid_adc.o(.text.get_adc_convert_value)
    [Anonymous Symbol]                       0x08002b44   Section        0  mid_timer.o(.text.get_freq_value)
    __arm_cp.8_0                             0x08002b4c   Number         4  mid_timer.o(.text.get_freq_value)
    [Anonymous Symbol]                       0x08002b50   Section        0  mid_timer.o(.text.get_key_timer_value)
    __arm_cp.1_0                             0x08002b58   Number         4  mid_timer.o(.text.get_key_timer_value)
    [Anonymous Symbol]                       0x08002b5c   Section        0  osc_task.o(.text.get_osc_stop_bit)
    __arm_cp.5_0                             0x08002b64   Number         4  osc_task.o(.text.get_osc_stop_bit)
    [Anonymous Symbol]                       0x08002b68   Section        0  mid_pwm.o(.text.get_pwm_duty)
    __arm_cp.1_0                             0x08002b70   Number         4  mid_pwm.o(.text.get_pwm_duty)
    [Anonymous Symbol]                       0x08002b74   Section        0  mid_pwm.o(.text.get_pwm_out_freq)
    __arm_cp.6_1                             0x08002b90   Number         4  mid_pwm.o(.text.get_pwm_out_freq)
    [Anonymous Symbol]                       0x08002b94   Section        0  mid_pwm.o(.text.get_pwm_period)
    __arm_cp.3_0                             0x08002b9c   Number         4  mid_pwm.o(.text.get_pwm_period)
    [Anonymous Symbol]                       0x08002ba0   Section        0  mid_pwm.o(.text.get_pwm_state)
    __arm_cp.5_0                             0x08002ba8   Number         4  mid_pwm.o(.text.get_pwm_state)
    [Anonymous Symbol]                       0x08002bac   Section        0  osc_task.o(.text.get_step_value)
    __arm_cp.3_0                             0x08002bb4   Number         4  osc_task.o(.text.get_step_value)
    [Anonymous Symbol]                       0x08002bb8   Section        0  mid_timer.o(.text.get_tft_timer_value)
    __arm_cp.4_0                             0x08002bc0   Number         4  mid_timer.o(.text.get_tft_timer_value)
    [Anonymous Symbol]                       0x08002bc4   Section        0  gd32e23x_gpio.o(.text.gpio_af_set)
    [Anonymous Symbol]                       0x08002c84   Section        0  gd32e23x_gpio.o(.text.gpio_bit_write)
    [Anonymous Symbol]                       0x08002ca8   Section        0  gd32e23x_gpio.o(.text.gpio_input_bit_get)
    [Anonymous Symbol]                       0x08002cd2   Section        0  gd32e23x_gpio.o(.text.gpio_mode_set)
    [Anonymous Symbol]                       0x08002d60   Section        0  gd32e23x_gpio.o(.text.gpio_output_options_set)
    [Anonymous Symbol]                       0x08002dea   Section        0  hw_key.o(.text.key_init)
    [Anonymous Symbol]                       0x08002e1a   Section        0  hw_key.o(.text.key_scanf)
    [Anonymous Symbol]                       0x08002ef0   Section        0  osc_task.o(.text.key_scanf_handle)
    __arm_cp.7_0                             0x080030c8   Number         4  osc_task.o(.text.key_scanf_handle)
    __arm_cp.7_1                             0x080030cc   Number         4  osc_task.o(.text.key_scanf_handle)
    [Anonymous Symbol]                       0x080030d0   Section        0  hw_led.o(.text.led_init)
    [Anonymous Symbol]                       0x080030f8   Section        0  main.o(.text.main)
    __arm_cp.0_0                             0x080033f8   Number         4  main.o(.text.main)
    __arm_cp.0_1                             0x080033fc   Number         4  main.o(.text.main)
    __arm_cp.0_2                             0x08003400   Number         4  main.o(.text.main)
    __arm_cp.0_3                             0x08003404   Number         4  main.o(.text.main)
    __arm_cp.0_4                             0x08003408   Number         4  main.o(.text.main)
    __arm_cp.0_5                             0x0800340c   Number         4  main.o(.text.main)
    __arm_cp.0_6                             0x08003410   Number         4  main.o(.text.main)
    [Anonymous Symbol]                       0x08003414   Section        0  hw_adc.o(.text.mx_adc_dma_init)
    __arm_cp.1_0                             0x0800347c   Number         4  hw_adc.o(.text.mx_adc_dma_init)
    [Anonymous Symbol]                       0x08003480   Section        0  hw_adc.o(.text.mx_adc_init)
    __arm_cp.0_1                             0x08003514   Number         4  hw_adc.o(.text.mx_adc_init)
    [Anonymous Symbol]                       0x08003518   Section        0  hw_gpio.o(.text.mx_gpio_init)
    __arm_cp.0_0                             0x0800368c   Number         4  hw_gpio.o(.text.mx_gpio_init)
    __arm_cp.0_1                             0x08003690   Number         4  hw_gpio.o(.text.mx_gpio_init)
    __arm_cp.0_2                             0x08003694   Number         4  hw_gpio.o(.text.mx_gpio_init)
    __arm_cp.0_3                             0x08003698   Number         4  hw_gpio.o(.text.mx_gpio_init)
    [Anonymous Symbol]                       0x0800369c   Section        0  hw_spi.o(.text.mx_spi0_init)
    __arm_cp.0_1                             0x0800371c   Number         4  hw_spi.o(.text.mx_spi0_init)
    __arm_cp.0_2                             0x08003720   Number         4  hw_spi.o(.text.mx_spi0_init)
    [Anonymous Symbol]                       0x08003724   Section        0  hw_tim.o(.text.mx_tim14_init)
    __arm_cp.2_0                             0x080037f4   Number         4  hw_tim.o(.text.mx_tim14_init)
    __arm_cp.2_1                             0x080037f8   Number         4  hw_tim.o(.text.mx_tim14_init)
    [Anonymous Symbol]                       0x080037fc   Section        0  hw_tim.o(.text.mx_tim15_init)
    __arm_cp.0_0                             0x08003860   Number         4  hw_tim.o(.text.mx_tim15_init)
    __arm_cp.0_1                             0x08003864   Number         4  hw_tim.o(.text.mx_tim15_init)
    __arm_cp.0_2                             0x08003868   Number         4  hw_tim.o(.text.mx_tim15_init)
    [Anonymous Symbol]                       0x0800386c   Section        0  hw_tim.o(.text.mx_tim2_init)
    __arm_cp.1_0                             0x08003918   Number         4  hw_tim.o(.text.mx_tim2_init)
    __arm_cp.1_1                             0x0800391c   Number         4  hw_tim.o(.text.mx_tim2_init)
    __arm_cp.1_2                             0x08003920   Number         4  hw_tim.o(.text.mx_tim2_init)
    __arm_cp.1_3                             0x08003924   Number         4  hw_tim.o(.text.mx_tim2_init)
    [Anonymous Symbol]                       0x08003928   Section        0  gd32e23x_misc.o(.text.nvic_irq_enable)
    [Anonymous Symbol]                       0x08003954   Section        0  gd32e23x_misc.o(.text.nvic_vector_table_set)
    __arm_cp.7_0                             0x08003970   Number         4  gd32e23x_misc.o(.text.nvic_vector_table_set)
    __arm_cp.7_1                             0x08003974   Number         4  gd32e23x_misc.o(.text.nvic_vector_table_set)
    [Anonymous Symbol]                       0x08003978   Section        0  osc_task.o(.text.osc_waveShow)
    __arm_cp.9_0                             0x08003bd4   Number         4  osc_task.o(.text.osc_waveShow)
    __arm_cp.9_1                             0x08003bd8   Number         4  osc_task.o(.text.osc_waveShow)
    __arm_cp.9_2                             0x08003bdc   Number         4  osc_task.o(.text.osc_waveShow)
    __arm_cp.9_3                             0x08003be0   Number         4  osc_task.o(.text.osc_waveShow)
    __arm_cp.9_4                             0x08003be4   Number         4  osc_task.o(.text.osc_waveShow)
    __arm_cp.9_5                             0x08003be8   Number         4  osc_task.o(.text.osc_waveShow)
    __arm_cp.9_6                             0x08003bec   Number         4  osc_task.o(.text.osc_waveShow)
    __arm_cp.9_7                             0x08003bf0   Number         4  osc_task.o(.text.osc_waveShow)
    __arm_cp.9_8                             0x08003bf4   Number         4  osc_task.o(.text.osc_waveShow)
    __arm_cp.9_9                             0x08003bf8   Number         4  osc_task.o(.text.osc_waveShow)
    __arm_cp.9_10                            0x08003bfc   Number         4  osc_task.o(.text.osc_waveShow)
    __arm_cp.9_11                            0x08003c00   Number         4  osc_task.o(.text.osc_waveShow)
    [Anonymous Symbol]                       0x08003c04   Section        0  gd32e23x_rcu.o(.text.rcu_adc_clock_config)
    __arm_cp.14_0                            0x08003d84   Number         4  gd32e23x_rcu.o(.text.rcu_adc_clock_config)
    __arm_cp.14_1                            0x08003d88   Number         4  gd32e23x_rcu.o(.text.rcu_adc_clock_config)
    __arm_cp.14_2                            0x08003d8c   Number         4  gd32e23x_rcu.o(.text.rcu_adc_clock_config)
    [Anonymous Symbol]                       0x08003d90   Section        0  gd32e23x_rcu.o(.text.rcu_periph_clock_enable)
    [Anonymous Symbol]                       0x08003db4   Section        0  gd32e23x_rcu.o(.text.rcu_periph_reset_disable)
    [Anonymous Symbol]                       0x08003dd8   Section        0  gd32e23x_rcu.o(.text.rcu_periph_reset_enable)
    __arm_cp.5_0                             0x08003dfc   Number         4  gd32e23x_rcu.o(.text.rcu_periph_reset_enable)
    [Anonymous Symbol]                       0x08003e00   Section        0  mid_adc.o(.text.set_adc_convert_value)
    __arm_cp.5_0                             0x08003e10   Number         4  mid_adc.o(.text.set_adc_convert_value)
    [Anonymous Symbol]                       0x08003e14   Section        0  mid_timer.o(.text.set_key_bit_value)
    __arm_cp.3_0                             0x08003e24   Number         4  mid_timer.o(.text.set_key_bit_value)
    [Anonymous Symbol]                       0x08003e28   Section        0  mid_timer.o(.text.set_key_timer_value)
    __arm_cp.2_0                             0x08003e38   Number         4  mid_timer.o(.text.set_key_timer_value)
    [Anonymous Symbol]                       0x08003e3c   Section        0  osc_task.o(.text.set_osc_stop_bit)
    __arm_cp.4_0                             0x08003e4c   Number         4  osc_task.o(.text.set_osc_stop_bit)
    [Anonymous Symbol]                       0x08003e50   Section        0  mid_pwm.o(.text.set_pwm_duty)
    __arm_cp.0_0                             0x08003e70   Number         4  mid_pwm.o(.text.set_pwm_duty)
    [Anonymous Symbol]                       0x08003e74   Section        0  mid_pwm.o(.text.set_pwm_period)
    __arm_cp.2_0                             0x08003e90   Number         4  mid_pwm.o(.text.set_pwm_period)
    [Anonymous Symbol]                       0x08003e94   Section        0  mid_pwm.o(.text.set_pwm_state)
    __arm_cp.4_0                             0x08003ed4   Number         4  mid_pwm.o(.text.set_pwm_state)
    __arm_cp.4_1                             0x08003ed8   Number         4  mid_pwm.o(.text.set_pwm_state)
    [Anonymous Symbol]                       0x08003edc   Section        0  osc_task.o(.text.set_step_value)
    __arm_cp.2_0                             0x08003eec   Number         4  osc_task.o(.text.set_step_value)
    [Anonymous Symbol]                       0x08003ef0   Section        0  mid_timer.o(.text.set_tft_bit_value)
    __arm_cp.6_0                             0x08003f00   Number         4  mid_timer.o(.text.set_tft_bit_value)
    [Anonymous Symbol]                       0x08003f04   Section        0  mid_timer.o(.text.set_tft_timer_value)
    __arm_cp.5_0                             0x08003f14   Number         4  mid_timer.o(.text.set_tft_timer_value)
    [Anonymous Symbol]                       0x08003f18   Section        0  gd32e23x_spi.o(.text.spi_enable)
    [Anonymous Symbol]                       0x08003f2c   Section        0  gd32e23x_spi.o(.text.spi_i2s_data_transmit)
    [Anonymous Symbol]                       0x08003f78   Section        0  gd32e23x_spi.o(.text.spi_i2s_deinit)
    __arm_cp.0_2                             0x08003fbc   Number         4  gd32e23x_spi.o(.text.spi_i2s_deinit)
    [Anonymous Symbol]                       0x08003fc0   Section        0  gd32e23x_spi.o(.text.spi_i2s_flag_get)
    __arm_cp.41_0                            0x0800403c   Number         4  gd32e23x_spi.o(.text.spi_i2s_flag_get)
    [Anonymous Symbol]                       0x08004040   Section        0  gd32e23x_spi.o(.text.spi_init)
    __arm_cp.2_0                             0x08004170   Number         4  gd32e23x_spi.o(.text.spi_init)
    __arm_cp.2_1                             0x08004174   Number         4  gd32e23x_spi.o(.text.spi_init)
    [Anonymous Symbol]                       0x08004178   Section        0  gd32e23x_spi.o(.text.spi_struct_para_init)
    [Anonymous Symbol]                       0x080041a4   Section        0  gd32e23x_syscfg.o(.text.syscfg_exti_line_config)
    __arm_cp.5_0                             0x08004248   Number         4  gd32e23x_syscfg.o(.text.syscfg_exti_line_config)
    __arm_cp.5_1                             0x0800424c   Number         4  gd32e23x_syscfg.o(.text.syscfg_exti_line_config)
    __arm_cp.5_2                             0x08004250   Number         4  gd32e23x_syscfg.o(.text.syscfg_exti_line_config)
    __arm_cp.5_3                             0x08004254   Number         4  gd32e23x_syscfg.o(.text.syscfg_exti_line_config)
    system_clock_72m_hxtal                   0x08004259   Thumb Code   208  system_gd32e23x.o(.text.system_clock_72m_hxtal)
    [Anonymous Symbol]                       0x08004258   Section        0  system_gd32e23x.o(.text.system_clock_72m_hxtal)
    __arm_cp.3_0                             0x08004328   Number         4  system_gd32e23x.o(.text.system_clock_72m_hxtal)
    __arm_cp.3_1                             0x0800432c   Number         4  system_gd32e23x.o(.text.system_clock_72m_hxtal)
    __arm_cp.3_2                             0x08004330   Number         4  system_gd32e23x.o(.text.system_clock_72m_hxtal)
    __arm_cp.3_3                             0x08004334   Number         4  system_gd32e23x.o(.text.system_clock_72m_hxtal)
    __arm_cp.3_4                             0x08004338   Number         4  system_gd32e23x.o(.text.system_clock_72m_hxtal)
    system_clock_config                      0x0800433d   Thumb Code     8  system_gd32e23x.o(.text.system_clock_config)
    [Anonymous Symbol]                       0x0800433c   Section        0  system_gd32e23x.o(.text.system_clock_config)
    [Anonymous Symbol]                       0x08004344   Section        0  gd32e23x_misc.o(.text.systick_clksource_set)
    __arm_cp.10_0                            0x0800436c   Number         4  gd32e23x_misc.o(.text.systick_clksource_set)
    [Anonymous Symbol]                       0x08004370   Section        0  systick.o(.text.systick_config)
    __arm_cp.0_0                             0x0800439c   Number         4  systick.o(.text.systick_config)
    __arm_cp.0_1                             0x080043a0   Number         4  systick.o(.text.systick_config)
    __arm_cp.0_2                             0x080043a4   Number         4  systick.o(.text.systick_config)
    __arm_cp.0_3                             0x080043a8   Number         4  systick.o(.text.systick_config)
    __arm_cp.0_4                             0x080043ac   Number         4  systick.o(.text.systick_config)
    [Anonymous Symbol]                       0x080043b0   Section        0  gd32e23x_timer.o(.text.timer_auto_reload_shadow_enable)
    [Anonymous Symbol]                       0x080043c2   Section        0  gd32e23x_timer.o(.text.timer_autoreload_value_config)
    [Anonymous Symbol]                       0x080043d4   Section        0  gd32e23x_timer.o(.text.timer_channel_capture_value_register_read)
    [Anonymous Symbol]                       0x0800442c   Section        0  gd32e23x_timer.o(.text.timer_channel_input_capture_prescaler_config)
    [Anonymous Symbol]                       0x080044ca   Section        0  gd32e23x_timer.o(.text.timer_channel_input_struct_para_init)
    [Anonymous Symbol]                       0x080044e8   Section        0  gd32e23x_timer.o(.text.timer_channel_output_config)
    __arm_cp.42_0                            0x080047cc   Number         4  gd32e23x_timer.o(.text.timer_channel_output_config)
    __arm_cp.42_1                            0x080047d0   Number         4  gd32e23x_timer.o(.text.timer_channel_output_config)
    __arm_cp.42_2                            0x080047d4   Number         4  gd32e23x_timer.o(.text.timer_channel_output_config)
    __arm_cp.42_3                            0x080047d8   Number         4  gd32e23x_timer.o(.text.timer_channel_output_config)
    [Anonymous Symbol]                       0x080047dc   Section        0  gd32e23x_timer.o(.text.timer_channel_output_mode_config)
    [Anonymous Symbol]                       0x0800487c   Section        0  gd32e23x_timer.o(.text.timer_channel_output_pulse_value_config)
    [Anonymous Symbol]                       0x080048d0   Section        0  gd32e23x_timer.o(.text.timer_channel_output_shadow_config)
    [Anonymous Symbol]                       0x0800496e   Section        0  gd32e23x_timer.o(.text.timer_channel_output_struct_para_init)
    [Anonymous Symbol]                       0x08004990   Section        0  gd32e23x_timer.o(.text.timer_deinit)
    __arm_cp.0_1                             0x08004a58   Number         4  gd32e23x_timer.o(.text.timer_deinit)
    __arm_cp.0_3                             0x08004a5c   Number         4  gd32e23x_timer.o(.text.timer_deinit)
    __arm_cp.0_4                             0x08004a60   Number         4  gd32e23x_timer.o(.text.timer_deinit)
    __arm_cp.0_7                             0x08004a64   Number         4  gd32e23x_timer.o(.text.timer_deinit)
    __arm_cp.0_8                             0x08004a68   Number         4  gd32e23x_timer.o(.text.timer_deinit)
    __arm_cp.0_9                             0x08004a6c   Number         4  gd32e23x_timer.o(.text.timer_deinit)
    __arm_cp.0_10                            0x08004a70   Number         4  gd32e23x_timer.o(.text.timer_deinit)
    __arm_cp.0_11                            0x08004a74   Number         4  gd32e23x_timer.o(.text.timer_deinit)
    [Anonymous Symbol]                       0x08004a78   Section        0  gd32e23x_timer.o(.text.timer_disable)
    [Anonymous Symbol]                       0x08004a8a   Section        0  gd32e23x_timer.o(.text.timer_enable)
    [Anonymous Symbol]                       0x08004a9c   Section        0  gd32e23x_timer.o(.text.timer_init)
    __arm_cp.2_0                             0x08004b80   Number         4  gd32e23x_timer.o(.text.timer_init)
    __arm_cp.2_1                             0x08004b84   Number         4  gd32e23x_timer.o(.text.timer_init)
    __arm_cp.2_2                             0x08004b88   Number         4  gd32e23x_timer.o(.text.timer_init)
    __arm_cp.2_3                             0x08004b8c   Number         4  gd32e23x_timer.o(.text.timer_init)
    __arm_cp.2_4                             0x08004b90   Number         4  gd32e23x_timer.o(.text.timer_init)
    __arm_cp.2_5                             0x08004b94   Number         4  gd32e23x_timer.o(.text.timer_init)
    [Anonymous Symbol]                       0x08004b98   Section        0  gd32e23x_timer.o(.text.timer_input_capture_config)
    [Anonymous Symbol]                       0x08004d56   Section        0  gd32e23x_timer.o(.text.timer_interrupt_enable)
    [Anonymous Symbol]                       0x08004d6a   Section        0  gd32e23x_timer.o(.text.timer_interrupt_flag_clear)
    [Anonymous Symbol]                       0x08004d7c   Section        0  gd32e23x_timer.o(.text.timer_interrupt_flag_get)
    [Anonymous Symbol]                       0x08004db6   Section        0  gd32e23x_timer.o(.text.timer_prescaler_config)
    [Anonymous Symbol]                       0x08004de6   Section        0  gd32e23x_timer.o(.text.timer_primary_output_config)
    [Anonymous Symbol]                       0x08004e18   Section        0  gd32e23x_timer.o(.text.timer_struct_para_init)
    __arm_cp.1_0                             0x08004e3c   Number         4  gd32e23x_timer.o(.text.timer_struct_para_init)
    i.__0sprintf                             0x08004e40   Section        0  printfa.o(i.__0sprintf)
    i.__ARM_clz                              0x08004e68   Section        0  depilogue.o(i.__ARM_clz)
    i.__scatterload_copy                     0x08004e96   Section       14  handlers.o(i.__scatterload_copy)
    i.__scatterload_null                     0x08004ea4   Section        2  handlers.o(i.__scatterload_null)
    i.__scatterload_zeroinit                 0x08004ea6   Section       14  handlers.o(i.__scatterload_zeroinit)
    _fp_digits                               0x08004eb5   Thumb Code   344  printfa.o(i._fp_digits)
    i._fp_digits                             0x08004eb4   Section        0  printfa.o(i._fp_digits)
    _printf_core                             0x08005029   Thumb Code  1754  printfa.o(i._printf_core)
    i._printf_core                           0x08005028   Section        0  printfa.o(i._printf_core)
    _printf_post_padding                     0x08005715   Thumb Code    32  printfa.o(i._printf_post_padding)
    i._printf_post_padding                   0x08005714   Section        0  printfa.o(i._printf_post_padding)
    _printf_pre_padding                      0x08005735   Thumb Code    44  printfa.o(i._printf_pre_padding)
    i._printf_pre_padding                    0x08005734   Section        0  printfa.o(i._printf_pre_padding)
    _sputc                                   0x08005761   Thumb Code    10  printfa.o(i._sputc)
    i._sputc                                 0x08005760   Section        0  printfa.o(i._sputc)
    [Anonymous Symbol]                       0x08006f2a   Section        0  osc_task.o(.rodata.str1.1)
    adc_convert_bit                          0x20000004   Data           1  mid_adc.o(.data.adc_convert_bit)
    [Anonymous Symbol]                       0x20000004   Section        0  mid_adc.o(.data.adc_convert_bit)
    key_timer_bit                            0x20000005   Data           1  mid_timer.o(.data.key_timer_bit)
    [Anonymous Symbol]                       0x20000005   Section        0  mid_timer.o(.data.key_timer_bit)
    osc_stop_bit                             0x20000006   Data           1  osc_task.o(.data.osc_stop_bit)
    [Anonymous Symbol]                       0x20000006   Section        0  osc_task.o(.data.osc_stop_bit)
    pwm_duty                                 0x20000008   Data           2  mid_pwm.o(.data.pwm_duty)
    [Anonymous Symbol]                       0x20000008   Section        0  mid_pwm.o(.data.pwm_duty)
    pwm_period                               0x2000000a   Data           2  mid_pwm.o(.data.pwm_period)
    [Anonymous Symbol]                       0x2000000a   Section        0  mid_pwm.o(.data.pwm_period)
    pwm_state                                0x2000000c   Data           1  mid_pwm.o(.data.pwm_state)
    [Anonymous Symbol]                       0x2000000c   Section        0  mid_pwm.o(.data.pwm_state)
    step_value                               0x2000000d   Data           1  osc_task.o(.data.step_value)
    [Anonymous Symbol]                       0x2000000d   Section        0  osc_task.o(.data.step_value)
    tft_timer_bit                            0x2000000e   Data           1  mid_timer.o(.data.tft_timer_bit)
    [Anonymous Symbol]                       0x2000000e   Section        0  mid_timer.o(.data.tft_timer_bit)
    adc_value                                0x20000010   Data        2000  osc_task.o(.bss.adc_value)
    [Anonymous Symbol]                       0x20000010   Section        0  osc_task.o(.bss.adc_value)
    adc_value2                               0x200007e0   Data        2000  osc_task.o(.bss.adc_value2)
    [Anonymous Symbol]                       0x200007e0   Section        0  osc_task.o(.bss.adc_value2)
    ccnumber                                 0x20000fb0   Data           2  mid_timer.o(.bss.ccnumber)
    [Anonymous Symbol]                       0x20000fb0   Section        0  mid_timer.o(.bss.ccnumber)
    count                                    0x20000fb4   Data           4  mid_timer.o(.bss.count)
    [Anonymous Symbol]                       0x20000fb4   Section        0  mid_timer.o(.bss.count)
    count_1ms                                0x20000fb8   Data           4  systick.o(.bss.count_1ms)
    [Anonymous Symbol]                       0x20000fb8   Section        0  systick.o(.bss.count_1ms)
    count_1us                                0x20000fbc   Data           4  systick.o(.bss.count_1us)
    [Anonymous Symbol]                       0x20000fbc   Section        0  systick.o(.bss.count_1us)
    ec11_exti_callback.b_value               0x20000fc0   Data           1  hw_ec11.o(.bss.ec11_exti_callback.b_value)
    [Anonymous Symbol]                       0x20000fc0   Section        0  hw_ec11.o(.bss.ec11_exti_callback.b_value)
    ec11_exti_callback.cnt                   0x20000fc1   Data           1  hw_ec11.o(.bss.ec11_exti_callback.cnt)
    [Anonymous Symbol]                       0x20000fc1   Section        0  hw_ec11.o(.bss.ec11_exti_callback.cnt)
    ec11_handle                              0x20000fc4   Data          20  main.o(.bss.ec11_handle)
    [Anonymous Symbol]                       0x20000fc4   Section        0  main.o(.bss.ec11_handle)
    freq                                     0x20000fd8   Data           4  mid_timer.o(.bss.freq)
    [Anonymous Symbol]                       0x20000fd8   Section        0  mid_timer.o(.bss.freq)
    key_handle                               0x20000fdc   Data          64  main.o(.bss.key_handle)
    [Anonymous Symbol]                       0x20000fdc   Section        0  main.o(.bss.key_handle)
    key_timer_value                          0x2000101c   Data           2  mid_timer.o(.bss.key_timer_value)
    [Anonymous Symbol]                       0x2000101c   Section        0  mid_timer.o(.bss.key_timer_value)
    led_hanlde                               0x20001020   Data          24  main.o(.bss.led_hanlde)
    [Anonymous Symbol]                       0x20001020   Section        0  main.o(.bss.led_hanlde)
    maxVol                                   0x20001038   Data           4  osc_task.o(.bss.maxVol)
    [Anonymous Symbol]                       0x20001038   Section        0  osc_task.o(.bss.maxVol)
    minVol                                   0x2000103c   Data           4  osc_task.o(.bss.minVol)
    [Anonymous Symbol]                       0x2000103c   Section        0  osc_task.o(.bss.minVol)
    newWave                                  0x20001040   Data         200  osc_task.o(.bss.newWave)
    [Anonymous Symbol]                       0x20001040   Section        0  osc_task.o(.bss.newWave)
    oldWave                                  0x20001108   Data         200  osc_task.o(.bss.oldWave)
    [Anonymous Symbol]                       0x20001108   Section        0  osc_task.o(.bss.oldWave)
    readvalue1                               0x200011d0   Data           2  mid_timer.o(.bss.readvalue1)
    [Anonymous Symbol]                       0x200011d0   Section        0  mid_timer.o(.bss.readvalue1)
    readvalue2                               0x200011d2   Data           2  mid_timer.o(.bss.readvalue2)
    [Anonymous Symbol]                       0x200011d2   Section        0  mid_timer.o(.bss.readvalue2)
    tft_timer_value                          0x200011d4   Data           2  mid_timer.o(.bss.tft_timer_value)
    [Anonymous Symbol]                       0x200011d4   Section        0  mid_timer.o(.bss.tft_timer_value)
    STACK                                    0x200011d8   Section     1536  startup_gd32e23x.o(STACK)

    Global Symbols

    Symbol Name                              Value     Ov Type        Size  Object(Section)

    BuildAttributes$$THM_ISAv3M$S$8M$PE$A:L22$X:L11$S22$IEEE1$IW$~IW$USESV6$~STKCKD$USESV7$~SHL$OTIME$ROPI$EBA8$MICROLIB$REQ8$PRES8$EABIv2 0x00000000   Number         0  anon$$obj.o ABSOLUTE
    __cpp_initialize__aeabi_                  - Undefined Weak Reference
    __cxa_finalize                            - Undefined Weak Reference
    __decompress                              - Undefined Weak Reference
    _clock_init                               - Undefined Weak Reference
    _microlib_exit                            - Undefined Weak Reference
    __Vectors_Size                           0x000000cc   Number         0  startup_gd32e23x.o ABSOLUTE
    __Vectors                                0x08000000   Data           4  startup_gd32e23x.o(RESET)
    __Vectors_End                            0x080000cc   Data           0  startup_gd32e23x.o(RESET)
    __main                                   0x080000cd   Thumb Code     0  entry.o(.ARM.Collect$$$$00000000)
    _main_stk                                0x080000cd   Thumb Code     0  entry2.o(.ARM.Collect$$$$00000001)
    _main_scatterload                        0x080000d1   Thumb Code     0  entry5.o(.ARM.Collect$$$$00000004)
    __main_after_scatterload                 0x080000d5   Thumb Code     0  entry5.o(.ARM.Collect$$$$00000004)
    _main_clock                              0x080000d5   Thumb Code     0  entry7b.o(.ARM.Collect$$$$00000008)
    _main_cpp_init                           0x080000d5   Thumb Code     0  entry8b.o(.ARM.Collect$$$$0000000A)
    _main_init                               0x080000d5   Thumb Code     0  entry9a.o(.ARM.Collect$$$$0000000B)
    __rt_final_cpp                           0x080000dd   Thumb Code     0  entry10a.o(.ARM.Collect$$$$0000000D)
    __rt_final_exit                          0x080000dd   Thumb Code     0  entry11a.o(.ARM.Collect$$$$0000000F)
    Reset_Handler                            0x080000e1   Thumb Code     8  startup_gd32e23x.o(.text)
    ADC_CMP_IRQHandler                       0x080000f3   Thumb Code     0  startup_gd32e23x.o(.text)
    DMA_Channel1_2_IRQHandler                0x080000f3   Thumb Code     0  startup_gd32e23x.o(.text)
    DMA_Channel3_4_IRQHandler                0x080000f3   Thumb Code     0  startup_gd32e23x.o(.text)
    EXTI0_1_IRQHandler                       0x080000f3   Thumb Code     0  startup_gd32e23x.o(.text)
    EXTI2_3_IRQHandler                       0x080000f3   Thumb Code     0  startup_gd32e23x.o(.text)
    FMC_IRQHandler                           0x080000f3   Thumb Code     0  startup_gd32e23x.o(.text)
    I2C0_ER_IRQHandler                       0x080000f3   Thumb Code     0  startup_gd32e23x.o(.text)
    I2C0_EV_IRQHandler                       0x080000f3   Thumb Code     0  startup_gd32e23x.o(.text)
    I2C1_ER_IRQHandler                       0x080000f3   Thumb Code     0  startup_gd32e23x.o(.text)
    I2C1_EV_IRQHandler                       0x080000f3   Thumb Code     0  startup_gd32e23x.o(.text)
    LVD_IRQHandler                           0x080000f3   Thumb Code     0  startup_gd32e23x.o(.text)
    RCU_IRQHandler                           0x080000f3   Thumb Code     0  startup_gd32e23x.o(.text)
    RTC_IRQHandler                           0x080000f3   Thumb Code     0  startup_gd32e23x.o(.text)
    SPI0_IRQHandler                          0x080000f3   Thumb Code     0  startup_gd32e23x.o(.text)
    SPI1_IRQHandler                          0x080000f3   Thumb Code     0  startup_gd32e23x.o(.text)
    TIMER0_BRK_UP_TRG_COM_IRQHandler         0x080000f3   Thumb Code     0  startup_gd32e23x.o(.text)
    TIMER0_Channel_IRQHandler                0x080000f3   Thumb Code     0  startup_gd32e23x.o(.text)
    TIMER13_IRQHandler                       0x080000f3   Thumb Code     0  startup_gd32e23x.o(.text)
    TIMER14_IRQHandler                       0x080000f3   Thumb Code     0  startup_gd32e23x.o(.text)
    TIMER16_IRQHandler                       0x080000f3   Thumb Code     0  startup_gd32e23x.o(.text)
    TIMER5_IRQHandler                        0x080000f3   Thumb Code     0  startup_gd32e23x.o(.text)
    USART0_IRQHandler                        0x080000f3   Thumb Code     0  startup_gd32e23x.o(.text)
    USART1_IRQHandler                        0x080000f3   Thumb Code     0  startup_gd32e23x.o(.text)
    WWDGT_IRQHandler                         0x080000f3   Thumb Code     0  startup_gd32e23x.o(.text)
    __aeabi_memset                           0x080000fd   Thumb Code    14  memseta.o(.text)
    __aeabi_memset4                          0x080000fd   Thumb Code     0  memseta.o(.text)
    __aeabi_memset8                          0x080000fd   Thumb Code     0  memseta.o(.text)
    __aeabi_memclr                           0x0800010b   Thumb Code     4  memseta.o(.text)
    __aeabi_memclr4                          0x0800010b   Thumb Code     0  memseta.o(.text)
    __aeabi_memclr8                          0x0800010b   Thumb Code     0  memseta.o(.text)
    _memset$wrapper                          0x0800010f   Thumb Code    18  memseta.o(.text)
    __aeabi_fadd                             0x08000121   Thumb Code   162  fadd.o(.text)
    __aeabi_fsub                             0x080001c3   Thumb Code     8  fadd.o(.text)
    __aeabi_frsub                            0x080001cb   Thumb Code     8  fadd.o(.text)
    __aeabi_fmul                             0x080001d3   Thumb Code   122  fmul.o(.text)
    __aeabi_fdiv                             0x0800024d   Thumb Code   124  fdiv.o(.text)
    __aeabi_fcmple                           0x080002c9   Thumb Code    28  fcmple.o(.text)
    __aeabi_fcmpge                           0x080002e5   Thumb Code    28  fcmpge.o(.text)
    __aeabi_i2f                              0x08000301   Thumb Code    22  fflti.o(.text)
    __aeabi_ui2f                             0x08000317   Thumb Code    14  ffltui.o(.text)
    __aeabi_f2iz                             0x08000325   Thumb Code    50  ffixi.o(.text)
    __aeabi_f2uiz                            0x08000357   Thumb Code    40  ffixui.o(.text)
    __aeabi_f2d                              0x0800037f   Thumb Code    40  f2d.o(.text)
    __aeabi_uldivmod                         0x080003a7   Thumb Code    96  uldiv.o(.text)
    __I$use$fp                               0x08000407   Thumb Code     0  iusefp.o(.text)
    _float_round                             0x08000407   Thumb Code    16  fepilogue.o(.text)
    _float_epilogue                          0x08000417   Thumb Code   114  fepilogue.o(.text)
    __aeabi_dadd                             0x08000489   Thumb Code   328  dadd.o(.text)
    __aeabi_dsub                             0x080005d1   Thumb Code    12  dadd.o(.text)
    __aeabi_drsub                            0x080005dd   Thumb Code    12  dadd.o(.text)
    __aeabi_dmul                             0x080005ed   Thumb Code   202  dmul.o(.text)
    __aeabi_ddiv                             0x080006bd   Thumb Code   234  ddiv.o(.text)
    __aeabi_d2ulz                            0x080007ad   Thumb Code    54  dfixul.o(.text)
    __aeabi_cdrcmple                         0x080007ed   Thumb Code    38  cdrcmple.o(.text)
    __scatterload                            0x08000815   Thumb Code    28  init.o(.text)
    __scatterload_rt2                        0x08000815   Thumb Code     0  init.o(.text)
    __aeabi_uidiv$div0                       0x08000839   Thumb Code     0  uidiv_div0.o(.text)
    __aeabi_uidivmod                         0x08000839   Thumb Code    62  uidiv_div0.o(.text)
    __aeabi_llsl                             0x08000877   Thumb Code    32  llshl.o(.text)
    _ll_shift_l                              0x08000877   Thumb Code     0  llshl.o(.text)
    __aeabi_llsr                             0x08000897   Thumb Code    34  llushr.o(.text)
    _ll_ushift_r                             0x08000897   Thumb Code     0  llushr.o(.text)
    __aeabi_lasr                             0x080008b9   Thumb Code    38  llsshr.o(.text)
    _ll_sshift_r                             0x080008b9   Thumb Code     0  llsshr.o(.text)
    _double_round                            0x080008df   Thumb Code    26  depilogue.o(.text)
    _double_epilogue                         0x080008f9   Thumb Code   164  depilogue.o(.text)
    DMA_Channel0_IRQHandler                  0x0800099d   Thumb Code    48  mid_adc.o(.text.DMA_Channel0_IRQHandler)
    EXTI4_15_IRQHandler                      0x080009d1   Thumb Code    24  main.o(.text.EXTI4_15_IRQHandler)
    Get_ADC_Average                          0x080009ed   Thumb Code   160  mid_adc.o(.text.Get_ADC_Average)
    HardFault_Handler                        0x08000abf   Thumb Code     4  gd32e23x_it.o(.text.HardFault_Handler)
    NMI_Handler                              0x08000ac3   Thumb Code     2  gd32e23x_it.o(.text.NMI_Handler)
    PendSV_Handler                           0x08000ac5   Thumb Code     2  gd32e23x_it.o(.text.PendSV_Handler)
    Register_oscShowData                     0x08000ac9   Thumb Code    16  osc_task.o(.text.Register_oscShowData)
    SVC_Handler                              0x08000add   Thumb Code     2  gd32e23x_it.o(.text.SVC_Handler)
    Set_ADC_Channel                          0x08000adf   Thumb Code    24  mid_adc.o(.text.Set_ADC_Channel)
    SysTick_Handler                          0x08000af7   Thumb Code     2  gd32e23x_it.o(.text.SysTick_Handler)
    SystemInit                               0x08000af9   Thumb Code   216  system_gd32e23x.o(.text.SystemInit)
    TFT_Address_Set                          0x08000bf5   Thumb Code    82  hw_lcdinit.o(.text.TFT_Address_Set)
    TFT_DrawLine                             0x08000c47   Thumb Code   312  mid_lcd.o(.text.TFT_DrawLine)
    TFT_DrawPoint                            0x08000d7f   Thumb Code    44  mid_lcd.o(.text.TFT_DrawPoint)
    TFT_Fill                                 0x08000dab   Thumb Code   144  mid_lcd.o(.text.TFT_Fill)
    TFT_Init                                 0x08000e3d   Thumb Code   552  hw_lcdinit.o(.text.TFT_Init)
    TFT_ShowChar                             0x08001069   Thumb Code   440  mid_lcd.o(.text.TFT_ShowChar)
    TFT_ShowChinese                          0x08001229   Thumb Code   226  mid_lcd.o(.text.TFT_ShowChinese)
    TFT_ShowChinese12x12                     0x0800130d   Thumb Code   488  mid_lcd.o(.text.TFT_ShowChinese12x12)
    TFT_ShowChinese16x16                     0x080014f9   Thumb Code   488  mid_lcd.o(.text.TFT_ShowChinese16x16)
    TFT_ShowChinese24x24                     0x080016e5   Thumb Code   488  mid_lcd.o(.text.TFT_ShowChinese24x24)
    TFT_ShowString                           0x080018d1   Thumb Code   120  mid_lcd.o(.text.TFT_ShowString)
    TFT_ShowUI                               0x08001949   Thumb Code   560  osc_task.o(.text.TFT_ShowUI)
    TFT_StaticUI                             0x08001bad   Thumb Code   692  osc_task.o(.text.TFT_StaticUI)
    TFT_WR_DATA                              0x08001e8d   Thumb Code   100  hw_lcdinit.o(.text.TFT_WR_DATA)
    TFT_WR_DATA8                             0x08001ef1   Thumb Code    60  hw_lcdinit.o(.text.TFT_WR_DATA8)
    TFT_WR_REG                               0x08001f2d   Thumb Code    88  hw_lcdinit.o(.text.TFT_WR_REG)
    TIMER15_IRQHandler                       0x08001f8d   Thumb Code    88  mid_timer.o(.text.TIMER15_IRQHandler)
    TIMER2_IRQHandler                        0x08001ffd   Thumb Code   164  mid_timer.o(.text.TIMER2_IRQHandler)
    adc_calibration_enable                   0x08002179   Thumb Code    56  gd32e23x_adc.o(.text.adc_calibration_enable)
    adc_channel_length_config                0x080021b1   Thumb Code    96  gd32e23x_adc.o(.text.adc_channel_length_config)
    adc_data_alignment_config                0x08002219   Thumb Code    44  gd32e23x_adc.o(.text.adc_data_alignment_config)
    adc_dma_mode_enable                      0x08002245   Thumb Code    16  gd32e23x_adc.o(.text.adc_dma_mode_enable)
    adc_enable                               0x08002255   Thumb Code    24  gd32e23x_adc.o(.text.adc_enable)
    adc_external_trigger_config              0x0800226d   Thumb Code   124  gd32e23x_adc.o(.text.adc_external_trigger_config)
    adc_external_trigger_source_config       0x080022e9   Thumb Code    80  gd32e23x_adc.o(.text.adc_external_trigger_source_config)
    adc_flag_get                             0x08002339   Thumb Code    40  gd32e23x_adc.o(.text.adc_flag_get)
    adc_regular_channel_config               0x08002365   Thumb Code   328  gd32e23x_adc.o(.text.adc_regular_channel_config)
    adc_regular_data_read                    0x080024c1   Thumb Code     8  gd32e23x_adc.o(.text.adc_regular_data_read)
    adc_software_trigger_enable              0x080024cd   Thumb Code    60  gd32e23x_adc.o(.text.adc_software_trigger_enable)
    adc_special_function_config              0x0800250d   Thumb Code   172  gd32e23x_adc.o(.text.adc_special_function_config)
    adc_tempsensor_vrefint_enable            0x080025bd   Thumb Code    16  gd32e23x_adc.o(.text.adc_tempsensor_vrefint_enable)
    clear_adc_value                          0x080025d1   Thumb Code    20  osc_task.o(.text.clear_adc_value)
    delay_1ms                                0x080025e9   Thumb Code   112  systick.o(.text.delay_1ms)
    dma_channel_disable                      0x08002669   Thumb Code    28  gd32e23x_dma.o(.text.dma_channel_disable)
    dma_channel_enable                       0x08002685   Thumb Code    28  gd32e23x_dma.o(.text.dma_channel_enable)
    dma_circulation_enable                   0x080026a1   Thumb Code    28  gd32e23x_dma.o(.text.dma_circulation_enable)
    dma_deinit                               0x080026bd   Thumb Code    88  gd32e23x_dma.o(.text.dma_deinit)
    dma_init                                 0x08002715   Thumb Code   268  gd32e23x_dma.o(.text.dma_init)
    dma_interrupt_enable                     0x0800282d   Thumb Code    32  gd32e23x_dma.o(.text.dma_interrupt_enable)
    dma_interrupt_flag_clear                 0x0800284d   Thumb Code    32  gd32e23x_dma.o(.text.dma_interrupt_flag_clear)
    dma_interrupt_flag_get                   0x08002871   Thumb Code   188  gd32e23x_dma.o(.text.dma_interrupt_flag_get)
    ec11_exti_callback                       0x08002935   Thumb Code   180  hw_ec11.o(.text.ec11_exti_callback)
    ec11_init                                0x080029f1   Thumb Code    42  hw_ec11.o(.text.ec11_init)
    exti_init                                0x08002a1d   Thumb Code   208  gd32e23x_exti.o(.text.exti_init)
    exti_interrupt_flag_clear                0x08002afd   Thumb Code    16  gd32e23x_exti.o(.text.exti_interrupt_flag_clear)
    exti_interrupt_flag_get                  0x08002b0d   Thumb Code    40  gd32e23x_exti.o(.text.exti_interrupt_flag_get)
    get_adc_convert_value                    0x08002b39   Thumb Code     8  mid_adc.o(.text.get_adc_convert_value)
    get_freq_value                           0x08002b45   Thumb Code     8  mid_timer.o(.text.get_freq_value)
    get_key_timer_value                      0x08002b51   Thumb Code     8  mid_timer.o(.text.get_key_timer_value)
    get_osc_stop_bit                         0x08002b5d   Thumb Code     8  osc_task.o(.text.get_osc_stop_bit)
    get_pwm_duty                             0x08002b69   Thumb Code     8  mid_pwm.o(.text.get_pwm_duty)
    get_pwm_out_freq                         0x08002b75   Thumb Code    28  mid_pwm.o(.text.get_pwm_out_freq)
    get_pwm_period                           0x08002b95   Thumb Code     8  mid_pwm.o(.text.get_pwm_period)
    get_pwm_state                            0x08002ba1   Thumb Code     8  mid_pwm.o(.text.get_pwm_state)
    get_step_value                           0x08002bad   Thumb Code     8  osc_task.o(.text.get_step_value)
    get_tft_timer_value                      0x08002bb9   Thumb Code     8  mid_timer.o(.text.get_tft_timer_value)
    gpio_af_set                              0x08002bc5   Thumb Code   192  gd32e23x_gpio.o(.text.gpio_af_set)
    gpio_bit_write                           0x08002c85   Thumb Code    36  gd32e23x_gpio.o(.text.gpio_bit_write)
    gpio_input_bit_get                       0x08002ca9   Thumb Code    42  gd32e23x_gpio.o(.text.gpio_input_bit_get)
    gpio_mode_set                            0x08002cd3   Thumb Code   142  gd32e23x_gpio.o(.text.gpio_mode_set)
    gpio_output_options_set                  0x08002d61   Thumb Code   138  gd32e23x_gpio.o(.text.gpio_output_options_set)
    key_init                                 0x08002deb   Thumb Code    48  hw_key.o(.text.key_init)
    key_scanf                                0x08002e1b   Thumb Code   214  hw_key.o(.text.key_scanf)
    key_scanf_handle                         0x08002ef1   Thumb Code   472  osc_task.o(.text.key_scanf_handle)
    led_init                                 0x080030d1   Thumb Code    38  hw_led.o(.text.led_init)
    main                                     0x080030f9   Thumb Code   768  main.o(.text.main)
    mx_adc_dma_init                          0x08003415   Thumb Code   104  hw_adc.o(.text.mx_adc_dma_init)
    mx_adc_init                              0x08003481   Thumb Code   148  hw_adc.o(.text.mx_adc_init)
    mx_gpio_init                             0x08003519   Thumb Code   372  hw_gpio.o(.text.mx_gpio_init)
    mx_spi0_init                             0x0800369d   Thumb Code   128  hw_spi.o(.text.mx_spi0_init)
    mx_tim14_init                            0x08003725   Thumb Code   208  hw_tim.o(.text.mx_tim14_init)
    mx_tim15_init                            0x080037fd   Thumb Code   100  hw_tim.o(.text.mx_tim15_init)
    mx_tim2_init                             0x0800386d   Thumb Code   172  hw_tim.o(.text.mx_tim2_init)
    nvic_irq_enable                          0x08003929   Thumb Code    44  gd32e23x_misc.o(.text.nvic_irq_enable)
    nvic_vector_table_set                    0x08003955   Thumb Code    28  gd32e23x_misc.o(.text.nvic_vector_table_set)
    osc_waveShow                             0x08003979   Thumb Code   604  osc_task.o(.text.osc_waveShow)
    rcu_adc_clock_config                     0x08003c05   Thumb Code   384  gd32e23x_rcu.o(.text.rcu_adc_clock_config)
    rcu_periph_clock_enable                  0x08003d91   Thumb Code    36  gd32e23x_rcu.o(.text.rcu_periph_clock_enable)
    rcu_periph_reset_disable                 0x08003db5   Thumb Code    36  gd32e23x_rcu.o(.text.rcu_periph_reset_disable)
    rcu_periph_reset_enable                  0x08003dd9   Thumb Code    36  gd32e23x_rcu.o(.text.rcu_periph_reset_enable)
    set_adc_convert_value                    0x08003e01   Thumb Code    16  mid_adc.o(.text.set_adc_convert_value)
    set_key_bit_value                        0x08003e15   Thumb Code    16  mid_timer.o(.text.set_key_bit_value)
    set_key_timer_value                      0x08003e29   Thumb Code    16  mid_timer.o(.text.set_key_timer_value)
    set_osc_stop_bit                         0x08003e3d   Thumb Code    16  osc_task.o(.text.set_osc_stop_bit)
    set_pwm_duty                             0x08003e51   Thumb Code    32  mid_pwm.o(.text.set_pwm_duty)
    set_pwm_period                           0x08003e75   Thumb Code    28  mid_pwm.o(.text.set_pwm_period)
    set_pwm_state                            0x08003e95   Thumb Code    64  mid_pwm.o(.text.set_pwm_state)
    set_step_value                           0x08003edd   Thumb Code    16  osc_task.o(.text.set_step_value)
    set_tft_bit_value                        0x08003ef1   Thumb Code    16  mid_timer.o(.text.set_tft_bit_value)
    set_tft_timer_value                      0x08003f05   Thumb Code    16  mid_timer.o(.text.set_tft_timer_value)
    spi_enable                               0x08003f19   Thumb Code    18  gd32e23x_spi.o(.text.spi_enable)
    spi_i2s_data_transmit                    0x08003f2d   Thumb Code    76  gd32e23x_spi.o(.text.spi_i2s_data_transmit)
    spi_i2s_deinit                           0x08003f79   Thumb Code    68  gd32e23x_spi.o(.text.spi_i2s_deinit)
    spi_i2s_flag_get                         0x08003fc1   Thumb Code   124  gd32e23x_spi.o(.text.spi_i2s_flag_get)
    spi_init                                 0x08004041   Thumb Code   304  gd32e23x_spi.o(.text.spi_init)
    spi_struct_para_init                     0x08004179   Thumb Code    42  gd32e23x_spi.o(.text.spi_struct_para_init)
    syscfg_exti_line_config                  0x080041a5   Thumb Code   164  gd32e23x_syscfg.o(.text.syscfg_exti_line_config)
    systick_clksource_set                    0x08004345   Thumb Code    40  gd32e23x_misc.o(.text.systick_clksource_set)
    systick_config                           0x08004371   Thumb Code    44  systick.o(.text.systick_config)
    timer_auto_reload_shadow_enable          0x080043b1   Thumb Code    18  gd32e23x_timer.o(.text.timer_auto_reload_shadow_enable)
    timer_autoreload_value_config            0x080043c3   Thumb Code    18  gd32e23x_timer.o(.text.timer_autoreload_value_config)
    timer_channel_capture_value_register_read 0x080043d5   Thumb Code    88  gd32e23x_timer.o(.text.timer_channel_capture_value_register_read)
    timer_channel_input_capture_prescaler_config 0x0800442d   Thumb Code   158  gd32e23x_timer.o(.text.timer_channel_input_capture_prescaler_config)
    timer_channel_input_struct_para_init     0x080044cb   Thumb Code    28  gd32e23x_timer.o(.text.timer_channel_input_struct_para_init)
    timer_channel_output_config              0x080044e9   Thumb Code   740  gd32e23x_timer.o(.text.timer_channel_output_config)
    timer_channel_output_mode_config         0x080047dd   Thumb Code   158  gd32e23x_timer.o(.text.timer_channel_output_mode_config)
    timer_channel_output_pulse_value_config  0x0800487d   Thumb Code    82  gd32e23x_timer.o(.text.timer_channel_output_pulse_value_config)
    timer_channel_output_shadow_config       0x080048d1   Thumb Code   158  gd32e23x_timer.o(.text.timer_channel_output_shadow_config)
    timer_channel_output_struct_para_init    0x0800496f   Thumb Code    34  gd32e23x_timer.o(.text.timer_channel_output_struct_para_init)
    timer_deinit                             0x08004991   Thumb Code   200  gd32e23x_timer.o(.text.timer_deinit)
    timer_disable                            0x08004a79   Thumb Code    18  gd32e23x_timer.o(.text.timer_disable)
    timer_enable                             0x08004a8b   Thumb Code    18  gd32e23x_timer.o(.text.timer_enable)
    timer_init                               0x08004a9d   Thumb Code   228  gd32e23x_timer.o(.text.timer_init)
    timer_input_capture_config               0x08004b99   Thumb Code   446  gd32e23x_timer.o(.text.timer_input_capture_config)
    timer_interrupt_enable                   0x08004d57   Thumb Code    20  gd32e23x_timer.o(.text.timer_interrupt_enable)
    timer_interrupt_flag_clear               0x08004d6b   Thumb Code    18  gd32e23x_timer.o(.text.timer_interrupt_flag_clear)
    timer_interrupt_flag_get                 0x08004d7d   Thumb Code    58  gd32e23x_timer.o(.text.timer_interrupt_flag_get)
    timer_prescaler_config                   0x08004db7   Thumb Code    48  gd32e23x_timer.o(.text.timer_prescaler_config)
    timer_primary_output_config              0x08004de7   Thumb Code    48  gd32e23x_timer.o(.text.timer_primary_output_config)
    timer_struct_para_init                   0x08004e19   Thumb Code    36  gd32e23x_timer.o(.text.timer_struct_para_init)
    __0sprintf                               0x08004e41   Thumb Code    36  printfa.o(i.__0sprintf)
    __1sprintf                               0x08004e41   Thumb Code     0  printfa.o(i.__0sprintf)
    __2sprintf                               0x08004e41   Thumb Code     0  printfa.o(i.__0sprintf)
    __c89sprintf                             0x08004e41   Thumb Code     0  printfa.o(i.__0sprintf)
    sprintf                                  0x08004e41   Thumb Code     0  printfa.o(i.__0sprintf)
    __ARM_clz                                0x08004e69   Thumb Code    46  depilogue.o(i.__ARM_clz)
    __scatterload_copy                       0x08004e97   Thumb Code    14  handlers.o(i.__scatterload_copy)
    __scatterload_null                       0x08004ea5   Thumb Code     2  handlers.o(i.__scatterload_null)
    __scatterload_zeroinit                   0x08004ea7   Thumb Code    14  handlers.o(i.__scatterload_zeroinit)
    ascii_1608                               0x0800576a   Data        1520  mid_lcd.o(.rodata.ascii_1608)
    ascii_2412                               0x08005d5a   Data        4560  mid_lcd.o(.rodata.ascii_2412)
    tfont12                                  0x08006fa6   Data         378  mid_lcd.o(.rodata.tfont12)
    tfont16                                  0x08007120   Data         315  mid_lcd.o(.rodata.tfont16)
    tfont24                                  0x0800725b   Data         375  mid_lcd.o(.rodata.tfont24)
    Region$$Table$$Base                      0x080073d4   Number         0  anon$$obj.o(Region$$Table)
    Region$$Table$$Limit                     0x080073f4   Number         0  anon$$obj.o(Region$$Table)
    SystemCoreClock                          0x20000000   Data           4  system_gd32e23x.o(.data.SystemCoreClock)
    __initial_sp                             0x200017d8   Data           0  startup_gd32e23x.o(STACK)



==============================================================================

Memory Map of the image

  Image Entry point : 0x080000cd

  Load Region LR_IROM1 (Base: 0x08000000, Size: 0x00007408, Max: 0x00010000, ABSOLUTE)

    Execution Region ER_IROM1 (Exec base: 0x08000000, Load base: 0x08000000, Size: 0x000073f4, Max: 0x00010000, ABSOLUTE)

    Exec Addr    Load Addr    Size         Type   Attr      Idx    E Section Name        Object

    0x08000000   0x08000000   0x000000cc   Data   RO         1169    RESET               startup_gd32e23x.o
    0x080000cc   0x080000cc   0x00000000   Code   RO         1448  * .ARM.Collect$$$$00000000  mc_p.l(entry.o)
    0x080000cc   0x080000cc   0x00000004   Code   RO         1501    .ARM.Collect$$$$00000001  mc_p.l(entry2.o)
    0x080000d0   0x080000d0   0x00000004   Code   RO         1504    .ARM.Collect$$$$00000004  mc_p.l(entry5.o)
    0x080000d4   0x080000d4   0x00000000   Code   RO         1506    .ARM.Collect$$$$00000008  mc_p.l(entry7b.o)
    0x080000d4   0x080000d4   0x00000000   Code   RO         1508    .ARM.Collect$$$$0000000A  mc_p.l(entry8b.o)
    0x080000d4   0x080000d4   0x00000008   Code   RO         1509    .ARM.Collect$$$$0000000B  mc_p.l(entry9a.o)
    0x080000dc   0x080000dc   0x00000000   Code   RO         1511    .ARM.Collect$$$$0000000D  mc_p.l(entry10a.o)
    0x080000dc   0x080000dc   0x00000000   Code   RO         1513    .ARM.Collect$$$$0000000F  mc_p.l(entry11a.o)
    0x080000dc   0x080000dc   0x00000004   Code   RO         1502    .ARM.Collect$$$$00002712  mc_p.l(entry2.o)
    0x080000e0   0x080000e0   0x0000001c   Code   RO         1170    .text               startup_gd32e23x.o
    0x080000fc   0x080000fc   0x00000024   Code   RO         1451    .text               mc_p.l(memseta.o)
    0x08000120   0x08000120   0x000000b2   Code   RO         1481    .text               mf_p.l(fadd.o)
    0x080001d2   0x080001d2   0x0000007a   Code   RO         1483    .text               mf_p.l(fmul.o)
    0x0800024c   0x0800024c   0x0000007c   Code   RO         1485    .text               mf_p.l(fdiv.o)
    0x080002c8   0x080002c8   0x0000001c   Code   RO         1487    .text               mf_p.l(fcmple.o)
    0x080002e4   0x080002e4   0x0000001c   Code   RO         1489    .text               mf_p.l(fcmpge.o)
    0x08000300   0x08000300   0x00000016   Code   RO         1491    .text               mf_p.l(fflti.o)
    0x08000316   0x08000316   0x0000000e   Code   RO         1493    .text               mf_p.l(ffltui.o)
    0x08000324   0x08000324   0x00000032   Code   RO         1495    .text               mf_p.l(ffixi.o)
    0x08000356   0x08000356   0x00000028   Code   RO         1497    .text               mf_p.l(ffixui.o)
    0x0800037e   0x0800037e   0x00000028   Code   RO         1499    .text               mf_p.l(f2d.o)
    0x080003a6   0x080003a6   0x00000060   Code   RO         1524    .text               mc_p.l(uldiv.o)
    0x08000406   0x08000406   0x00000000   Code   RO         1526    .text               mc_p.l(iusefp.o)
    0x08000406   0x08000406   0x00000082   Code   RO         1527    .text               mf_p.l(fepilogue.o)
    0x08000488   0x08000488   0x00000164   Code   RO         1529    .text               mf_p.l(dadd.o)
    0x080005ec   0x080005ec   0x000000d0   Code   RO         1531    .text               mf_p.l(dmul.o)
    0x080006bc   0x080006bc   0x000000f0   Code   RO         1533    .text               mf_p.l(ddiv.o)
    0x080007ac   0x080007ac   0x00000040   Code   RO         1535    .text               mf_p.l(dfixul.o)
    0x080007ec   0x080007ec   0x00000028   Code   RO         1537    .text               mf_p.l(cdrcmple.o)
    0x08000814   0x08000814   0x00000024   Code   RO         1539    .text               mc_p.l(init.o)
    0x08000838   0x08000838   0x0000003e   Code   RO         1544    .text               mc_p.l(uidiv_div0.o)
    0x08000876   0x08000876   0x00000020   Code   RO         1550    .text               mc_p.l(llshl.o)
    0x08000896   0x08000896   0x00000022   Code   RO         1552    .text               mc_p.l(llushr.o)
    0x080008b8   0x080008b8   0x00000026   Code   RO         1554    .text               mc_p.l(llsshr.o)
    0x080008de   0x080008de   0x000000be   Code   RO         1557    .text               mf_p.l(depilogue.o)
    0x0800099c   0x0800099c   0x00000034   Code   RO         1399    .text.DMA_Channel0_IRQHandler  mid_adc.o
    0x080009d0   0x080009d0   0x0000001c   Code   RO           21    .text.EXTI4_15_IRQHandler  main.o
    0x080009ec   0x080009ec   0x000000a4   Code   RO         1393    .text.Get_ADC_Average  mid_adc.o
    0x08000a90   0x08000a90   0x0000002e   Code   RO         1395    .text.Get_ADC_Val   mid_adc.o
    0x08000abe   0x08000abe   0x00000004   Code   RO            4    .text.HardFault_Handler  gd32e23x_it.o
    0x08000ac2   0x08000ac2   0x00000002   Code   RO            2    .text.NMI_Handler   gd32e23x_it.o
    0x08000ac4   0x08000ac4   0x00000002   Code   RO            8    .text.PendSV_Handler  gd32e23x_it.o
    0x08000ac6   0x08000ac6   0x00000002   PAD
    0x08000ac8   0x08000ac8   0x00000014   Code   RO         1413    .text.Register_oscShowData  osc_task.o
    0x08000adc   0x08000adc   0x00000002   Code   RO            6    .text.SVC_Handler   gd32e23x_it.o
    0x08000ade   0x08000ade   0x00000018   Code   RO         1397    .text.Set_ADC_Channel  mid_adc.o
    0x08000af6   0x08000af6   0x00000002   Code   RO           10    .text.SysTick_Handler  gd32e23x_it.o
    0x08000af8   0x08000af8   0x000000fc   Code   RO         1177    .text.SystemInit    system_gd32e23x.o
    0x08000bf4   0x08000bf4   0x00000052   Code   RO         1262    .text.TFT_Address_Set  hw_lcdinit.o
    0x08000c46   0x08000c46   0x00000138   Code   RO         1367    .text.TFT_DrawLine  mid_lcd.o
    0x08000d7e   0x08000d7e   0x0000002c   Code   RO         1365    .text.TFT_DrawPoint  mid_lcd.o
    0x08000daa   0x08000daa   0x00000090   Code   RO         1363    .text.TFT_Fill      mid_lcd.o
    0x08000e3a   0x08000e3a   0x00000002   PAD
    0x08000e3c   0x08000e3c   0x0000022c   Code   RO         1264    .text.TFT_Init      hw_lcdinit.o
    0x08001068   0x08001068   0x000001c0   Code   RO         1369    .text.TFT_ShowChar  mid_lcd.o
    0x08001228   0x08001228   0x000000e2   Code   RO         1373    .text.TFT_ShowChinese  mid_lcd.o
    0x0800130a   0x0800130a   0x00000002   PAD
    0x0800130c   0x0800130c   0x000001ec   Code   RO         1375    .text.TFT_ShowChinese12x12  mid_lcd.o
    0x080014f8   0x080014f8   0x000001ec   Code   RO         1377    .text.TFT_ShowChinese16x16  mid_lcd.o
    0x080016e4   0x080016e4   0x000001ec   Code   RO         1379    .text.TFT_ShowChinese24x24  mid_lcd.o
    0x080018d0   0x080018d0   0x00000078   Code   RO         1371    .text.TFT_ShowString  mid_lcd.o
    0x08001948   0x08001948   0x00000264   Code   RO         1429    .text.TFT_ShowUI    osc_task.o
    0x08001bac   0x08001bac   0x000002e0   Code   RO         1425    .text.TFT_StaticUI  osc_task.o
    0x08001e8c   0x08001e8c   0x00000064   Code   RO         1258    .text.TFT_WR_DATA   hw_lcdinit.o
    0x08001ef0   0x08001ef0   0x0000003c   Code   RO         1256    .text.TFT_WR_DATA8  hw_lcdinit.o
    0x08001f2c   0x08001f2c   0x00000060   Code   RO         1260    .text.TFT_WR_REG    hw_lcdinit.o
    0x08001f8c   0x08001f8c   0x00000070   Code   RO         1305    .text.TIMER15_IRQHandler  mid_timer.o
    0x08001ffc   0x08001ffc   0x000000c4   Code   RO         1319    .text.TIMER2_IRQHandler  mid_timer.o
    0x080020c0   0x080020c0   0x00000034   Code   RO          507    .text.__NVIC_EnableIRQ  gd32e23x_misc.o
    0x080020f4   0x080020f4   0x00000084   Code   RO          505    .text.__NVIC_SetPriority  gd32e23x_misc.o
    0x08002178   0x08002178   0x00000038   Code   RO           59    .text.adc_calibration_enable  gd32e23x_adc.o
    0x080021b0   0x080021b0   0x00000068   Code   RO           75    .text.adc_channel_length_config  gd32e23x_adc.o
    0x08002218   0x08002218   0x0000002c   Code   RO           73    .text.adc_data_alignment_config  gd32e23x_adc.o
    0x08002244   0x08002244   0x00000010   Code   RO           61    .text.adc_dma_mode_enable  gd32e23x_adc.o
    0x08002254   0x08002254   0x00000018   Code   RO           55    .text.adc_enable    gd32e23x_adc.o
    0x0800226c   0x0800226c   0x0000007c   Code   RO           83    .text.adc_external_trigger_config  gd32e23x_adc.o
    0x080022e8   0x080022e8   0x00000050   Code   RO           85    .text.adc_external_trigger_source_config  gd32e23x_adc.o
    0x08002338   0x08002338   0x0000002c   Code   RO           93    .text.adc_flag_get  gd32e23x_adc.o
    0x08002364   0x08002364   0x0000015c   Code   RO           77    .text.adc_regular_channel_config  gd32e23x_adc.o
    0x080024c0   0x080024c0   0x0000000c   Code   RO           89    .text.adc_regular_data_read  gd32e23x_adc.o
    0x080024cc   0x080024cc   0x00000040   Code   RO           87    .text.adc_software_trigger_enable  gd32e23x_adc.o
    0x0800250c   0x0800250c   0x000000b0   Code   RO           71    .text.adc_special_function_config  gd32e23x_adc.o
    0x080025bc   0x080025bc   0x00000014   Code   RO           65    .text.adc_tempsensor_vrefint_enable  gd32e23x_adc.o
    0x080025d0   0x080025d0   0x00000018   Code   RO         1415    .text.clear_adc_value  osc_task.o
    0x080025e8   0x080025e8   0x00000080   Code   RO           40    .text.delay_1ms     systick.o
    0x08002668   0x08002668   0x0000001c   Code   RO          211    .text.dma_channel_disable  gd32e23x_dma.o
    0x08002684   0x08002684   0x0000001c   Code   RO          221    .text.dma_channel_enable  gd32e23x_dma.o
    0x080026a0   0x080026a0   0x0000001c   Code   RO          213    .text.dma_circulation_enable  gd32e23x_dma.o
    0x080026bc   0x080026bc   0x00000058   Code   RO          205    .text.dma_deinit    gd32e23x_dma.o
    0x08002714   0x08002714   0x00000118   Code   RO          209    .text.dma_init      gd32e23x_dma.o
    0x0800282c   0x0800282c   0x00000020   Code   RO          255    .text.dma_interrupt_enable  gd32e23x_dma.o
    0x0800284c   0x0800284c   0x00000024   Code   RO          253    .text.dma_interrupt_flag_clear  gd32e23x_dma.o
    0x08002870   0x08002870   0x000000c4   Code   RO          251    .text.dma_interrupt_flag_get  gd32e23x_dma.o
    0x08002934   0x08002934   0x000000bc   Code   RO         1244    .text.ec11_exti_callback  hw_ec11.o
    0x080029f0   0x080029f0   0x0000002a   Code   RO         1242    .text.ec11_init     hw_ec11.o
    0x08002a1a   0x08002a1a   0x00000002   PAD
    0x08002a1c   0x08002a1c   0x000000e0   Code   RO          268    .text.exti_init     gd32e23x_exti.o
    0x08002afc   0x08002afc   0x00000010   Code   RO          288    .text.exti_interrupt_flag_clear  gd32e23x_exti.o
    0x08002b0c   0x08002b0c   0x0000002c   Code   RO          286    .text.exti_interrupt_flag_get  gd32e23x_exti.o
    0x08002b38   0x08002b38   0x0000000c   Code   RO         1401    .text.get_adc_convert_value  mid_adc.o
    0x08002b44   0x08002b44   0x0000000c   Code   RO         1321    .text.get_freq_value  mid_timer.o
    0x08002b50   0x08002b50   0x0000000c   Code   RO         1307    .text.get_key_timer_value  mid_timer.o
    0x08002b5c   0x08002b5c   0x0000000c   Code   RO         1423    .text.get_osc_stop_bit  osc_task.o
    0x08002b68   0x08002b68   0x0000000c   Code   RO         1341    .text.get_pwm_duty  mid_pwm.o
    0x08002b74   0x08002b74   0x00000020   Code   RO         1351    .text.get_pwm_out_freq  mid_pwm.o
    0x08002b94   0x08002b94   0x0000000c   Code   RO         1345    .text.get_pwm_period  mid_pwm.o
    0x08002ba0   0x08002ba0   0x0000000c   Code   RO         1349    .text.get_pwm_state  mid_pwm.o
    0x08002bac   0x08002bac   0x0000000c   Code   RO         1419    .text.get_step_value  osc_task.o
    0x08002bb8   0x08002bb8   0x0000000c   Code   RO         1313    .text.get_tft_timer_value  mid_timer.o
    0x08002bc4   0x08002bc4   0x000000c0   Code   RO          411    .text.gpio_af_set   gd32e23x_gpio.o
    0x08002c84   0x08002c84   0x00000024   Code   RO          399    .text.gpio_bit_write  gd32e23x_gpio.o
    0x08002ca8   0x08002ca8   0x0000002a   Code   RO          403    .text.gpio_input_bit_get  gd32e23x_gpio.o
    0x08002cd2   0x08002cd2   0x0000008e   Code   RO          391    .text.gpio_mode_set  gd32e23x_gpio.o
    0x08002d60   0x08002d60   0x0000008a   Code   RO          393    .text.gpio_output_options_set  gd32e23x_gpio.o
    0x08002dea   0x08002dea   0x00000030   Code   RO         1224    .text.key_init      hw_key.o
    0x08002e1a   0x08002e1a   0x000000d6   Code   RO         1226    .text.key_scanf     hw_key.o
    0x08002ef0   0x08002ef0   0x000001e0   Code   RO         1427    .text.key_scanf_handle  osc_task.o
    0x080030d0   0x080030d0   0x00000026   Code   RO         1200    .text.led_init      hw_led.o
    0x080030f6   0x080030f6   0x00000002   PAD
    0x080030f8   0x080030f8   0x0000031c   Code   RO           19    .text.main          main.o
    0x08003414   0x08003414   0x0000006c   Code   RO         1296    .text.mx_adc_dma_init  hw_adc.o
    0x08003480   0x08003480   0x00000098   Code   RO         1294    .text.mx_adc_init   hw_adc.o
    0x08003518   0x08003518   0x00000184   Code   RO         1216    .text.mx_gpio_init  hw_gpio.o
    0x0800369c   0x0800369c   0x00000088   Code   RO         1273    .text.mx_spi0_init  hw_spi.o
    0x08003724   0x08003724   0x000000d8   Code   RO         1285    .text.mx_tim14_init  hw_tim.o
    0x080037fc   0x080037fc   0x00000070   Code   RO         1281    .text.mx_tim15_init  hw_tim.o
    0x0800386c   0x0800386c   0x000000bc   Code   RO         1283    .text.mx_tim2_init  hw_tim.o
    0x08003928   0x08003928   0x0000002c   Code   RO          503    .text.nvic_irq_enable  gd32e23x_misc.o
    0x08003954   0x08003954   0x00000024   Code   RO          517    .text.nvic_vector_table_set  gd32e23x_misc.o
    0x08003978   0x08003978   0x0000028c   Code   RO         1431    .text.osc_waveShow  osc_task.o
    0x08003c04   0x08003c04   0x0000018c   Code   RO          593    .text.rcu_adc_clock_config  gd32e23x_rcu.o
    0x08003d90   0x08003d90   0x00000024   Code   RO          567    .text.rcu_periph_clock_enable  gd32e23x_rcu.o
    0x08003db4   0x08003db4   0x00000024   Code   RO          577    .text.rcu_periph_reset_disable  gd32e23x_rcu.o
    0x08003dd8   0x08003dd8   0x00000028   Code   RO          575    .text.rcu_periph_reset_enable  gd32e23x_rcu.o
    0x08003e00   0x08003e00   0x00000014   Code   RO         1403    .text.set_adc_convert_value  mid_adc.o
    0x08003e14   0x08003e14   0x00000014   Code   RO         1311    .text.set_key_bit_value  mid_timer.o
    0x08003e28   0x08003e28   0x00000014   Code   RO         1309    .text.set_key_timer_value  mid_timer.o
    0x08003e3c   0x08003e3c   0x00000014   Code   RO         1421    .text.set_osc_stop_bit  osc_task.o
    0x08003e50   0x08003e50   0x00000024   Code   RO         1339    .text.set_pwm_duty  mid_pwm.o
    0x08003e74   0x08003e74   0x00000020   Code   RO         1343    .text.set_pwm_period  mid_pwm.o
    0x08003e94   0x08003e94   0x00000048   Code   RO         1347    .text.set_pwm_state  mid_pwm.o
    0x08003edc   0x08003edc   0x00000014   Code   RO         1417    .text.set_step_value  osc_task.o
    0x08003ef0   0x08003ef0   0x00000014   Code   RO         1317    .text.set_tft_bit_value  mid_timer.o
    0x08003f04   0x08003f04   0x00000014   Code   RO         1315    .text.set_tft_timer_value  mid_timer.o
    0x08003f18   0x08003f18   0x00000012   Code   RO          727    .text.spi_enable    gd32e23x_spi.o
    0x08003f2a   0x08003f2a   0x00000002   PAD
    0x08003f2c   0x08003f2c   0x0000004c   Code   RO          761    .text.spi_i2s_data_transmit  gd32e23x_spi.o
    0x08003f78   0x08003f78   0x00000048   Code   RO          721    .text.spi_i2s_deinit  gd32e23x_spi.o
    0x08003fc0   0x08003fc0   0x00000080   Code   RO          803    .text.spi_i2s_flag_get  gd32e23x_spi.o
    0x08004040   0x08004040   0x00000138   Code   RO          725    .text.spi_init      gd32e23x_spi.o
    0x08004178   0x08004178   0x0000002a   Code   RO          723    .text.spi_struct_para_init  gd32e23x_spi.o
    0x080041a2   0x080041a2   0x00000002   PAD
    0x080041a4   0x080041a4   0x000000b4   Code   RO          828    .text.syscfg_exti_line_config  gd32e23x_syscfg.o
    0x08004258   0x08004258   0x000000e4   Code   RO         1183    .text.system_clock_72m_hxtal  system_gd32e23x.o
    0x0800433c   0x0800433c   0x00000008   Code   RO         1179    .text.system_clock_config  system_gd32e23x.o
    0x08004344   0x08004344   0x0000002c   Code   RO          523    .text.systick_clksource_set  gd32e23x_misc.o
    0x08004370   0x08004370   0x00000040   Code   RO           34    .text.systick_config  systick.o
    0x080043b0   0x080043b0   0x00000012   Code   RO          855    .text.timer_auto_reload_shadow_enable  gd32e23x_timer.o
    0x080043c2   0x080043c2   0x00000012   Code   RO          873    .text.timer_autoreload_value_config  gd32e23x_timer.o
    0x080043d4   0x080043d4   0x00000058   Code   RO          955    .text.timer_channel_capture_value_register_read  gd32e23x_timer.o
    0x0800442c   0x0800442c   0x0000009e   Code   RO          953    .text.timer_channel_input_capture_prescaler_config  gd32e23x_timer.o
    0x080044ca   0x080044ca   0x0000001c   Code   RO          949    .text.timer_channel_input_struct_para_init  gd32e23x_timer.o
    0x080044e6   0x080044e6   0x00000002   PAD
    0x080044e8   0x080044e8   0x000002f4   Code   RO          929    .text.timer_channel_output_config  gd32e23x_timer.o
    0x080047dc   0x080047dc   0x0000009e   Code   RO          931    .text.timer_channel_output_mode_config  gd32e23x_timer.o
    0x0800487a   0x0800487a   0x00000002   PAD
    0x0800487c   0x0800487c   0x00000052   Code   RO          933    .text.timer_channel_output_pulse_value_config  gd32e23x_timer.o
    0x080048ce   0x080048ce   0x00000002   PAD
    0x080048d0   0x080048d0   0x0000009e   Code   RO          935    .text.timer_channel_output_shadow_config  gd32e23x_timer.o
    0x0800496e   0x0800496e   0x00000022   Code   RO          927    .text.timer_channel_output_struct_para_init  gd32e23x_timer.o
    0x08004990   0x08004990   0x000000e8   Code   RO          845    .text.timer_deinit  gd32e23x_timer.o
    0x08004a78   0x08004a78   0x00000012   Code   RO          853    .text.timer_disable  gd32e23x_timer.o
    0x08004a8a   0x08004a8a   0x00000012   Code   RO          851    .text.timer_enable  gd32e23x_timer.o
    0x08004a9c   0x08004a9c   0x000000fc   Code   RO          849    .text.timer_init    gd32e23x_timer.o
    0x08004b98   0x08004b98   0x000001be   Code   RO          951    .text.timer_input_capture_config  gd32e23x_timer.o
    0x08004d56   0x08004d56   0x00000014   Code   RO          887    .text.timer_interrupt_enable  gd32e23x_timer.o
    0x08004d6a   0x08004d6a   0x00000012   Code   RO          893    .text.timer_interrupt_flag_clear  gd32e23x_timer.o
    0x08004d7c   0x08004d7c   0x0000003a   Code   RO          891    .text.timer_interrupt_flag_get  gd32e23x_timer.o
    0x08004db6   0x08004db6   0x00000030   Code   RO          869    .text.timer_prescaler_config  gd32e23x_timer.o
    0x08004de6   0x08004de6   0x00000030   Code   RO          921    .text.timer_primary_output_config  gd32e23x_timer.o
    0x08004e16   0x08004e16   0x00000002   PAD
    0x08004e18   0x08004e18   0x00000028   Code   RO          847    .text.timer_struct_para_init  gd32e23x_timer.o
    0x08004e40   0x08004e40   0x00000028   Code   RO         1456    i.__0sprintf        mc_p.l(printfa.o)
    0x08004e68   0x08004e68   0x0000002e   Code   RO         1559    i.__ARM_clz         mf_p.l(depilogue.o)
    0x08004e96   0x08004e96   0x0000000e   Code   RO         1563    i.__scatterload_copy  mc_p.l(handlers.o)
    0x08004ea4   0x08004ea4   0x00000002   Code   RO         1564    i.__scatterload_null  mc_p.l(handlers.o)
    0x08004ea6   0x08004ea6   0x0000000e   Code   RO         1565    i.__scatterload_zeroinit  mc_p.l(handlers.o)
    0x08004eb4   0x08004eb4   0x00000174   Code   RO         1461    i._fp_digits        mc_p.l(printfa.o)
    0x08005028   0x08005028   0x000006ec   Code   RO         1462    i._printf_core      mc_p.l(printfa.o)
    0x08005714   0x08005714   0x00000020   Code   RO         1463    i._printf_post_padding  mc_p.l(printfa.o)
    0x08005734   0x08005734   0x0000002c   Code   RO         1464    i._printf_pre_padding  mc_p.l(printfa.o)
    0x08005760   0x08005760   0x0000000a   Code   RO         1466    i._sputc            mc_p.l(printfa.o)
    0x0800576a   0x0800576a   0x000005f0   Data   RO         1381    .rodata.ascii_1608  mid_lcd.o
    0x08005d5a   0x08005d5a   0x000011d0   Data   RO         1382    .rodata.ascii_2412  mid_lcd.o
    0x08006f2a   0x08006f2a   0x0000007c   Data   RO         1436    .rodata.str1.1      osc_task.o
    0x08006fa6   0x08006fa6   0x0000017a   Data   RO         1383    .rodata.tfont12     mid_lcd.o
    0x08007120   0x08007120   0x0000013b   Data   RO         1384    .rodata.tfont16     mid_lcd.o
    0x0800725b   0x0800725b   0x00000177   Data   RO         1385    .rodata.tfont24     mid_lcd.o
    0x080073d2   0x080073d2   0x00000002   PAD
    0x080073d4   0x080073d4   0x00000020   Data   RO         1562    Region$$Table       anon$$obj.o


    Execution Region RW_IRAM1 (Exec base: 0x20000000, Load base: 0x080073f8, Size: 0x000017d8, Max: 0x00002000, ABSOLUTE)

    Exec Addr    Load Addr    Size         Type   Attr      Idx    E Section Name        Object

    0x20000000   0x080073f8   0x00000004   Data   RW         1185    .data.SystemCoreClock  system_gd32e23x.o
    0x20000004   0x080073fc   0x00000001   Data   RW         1405    .data.adc_convert_bit  mid_adc.o
    0x20000005   0x080073fd   0x00000001   Data   RW         1323    .data.key_timer_bit  mid_timer.o
    0x20000006   0x080073fe   0x00000001   Data   RW         1435    .data.osc_stop_bit  osc_task.o
    0x20000007   0x080073ff   0x00000001   PAD
    0x20000008   0x08007400   0x00000002   Data   RW         1353    .data.pwm_duty      mid_pwm.o
    0x2000000a   0x08007402   0x00000002   Data   RW         1354    .data.pwm_period    mid_pwm.o
    0x2000000c   0x08007404   0x00000001   Data   RW         1355    .data.pwm_state     mid_pwm.o
    0x2000000d   0x08007405   0x00000001   Data   RW         1434    .data.step_value    osc_task.o
    0x2000000e   0x08007406   0x00000001   Data   RW         1325    .data.tft_timer_bit  mid_timer.o
    0x2000000f   0x08007407   0x00000001   PAD
    0x20000010        -       0x000007d0   Zero   RW         1433    .bss.adc_value      osc_task.o
    0x200007e0        -       0x000007d0   Zero   RW         1439    .bss.adc_value2     osc_task.o
    0x20000fb0        -       0x00000002   Zero   RW         1327    .bss.ccnumber       mid_timer.o
    0x20000fb2   0x08007407   0x00000002   PAD
    0x20000fb4        -       0x00000004   Zero   RW         1330    .bss.count          mid_timer.o
    0x20000fb8        -       0x00000004   Zero   RW           45    .bss.count_1ms      systick.o
    0x20000fbc        -       0x00000004   Zero   RW           44    .bss.count_1us      systick.o
    0x20000fc0        -       0x00000001   Zero   RW         1247    .bss.ec11_exti_callback.b_value  hw_ec11.o
    0x20000fc1        -       0x00000001   Zero   RW         1246    .bss.ec11_exti_callback.cnt  hw_ec11.o
    0x20000fc2   0x08007407   0x00000002   PAD
    0x20000fc4        -       0x00000014   Zero   RW           25    .bss.ec11_handle    main.o
    0x20000fd8        -       0x00000004   Zero   RW         1331    .bss.freq           mid_timer.o
    0x20000fdc        -       0x00000040   Zero   RW           24    .bss.key_handle     main.o
    0x2000101c        -       0x00000002   Zero   RW         1324    .bss.key_timer_value  mid_timer.o
    0x2000101e   0x08007407   0x00000002   PAD
    0x20001020        -       0x00000018   Zero   RW           23    .bss.led_hanlde     main.o
    0x20001038        -       0x00000004   Zero   RW         1437    .bss.maxVol         osc_task.o
    0x2000103c        -       0x00000004   Zero   RW         1438    .bss.minVol         osc_task.o
    0x20001040        -       0x000000c8   Zero   RW         1440    .bss.newWave        osc_task.o
    0x20001108        -       0x000000c8   Zero   RW         1441    .bss.oldWave        osc_task.o
    0x200011d0        -       0x00000002   Zero   RW         1328    .bss.readvalue1     mid_timer.o
    0x200011d2        -       0x00000002   Zero   RW         1329    .bss.readvalue2     mid_timer.o
    0x200011d4        -       0x00000002   Zero   RW         1326    .bss.tft_timer_value  mid_timer.o
    0x200011d6   0x08007407   0x00000002   PAD
    0x200011d8        -       0x00000600   Zero   RW         1167    STACK               startup_gd32e23x.o


==============================================================================

Image component sizes


      Code (inc. data)   RO Data    RW Data    ZI Data      Debug   Object Name

      1112         48          0          0          0       7614   gd32e23x_adc.o
       716         24          0          0          0       5493   gd32e23x_dma.o
       284         20          0          0          0       3067   gd32e23x_exti.o
       550          0          0          0          0       4208   gd32e23x_gpio.o
        12          0          0          0          0        675   gd32e23x_it.o
       308         24          0          0          0       3869   gd32e23x_misc.o
       508         16          0          0          0      11233   gd32e23x_rcu.o
       648         16          0          0          0       9039   gd32e23x_spi.o
       180         16          0          0          0       2721   gd32e23x_syscfg.o
      2696         76          0          0          0      16863   gd32e23x_timer.o
       260          8          0          0          0       2829   hw_adc.o
       230          8          0          0          2       1895   hw_ec11.o
       388         16          0          0          0       2497   hw_gpio.o
       262          0          0          0          0       2378   hw_key.o
       894         12          0          0          0       1589   hw_lcdinit.o
        38          0          0          0          0       1759   hw_led.o
       136          8          0          0          0       1382   hw_spi.o
       516         36          0          0          0       2944   hw_tim.o
       824         32          0          0        108       2704   main.o
       318         16          0          1          0       1892   mid_adc.o
      2770         20       7148          0          0       6208   mid_lcd.o
       208         32          0          5          0       1480   mid_pwm.o
       424         84          0          2         18       2055   mid_timer.o
      2588        176        124          2       4408       4105   osc_task.o
        28          8        204          0       1536        688   startup_gd32e23x.o
       488         56          0          4          0       1894   system_gd32e23x.o
       192         36          0          0          8       1723   systick.o

    ----------------------------------------------------------------------
     17600        788       7510         16       6088     104804   Object Totals
         0          0         32          0          0          0   (incl. Generated)
        22          0          2          2          8          0   (incl. Padding)

    ----------------------------------------------------------------------

      Code (inc. data)   RO Data    RW Data    ZI Data      Debug   Library Member Name

         0          0          0          0          0          0   entry.o
         0          0          0          0          0          0   entry10a.o
         0          0          0          0          0          0   entry11a.o
         8          4          0          0          0          0   entry2.o
         4          0          0          0          0          0   entry5.o
         0          0          0          0          0          0   entry7b.o
         0          0          0          0          0          0   entry8b.o
         8          4          0          0          0          0   entry9a.o
        30          0          0          0          0          0   handlers.o
        36          8          0          0          0         68   init.o
         0          0          0          0          0          0   iusefp.o
        32          0          0          0          0         68   llshl.o
        38          0          0          0          0         68   llsshr.o
        34          0          0          0          0         68   llushr.o
        36          0          0          0          0        100   memseta.o
      2270         94          0          0          0        472   printfa.o
        62          0          0          0          0         72   uidiv_div0.o
        96          0          0          0          0         84   uldiv.o
        40          2          0          0          0         68   cdrcmple.o
       356          4          0          0          0        140   dadd.o
       240          6          0          0          0         84   ddiv.o
       236          0          0          0          0        216   depilogue.o
        64         10          0          0          0         68   dfixul.o
       208          6          0          0          0         88   dmul.o
        40          0          0          0          0         60   f2d.o
       178          0          0          0          0        108   fadd.o
        28          0          0          0          0         60   fcmpge.o
        28          0          0          0          0         60   fcmple.o
       124          0          0          0          0         72   fdiv.o
       130          0          0          0          0        144   fepilogue.o
        50          0          0          0          0         60   ffixi.o
        40          0          0          0          0         60   ffixui.o
        22          0          0          0          0         68   fflti.o
        14          0          0          0          0         68   ffltui.o
       122          0          0          0          0         72   fmul.o

    ----------------------------------------------------------------------
      4574        138          0          0          0       2496   Library Totals
         0          0          0          0          0          0   (incl. Padding)

    ----------------------------------------------------------------------

      Code (inc. data)   RO Data    RW Data    ZI Data      Debug   Library Name

      2654        110          0          0          0       1000   mc_p.l
      1920         28          0          0          0       1496   mf_p.l

    ----------------------------------------------------------------------
      4574        138          0          0          0       2496   Library Totals

    ----------------------------------------------------------------------

==============================================================================


      Code (inc. data)   RO Data    RW Data    ZI Data      Debug   

     22174        926       7510         16       6088     105712   Grand Totals
     22174        926       7510         16       6088     105712   ELF Image Totals
     22174        926       7510         16          0          0   ROM Totals

==============================================================================

    Total RO  Size (Code + RO Data)                29684 (  28.99kB)
    Total RW  Size (RW Data + ZI Data)              6104 (   5.96kB)
    Total ROM Size (Code + RO Data + RW Data)      29700 (  29.00kB)

==============================================================================

