:020000040800F2
:10000000D8170020E1000008C30A0008BF0A000852
:1000100000000000000000000000000000000000E0
:10002000000000000000000000000000DD0A0008E1
:100030000000000000000000C50A0008F70A0008E0
:10004000F3000008F3000008F3000008F3000008C4
:10005000F3000008F3000008F3000008D1090008CD
:10006000000000009D090008F3000008F3000008EC
:10007000F3000008F3000008F3000008000000008F
:10008000FD1F0008F300000800000000F300000856
:10009000F30000088D1F0008F3000008F3000008BB
:1000A000F3000008F3000008F3000008F300000864
:1000B000F300000800000000000000000000000045
:1000C000F300000800000000F30000080348854624
:1000D00000F0A0FB00480047F9300008D8170020C6
:1000E0000448804704480047FEE7FEE7FEE7FEE7D6
:1000F000FEE7FEE7F90A0008CD000008D2B201E0F1
:100100000270401C491EFBD270470022F6E710B572
:1001100013460A4604461946FFF7F0FF204610BD75
:10012000F8B502464A40D40F42004B0052085B0823
:100130009A4202D20246084611464A0023D0C30D15
:100140004A00DDB2120EAD1A202D35DA4902012621
:10015000490AF6058A19002C00D0524220214F1B73
:100160001146B9402A411018C20D9A4221D0002CE4
:1001700017D0012D08DCDA05801AD20F8019D207BA
:10018000DBB200F048F9F8BDDA05801A012340001F
:100190001B06C01880185A428018CA0F1043490025
:1001A00007E04908C2071143DA05801A80194008A0
:1001B000801800F028F9F8BD61000122511A001BD7
:1001C000F7E70122D2075140AAE70122D2075040A7
:1001D000A6E7024670B54A40D30FDB0740002DD09A
:1001E0004A002AD0010E140E000212020919400A18
:1001F000520A8418E50104465443000A120A2E04E8
:100200005043A4194219200CC543AA18120C012509
:10021000AD03521C521912047F39240400D0521C21
:10022000104301D44000491EC2B20C06C009201878
:10023000401C4008802A02D003E0002070BD400826
:100240004000002900DA0020184370BD70B5024656
:100250004A40D50F40004A00ED07400852080028E8
:1002600014D0002A12D0C40DD30D41020120C005C4
:100270005202490A520AE41A091812187D349142AE
:1002800001D3641C00E04900002C01DA002070BD9D
:100290000023914201D3891A0343400849000028F2
:1002A000F7D100290AD0914202D10121C90705E006
:1002B000914201D2012101E00121C943E005C018AA
:1002C000401900F0A0F870BD0122D207002800DB21
:1002D000101A002900DB511A814201D80120704711
:1002E000002070470122D207002800DB101A0029E5
:1002F00000DB511A814201D3012070470020704772
:10030000C217C10F504010B54018CA0796230021EC
:1003100000F081F810BD10B500229623114600F0C0
:100320007AF810BDC20F410040020123400ADB05EC
:10033000D207090EC0187F2901DA002070479629DC
:1003400003DC9623591AC84001E096398840002AF8
:10035000F4D040427047410040020122400AD205D9
:10036000090E80187F2901DA00207047962903DCE6
:100370009622511AC8407047963988407047C20F7C
:10038000D207400040080BD0C10D0723DB01C9187C
:1003900040020905400A1143C20840071143704753
:1003A000002001467047F0B51FB40646002082B019
:1003B00005464024019100901BE0019922460F461A
:1003C000304600F068FA049A059B801A994110D3D0
:1003D00010461946224600F04EFA361A8F41019710
:1003E000224601200021009F00F045FA38184D41B7
:1003F00000902046641E0028DFDC019B00982946FF
:10040000324607B0F0BD002904DA401C490001D192
:1004100040084000704770B40024050C05D110243A
:10042000000402D1002921D01124050E01D10002BF
:100430000834050F01D10001241D850F01D1800072
:10044000A41C002801DB4000641C002908D02025E2
:100450002E1B0D46F540A14000D001212943084341
:1004600001061B1B000ADB1D02D5002070BC704773
:10047000DB05181880180029F8DA401C4900F5D16E
:1004800070BC400840007047F0B507460846584029
:1004900087B0C00F049048000E4659004008490834
:1004A000BC1A884105D2384631461E4617460B46CF
:1004B00002465800400810434CD0300D03904005D0
:1004C0005900400D490D0590401A0290402872DAFB
:1004D00018030121000B09050843019004980092BC
:1004E000002805D0019952420020884100920190D5
:1004F000029840210A1A0199009800F0BCF90546BB
:100500000C466B4607CB00F0D7F9C0197141039A2E
:100510000E0D0023D71756401A467A40164344D092
:10052000049A002A2DD0029A012A039A15DC12059A
:10053000C01A914101263605001C7141D20F059E5B
:10054000D2070093019202962A46234600F0D4F97E
:1005500007B0F0BD38463146FAE71605224A0F4685
:10056000B218C01AB74101210905001C4F410018FB
:100570007F41114618187941E20F10436D1964410B
:1005800013E0E2076D0815436408C2071443039A99
:1005900001261205C01A91413605001C7141CE0793
:1005A000400830434908C01851412A46234600F00C
:1005B00096F9CDE7FFE7049801224000C117121A0F
:1005C00000238B4104983146C417381AA141EEE745
:1005D00030B40124E407634030BC55E730B4012453
:1005E000E407614030BC4FE70000E0FFF0B51FB406
:1005F00088B00B990998002448400999C00F490018
:1006000049080991C0070B990090490049080B91CE
:1006100009990898A64608431CD00B990A980843E4
:1006200018D0099801244000420D4800410D099856
:1006300024050003000B204309900B980003000BD6
:1006400020430B9050181C4940180022019014467A
:10065000104605E0002001460DB0F0BD032801DA88
:10066000034600E003239C46C11A0AAE0AE05F007D
:1006700008ADED5B4F00F75B7D430027AA187C4176
:10068000491C5B1E6145F2DD410004AB5A52210456
:10069000120C0A43240C401C0828DFDB019802904E
:1006A0000099704601910090059B049A079906985D
:1006B00000F022F9D0E700000DFCFFFFF0B50C467A
:1006C0005C4085B0E40FE40703944C000026640806
:1006D00059009446490802460296224321D06246B8
:1006E0000A431ED06200570D4A000E032303550D26
:1006F000012402462C492405781B1B0B360B40189D
:1007000023432643614600901C46501AB44103D34C
:100710000098401C009002E0921800985B4100286D
:1007200003DA0020014605B0F0BD002001210905D3
:100730000746864611E064461D46141BB54106D3A4
:100740006546521BB341744607430C43A646CD078A
:1007500040084908284392185B4105460D43EAD1F9
:100760001046184313D06046194650407140084364
:1007700006D06046101AB34106D20122002306E0DB
:1007800000220123DB0702E00122D243531000982C
:1007900074460105381C6141029C039D00196941A2
:1007A00000F09DF8BFE70000FD0300004A000903C8
:1007B0000123090B1B0519430A4B10B5520D9A4230
:1007C00002DA0020014610BD064B34339A4203DCA6
:1007D0009A1A00F060F810BD034BD21800F04BF8E5
:1007E00010BD0000FF030000CDFBFFFF10B5002986
:1007F00004DB0124E40740428C412146002B04DB4A
:100800001C460123DB075242A341994200D190428A
:1008100010BD0000064C0125064E05E0E36807CC3C
:100820002B430C3C98471034B442F7D3FFF752FCEB
:10083000D4730008F473000870B50446002903D08F
:1008400000202022012310E0002801D00020C04316
:10085000C046C0460DE02546D5408D4205D30D4625
:100860009540641B1D46954040191546521E002DAB
:10087000F1DC214670BD10B5202A04DB0146203A88
:100880009140002010BD914020239C1A0346E34074
:100890001943904010BD10B5202A04DB0846203AC9
:1008A000D040002110BD0B46D340D0402024A21AD6
:1008B00091400843194610BD10B5202A06DBCB171E
:1008C0000846203A1041C1170B4306E00B4613417E
:1008D000D0402024A21A91400843194610BD10B5FB
:1008E000002B08DA0024401C614192185B411A4336
:1008F00001D14008400010BDF0B51FB482B00546DC
:100900000C0003D0084604F0AFFA02E004F0ACFAA1
:1009100020300246009021462846FFF7ACFF049B9A
:10092000059A04460F4618431143084314D018464D
:1009300010431BD0009840210A1A18460599FFF76A
:10094000AAFF05460E46009A05990498FFF793FF03
:10095000084305D0012004E02046394607B0F0BD29
:100960000020C11705430E432C43374300990E98CE
:100970006305401A7905E40A00220C43FD0A0A3097
:1009800002D500200146E9E70105101969410C9CD8
:100990000D9D00196941FFF7A2FFDFE780B582B026
:1009A0000020022101F064FF68B1FFE70749012040
:1009B000019008700020009001F056FE0098019907
:1009C00001F044FFFFE702B080BDC04604000020F4
:1009D00080B5102002F09AF820B1FFE7024801F03C
:1009E000A9FFFFE780BDC046C40F002080B586B0D8
:1009F00005A9088004A90020088003AA108002909D
:100A000001AA10806B46214A1A800880FFE704A8DB
:100A1000008805A90988884224DAFFE700F038F841
:100A200003A90880684600880988884204DDFFE73A
:100A3000039869460880FFE701A8008803A9098890
:100A4000884204DAFFE7039801A90880FFE70298CB
:100A500003A9098840180290FFE70498401C04A9E4
:100A60000880D4E7029801A90988401A69460988D4
:100A7000401A0290029805A90988891EB0FBF1F07E
:100A8000029002A8008806B080BDC0460F27000073
:100A900080B582B001A900200880012001F016FD78
:100AA000FFE7022001F048FC08B9FFE7F9E701F091
:100AB00007FD014601A80180008802B080BDFFE764
:100AC000FEE770477047000080B5034840F2E83108
:100AD00002F0A0FC80BDC04610000020704780B529
:100AE00082B0014601A8017001780020022201F0C5
:100AF00039FC02B080BD704780B584B034490868C5
:100B0000012210430860FFE7314800688007002891
:100B100001D4FFE7F8E7FFE72E4908688022104379
:100B2000086000200390FFE703987F2805D8FFE7BF
:100B3000FFE70398401C0390F6E7264908689022D7
:100B40001043086000200390FFE703987F2805D832
:100B5000FFE7FFE70398401C0390F6E7FFE71D4916
:100B60000868032290430860194A10681A4B18401D
:100B700010600868194A104008600868184A104058
:100B80000860184908680F229043086016490868F1
:100B900040F2031290430860086801220192130496
:100BA000984308600868D307984308600F490868AD
:100BB000904308600E4900200290086003F0BEFBDD
:100BC00001980299C00602F0C5FE04B080BDC0467F
:100BD0000010024004100240FFFFF2FE0C00FF086C
:100BE000FFFFC2772C100240301002403410024048
:100BF0000810024010B588B007AC0094208006A809
:100C00000290018005A80190028004A8039003804F
:100C10002A2001F08BF90098008801F037F901983B
:100C2000008801F033F92B2001F080F90298008848
:100C300001F02CF90398008801F028F92C2001F02C
:100C400075F908B010BDB0B590B01D460B46149CA8
:100C50000FA908800EA803800DAB1A800CAA15807E
:100C60000BAD2C800AAD002400942C8009940894CC
:100C700007940694059404940394029401941B88A9
:100C80000C881B1B079312880388D21A06920988C6
:100C90000291008801900798012803DBFFE70120FB
:100CA00004900DE0079818B9FFE70020049006E0D3
:100CB0000020C0430490079840420790FFE7FFE7F9
:100CC0000698012803DBFFE7012003900DE006985A
:100CD00018B9FFE70020039006E00020C04303900E
:100CE000069840420690FFE7FFE70798069988427A
:100CF00003DDFFE70798059002E006980590FFE7FF
:100D00000AA900200880FFE70AA800880599491C65
:100D1000884232DAFFE702A8008801A909880BAAF5
:100D2000128800F02CF80799099840180990069944
:100D300008984018089009980599884209DDFFE74E
:100D400005990998401A0990049902984018029050
:100D5000FFE708980599884209DDFFE7059908989B
:100D6000401A08900399019840180190FFE7FFE7A7
:100D70000A98401C0AA90880C6E710B0B0BD80B52B
:100D800084B00B4603A9088002A8038001AB00933E
:100D90001A800A88038810461946FFF72BFF00982F
:100DA000008801F073F804B080BDB0B588B0144677
:100DB0000D4601460C9A07A8018006A90D8005ADD5
:100DC0002C8004AC238003AB1A8002AB009300227A
:100DD0001A8001AB1A8000880988059A521E049B6C
:100DE0005B1E92B29BB2FFF705FF00990698088040
:100DF000FFE702A8008804A9098888421BDAFFE7F8
:100E0000079801A90880FFE701A8008805A90988BB
:100E100088420ADAFFE703A8008801F037F8FFE705
:100E20000198401C01A90880EEE7FFE70298401CEA
:100E300002A90880DDE708B0B0BD000080B596B01B
:100E400088480290202101910022109201F01AFF9F
:100E50006420039001F0C8FB0199029801221192CD
:100E600001F010FF039801F0BFFB0298119A40F2C5
:100E7000001101F007FF039801F0B6FB112001F00B
:100E800055F8782001F0B0FBB12001F04FF80520B3
:100E9000159001F02DF83C20049001F029F80498F9
:100EA00001F026F8B22001F041F8159801F020F881
:100EB000049801F01DF8049801F01AF8B32001F02D
:100EC00035F8159801F014F8049801F011F8049819
:100ED00001F00EF8159801F00BF8049801F008F8ED
:100EE000049801F005F8B42001F020F803200A90DE
:100EF00000F0FEFFC020059001F018F828200890AF
:100F000000F0F6FF082000F0F3FF0420129000F03C
:100F1000EFFFC12001F00AF8059800F0E9FFC220B8
:100F200001F004F80D200B9000F0E2FF109800F0A3
:100F3000DFFFC32000F0FAFF8D20069000F0D8FFFD
:100F40002A20079000F0D4FFC42000F0EFFF06989D
:100F500000F0CEFFEE2000F0CBFFC52000F0E6FF52
:100F60001A2000F0C5FF362000F0E0FF702000F0EE
:100F7000BFFFE02000F0DAFF129800F0B9FF222056
:100F800000F0B6FF072000F0B3FF0A2000F0B0FF2A
:100F90002E20099000F0ACFF302000F0A9FF2520A2
:100FA0000E9000F0A5FF079800F0A2FF089800F04F
:100FB0009FFF26200C9000F09BFF099800F098FFFF
:100FC0003A20149000F094FF109800F091FF1198CF
:100FD00000F08EFF0A9800F08BFF1320139000F0B2
:100FE00087FFE12000F0A2FF129800F081FF162099
:100FF00000F07EFF062000F07BFF0B9800F078FFEA
:101000002D200F9000F074FF0C9800F071FF23204A
:1010100000F06EFF27200D9000F06AFF0D9800F0A1
:1010200067FF0E9800F064FF0F9800F061FF3B200F
:1010300000F05EFF109800F05BFF119800F058FF81
:10104000129800F055FF139800F052FF149800F02A
:101050006DFF159800F04CFF292000F067FF16B0D7
:1010600080BDC04600040048F0B597B014460D4658
:1010700006461E991D9A1C9816AF01973E8015AE24
:101080000296358014AD03952C7013AC238012ABFF
:10109000188011A80490027010AA11700CAA0021E7
:1010A00005911170169909AA1180007841080EA8BF
:1010B000069001700178C80807904907401C089005
:1010C00009B907980890049B069A02990198039D14
:1010D000089E1C7874430AAE3480149C203C2C700B
:1010E0000088098812788218521E1B78CB185B1E64
:1010F00092B29BB2FFF77EFD05980BA90880FFE72F
:101100000BA800880AA90988884200DB86E011A89C
:10111000007810280BD1FFE714A80078010141489E
:1011200040180BA90988405C0FA9087012E011A8AB
:10113000007818280CD1FFE714A80078302141432B
:10114000374840180BA90988405C0FA9087000E0D7
:1011500064E0FFE70DA900200870FFE70DA8007804
:10116000072855DCFFE710A8007820BBFFE70FA891
:1011700000780DA90978C840C00728B1FFE713A877
:10118000008800F083FE04E012A8008800F07EFED4
:10119000FFE70C98411C0CA8017000780EA9097893
:1011A000B0FBF1F25143401A20B9FFE70CA900202F
:1011B00008702DE026E00FA800780DA90978C84036
:1011C000C00748B1FFE716A8008815A9098813AA27
:1011D0001288FFF7D4FDFFE71698411C16A801807E
:1011E000008809A90988401A0EA90978884208D1FF
:1011F000FFE7099816A908801598401C15A90880D2
:1012000006E0FFE7FFE70D98401C0DA90870A5E771
:10121000FFE70B98401C0BA9088071E717B0F0BDE1
:101220005A5D00086A570008F0B58BB014460D46A9
:10123000064612981199109A0AAF3E8009AE358081
:10124000089407AC238006AB1A8005AA117004A984
:101250000870FFE708980078002854D0FFE705A839
:1012600000780C2813D1FFE70AA8008809A909888B
:10127000089A07AB1B8806AC248805AD2D7804AE10
:10128000367802960195009400F040F831E005A808
:101290000078102813D1FFE70AA8008809A9098857
:1012A000089A07AB1B8806AC248805AD2D7804AEE0
:1012B000367802960195009400F01EF918E005A812
:1012C0000078182813D1FFE70AA8008809A909881F
:1012D000089A07AB1B8806AC248805AD2D7804AEB0
:1012E000367802960195009400F0FCF9FFE7FFE7DD
:1012F000FFE70898801C089005A801780A98401814
:101300000AA90880A6E70BB0F0BD0000F0B595B0C3
:1013100014460D4606461C991B9A1A9814AF3E8037
:1013200013AE3580129411AC238010AB18800FA837
:1013300002700EAA11700DAA0021009111700CAA62
:1013400011700BAA11700AAA0192118009AA0292C7
:10135000118008AA03921180149907AA11800178BC
:101360000491C80805904907401C069009B90598E2
:10137000069000980199029B039C049A069D6A437B
:1013800022800E221A800880FFE70AA8008809A997
:101390000988884200DBAAE00AA800881B21414393
:1013A0005448405C12990978884200D099E00AA814
:1013B00000881B2141434F484018407812994978D2
:1013C000884200D08DE014A8008813A909880FAACC
:1013D0001378C218521ECB185B1E92B29BB2FFF755
:1013E00009FC0DA900200870FFE70DA8007808A9E6
:1013F0000988884274DAFFE70CA900200870FFE72B
:101400000CA80078072865DCFFE70EA8007860BB11
:10141000FFE70AA800881B214143364840180DA960
:1014200009784018C0780CA90978C840C00728B1CD
:10143000FFE711A8008800F029FD04E010A800884B
:1014400000F024FDFFE70B98411C0BA80170007809
:101450000FA90978B0FBF1F25143401A20B9FFE718
:101460000BA90020087035E02EE00AA800881B2197
:101470004143204840180DA909784018C0780CA9AC
:101480000978C840C00748B1FFE714A8008813A92D
:10149000098811AA1288FFF772FCFFE71498411C13
:1014A00014A80180008807A90988401A0FA90978A3
:1014B000884208D1FFE7079814A908801398401CB8
:1014C00013A9088006E0FFE7FFE70C98401C0CA971
:1014D000087095E7FFE70D98401C0DA9087084E798
:1014E000FFE7FFE70A98401C0AA908804DE715B0FE
:1014F000F0BDC046A66F0008F0B595B014460D4685
:1015000006461C991B9A1A9814AF3E8013AE35807C
:10151000129411AC238010AB18800FA802700EAA91
:1015200011700DAA0021009111700CAA11700BAA64
:1015300011700AAA0192118009AA0292118008AAC8
:1015400003921180149907AA118001780491C808A8
:1015500005904907401C069009B905980690009827
:101560000199029B039C049A069D6A4322800922EA
:101570001A800880FFE70AA8008809A9098888421C
:1015800000DBAAE00AA80088232141435448405CBC
:1015900012990978884200D099E00AA8008823218E
:1015A00041434F484018407812994978884200D00A
:1015B0008DE014A8008813A909880FAA1378C2180F
:1015C000521ECB185B1E92B29BB2FFF713FB0DA904
:1015D00000200870FFE70DA8007808A90988884254
:1015E00074DAFFE70CA900200870FFE70CA8007868
:1015F000072865DCFFE70EA8007860BBFFE70AA8B4
:10160000008823214143364840180DA90978401825
:10161000C0780CA90978C840C00728B1FFE711A815
:10162000008800F033FC04E010A8008800F02EFCD5
:10163000FFE70B98411C0BA8017000780FA90978EF
:10164000B0FBF1F25143401A20B9FFE70BA900208B
:10165000087035E02EE00AA8008823214143204885
:1016600040180DA909784018C0780CA90978C8401D
:10167000C00748B1FFE714A8008813A9098811AA78
:101680001288FFF77CFBFFE71498411C14A8018027
:10169000008807A90988401A0FA90978884208D14B
:1016A000FFE7079814A908801398401C13A9088025
:1016B00006E0FFE7FFE70C98401C0CA9087095E7CF
:1016C000FFE70D98401C0DA9087084E7FFE7FFE7CE
:1016D0000A98401C0AA908804DE715B0F0BDC04625
:1016E00020710008F0B595B014460D4606461C99C9
:1016F0001B9A1A9814AF3E8013AE3580129411AC29
:10170000238010AB18800FA802700EAA11700DAACA
:101710000021009111700CAA11700BAA11700AAA75
:101720000192118009AA0292118008AA03921180E5
:10173000149907AA118001780491C80805904907F7
:10174000401C069009B90598069000980199029BE3
:10175000039C049A069D6A43228005221A80088011
:10176000FFE70AA8008809A90988884200DBAAE0E7
:101770000AA800884B2141435448405C12990978DB
:10178000884200D099E00AA800884B2141434F4885
:101790004018407812994978884200D08DE014A80A
:1017A000008813A909880FAA1378C218521ECB18F3
:1017B0005B1E92B29BB2FFF71DFA0DA900200870C4
:1017C000FFE70DA8007808A90988884274DAFFE7C6
:1017D0000CA900200870FFE70CA80078072865DC3A
:1017E000FFE70EA8007860BBFFE70AA800884B213E
:1017F0004143364840180DA909784018C0780CA913
:101800000978C840C00728B1FFE711A8008800F098
:101810003DFB04E010A8008800F038FBFFE70B98C0
:10182000411C0BA8017000780FA90978B0FBF1F2F8
:101830005143401A20B9FFE70BA90020087035E09A
:101840002EE00AA800884B214143204840180DA9EA
:1018500009784018C0780CA90978C840C00748B179
:10186000FFE714A8008813A9098811AA1288FFF7B6
:1018700086FAFFE71498411C14A80180008807A984
:101880000988401A0FA90978884208D1FFE707980C
:1018900014A908801398401C13A9088006E0FFE7EC
:1018A000FFE70C98401C0CA9087095E7FFE70D981E
:1018B000401C0DA9087084E7FFE7FFE70A98401C69
:1018C0000AA908804DE715B0F0BDC0465B7200085C
:1018D000F0B58DB014460D46064614981399129A29
:1018E0000CAF3E800BAE35800A9409AC238008AB68
:1018F0001A8007AA117006A90870FFE70A980078F5
:1019000000B3FFE70CA8059000880BA909880A9A84
:10191000127809AB1B8808AC248807AD04952D7894
:1019200006AE3678029601950094FFF79DFB049869
:101930000599007842080C98801808800A98401C85
:101940000A90DBE70DB0F0BD80B59AB000200F9093
:10195000199018A90870179016901590149013906C
:101960001290119010908448006884490968FEF72D
:1019700028FC01460846FEF7D3FBFEF700FD0246B1
:101980000B467F4910A80E9003F05AFA0E9A0F9B4F
:1019900002931020019040F2E070009005206A212F
:1019A000FFF796FF0F9817901690159014901390CC
:1019B00012901190109001F0C5F819901998C00874
:1019C0007D2826D3FFE71998FEF7A5FC6E49FEF7A0
:1019D0003DFCFEF7D4FC02460B466C4910A80C9067
:1019E00003F02EFA0C9A00230D930293102001901D
:1019F00040F2E070009037206A21FFF769FF0D98F0
:101A000017901690159014901390129011901090BA
:101A10001CE0199A5B4910A80A9003F011FA0A9A7F
:101A200000230B9302931020019040F2E07000908D
:101A300037206A21FFF74CFF0B98179016901590EE
:101A400014901390129011901090FFE701F0A8F8F5
:101A5000014618A80170007801280CD1FFE7002387
:101A60000293102001904A4800904B4A762024218E
:101A7000FFF7DAFB0BE00023029310200190FA48F5
:101A80000090444A76202421FFF7CEFBFFE701F0C7
:101A900071F840F2E831884221DBFFE701F06AF893
:101AA00040F2E831B0FBF1F23D4910A8089003F094
:101AB000C7F9089A00230993029310200190EA487D
:101AC00000906E204821FFF703FF099817901690A9
:101AD0001590149013901290119010901DE001F049
:101AE00049F802462D4910A8069003F0A9F9069A74
:101AF00000230793029310200190DB4800906E2092
:101B00004821FFF7E5FE079817901690159014905E
:101B10001390129011901090FFE701F025F8FEF756
:101B2000EFFB039001F036F8FEF7EAFB014603985D
:101B3000FEF78CFB1B49FEF74CFBFEF7F3FB02465E
:101B4000194910A8049003F07BF9049A0023059327
:101B5000029310200190C44800906E206A21FFF784
:101B6000B7FE059817901690159014901390129048
:101B7000119010901AB080BD381000203C10002049
:101B8000386F0008406F000800007A44566F000864
:101B9000E0FF0000966F0008666F00085F6F0008A6
:101BA0004F6F00080000C842476F000870B59EB034
:101BB0001DA813900024149404801C941B941A9460
:101BC00019941894179416941594029410200B905D
:101BD000019040F2E0700090A14A0A20214623467D
:101BE000FFF722FB9F4915A80D9003F029F90D9AE4
:101BF0000B98029401909C480C9000906E200E90DF
:101C000021462346FFF764FE0E981C941B941A94F9
:101C10001994189417941694159402940C250F9502
:101C20000195924910910091914A1421914B129380
:101C3000FFF7FAFA0D9890490A9103F001F90B9B0E
:101C40000C990D9A0E980294019300912421234639
:101C5000FFF73EFE0E981099129B1C941B941A9449
:101C60001994189417941694159402940195009160
:101C7000824A3821FFF7D8FA0A990D9803F0E0F864
:101C80000B9B0C990D9A0E98029401930091482198
:101C90002346FFF71DFE0A990D981C941B941A9475
:101CA0001994189417941694159403F0C9F80D9A82
:101CB0001099129B0E980294019500915C2111914C
:101CC000FFF706FE0F9A10981199129B1C941B9413
:101CD0001A941994189417941694159402940192D6
:101CE0000090674A7620FFF79FFA0A990D9803F053
:101CF000A7F80B9B0C990D9A0E98029401930091F2
:101D00006A212346FFF7E4FD0F9A10981199129B60
:101D10001C941B941A94199418941794169415945F
:101D2000029401920090574A0520FFF77DFA0F9A1E
:101D300010981199129B029401920090524A3720F8
:101D4000FFF772FA139914980880FFE71DA800881E
:101D500080280CDCFFE71DA801886A20424AFFF7B3
:101D60000EF8FFE71D98801C1DA90880EEE71DA94D
:101D700000200880FFE71DA8008863280DDCFFE72E
:101D80001DA80088512140F2E072FEF7F8FFFFE73E
:101D90001D98401C1DA90880EDE71DA91E20088084
:101DA000FFE71DA8008850280DDCFFE71DA801886B
:101DB000002040F2E072FEF7E2FFFFE71D98401CB2
:101DC0001DA90880EDE71DA900200880FFE71DA8D8
:101DD000008809281CDCFFE71D990A20079048436A
:101DE000801C80B25221089140F2E0720992FEF705
:101DF000C6FF07980899099A1D9B5843C01C80B2DA
:101E0000FEF7BDFFFFE71D98401C1DA90880DEE717
:101E10001DA900200880FFE71DA8008809281CDCF8
:101E2000FFE71D990A2004904843801C80B253218B
:101E3000059140F2E0720692FEF7A1FF0498059921
:101E4000069A1D9B5843C01C80B2FEF798FFFFE71F
:101E50001D98401C1DA90880DEE71EB070BDC0465D
:101E60009B6F0008316F0008E0FF00000F78000052
:101E70006B6F0008FFFF00002A6F00088D6F0008DD
:101E80007D6F0008746F0008846F000880B582B011
:101E9000014601A80180694600220A804078087046
:101EA000019848703748802100F0ECFEFFE7364883
:101EB000022102F085F808B9FFE7F8E768460178E3
:101EC000314802F033F8FFE72F48022102F078F89A
:101ED00008B9FFE7F8E7684641782B4802F026F892
:101EE00028488021012200F0CDFE02B080BDC0460E
:101EF00080B582B001A9087022488021002200F03C
:101F0000C1FEFFE72048022102F05AF808B9FFE7B6
:101F1000F8E701A801781C4802F008F81948802168
:101F2000012200F0AFFE02B080BDC04680B586B091
:101F300005A908701348039040210022049200F084
:101F4000A1FE0398049A802100F09CFEFFE70E4852
:101F5000022102F035F808B9FFE7F8E705A8017893
:101F6000094801F0E3FF0748019040210122029255
:101F700000F088FE0198029A802100F083FE06B0EE
:101F800080BDC046000400480030014080B51548BF
:101F9000007802280ED1FFE713480188491C018010
:101FA00000881249884204DBFFE70F4900200880BF
:101FB000FFE7FFE70E48007802280ED1FFE70D4843
:101FC0000188491C018000880849884204DBFFE73A
:101FD000084900200880FFE7FFE70748012102F0D9
:101FE000C4FE80BD050000201C100020102700004A
:101FF0000E000020D41100200044014080B5284884
:10200000022102F0BBFE012848D1FFE725480088E5
:1020100050B9FFE72248002102F0DCF9234908808B
:1020200020490120088034E01E48008801282FD173
:10203000FFE71B48002102F0CDF901461A48018054
:1020400000881A490988884208DDFFE71648008899
:1020500016490988401A1749086009E013480188A1
:1020600011480088401A1249401812490860FFE7D9
:1020700010490A681048B0FBF2F0104A10600B4A91
:1020800000201080084A1080064A10800860FFE790
:10209000FFE70348022102F068FEFFE780BDC0466B
:1020A00000040040B00F0020D2110020D011002009
:1020B000FFFF0000B40F002040420F00D80F0020A7
:1020C00081B00146684601700021405600280DD4B9
:1020D000FFE70021684641561F200A4602400120C2
:1020E000904049098900024A8850FFE701B07047D3
:1020F00000E100E070B582B0024601A802700091D4
:1021000000214056002816D4FFE7002401A90857F3
:102110000322D3431840174A805809578C07E50E0D
:10212000FF24AC40A043009CA401E4B2AC40204397
:10213000194088501AE001A908780F242040083877
:102140000322D34318400A4A8058002549578D0777
:10215000EE0EFF25B540A843009DAD01EDB2B540A0
:1021600028432140083919408850FFE702B070BD6C
:102170001CED00E000E400E0E34908680822104399
:102180000860FFE7E04800680007002801D5FFE786
:10219000F8E7DD490868042210430860FFE7DA48E1
:1021A00000684007002801D5FFE7F8E77047C04600
:1021B00083B0024602A802700191007800900128C5
:1021C00004D0FFE7009802280FD01DE0B7490A6845
:1021D0000F20000582430A60019A12050D4BD218A8
:1021E00002400868104308600FE009490A680320AC
:1021F000000582430A60019A1205064BD21802407C
:1022000008681043086000E0FFE703B07047C0466D
:10221000382401400000F0FF81B00090009838B1F0
:10222000FFE7EA49086840F600021043086006E04C
:10223000E649086840F6000290430860FFE701B0F5
:102240007047C046E149086840F200121043086038
:102250007047C046DD480068C00730B9FFE7DB497A
:102260000868012210430860FFE7704782B001AAA6
:102270001070684601700078D0B1FFE701A80078BF
:10228000C00738B1FFE7D1490868012212051043A1
:102290000860FFE701A800788007002807D5FFE75E
:1022A000CA49086848F2000210430860FFE719E0D5
:1022B00001A80078C00738B1FFE7C44908680122C7
:1022C000120590430860FFE701A800788007002806
:1022D00007D5FFE7BD49086848F20002904308604F
:1022E000FFE7FFE702B0704783B0024602A8027022
:1022F000019100780090012804D0FFE7009802289F
:102300000BD015E0B14908680722520490430860D9
:10231000019A0868104308600BE0AC49086847F26E
:10232000000290430860019A08681043086000E0CA
:10233000FFE703B07047C04682B0019069460020B5
:102340000870074800680199084204D0FFE7694611
:1023500001200870FFE76846007802B07047C04669
:102360000024014010B585B0034604A8037003ABF8
:10237000197002920078052818D8FFE74D490868BF
:10238000019004AB1C780520024662431F24944050
:10239000019AA243019203AA12781B785843824003
:1023A0000198104301900198086040E004A800786B
:1023B0000B281AD8FFE73E490868019004AB1C7847
:1023C0000520024662431E3A1F249440019AA2430C
:1023D000019203AA12781B7858431E388240019854
:1023E000104301900198086020E004A800780F28AD
:1023F0001AD8FFE72D490868019004AB1C78052026
:10240000024662433C3A1F249440019AA24301923F
:1024100003AA12781B7858433C3882400198104335
:1024200001900198086000E0FFE7FFE7FFE703A8DD
:102430000078092817D8FFE720490868009003AB07
:102440001C7803200246624307249440009AA2436A
:102450000092029A1B7858438240009810430090E3
:10246000009808601FE003A80078122819D8FFE739
:1024700011490868009003AB1C78032002466243B0
:102480001E3A07249440009AA2430092029A1B78B5
:1024900058431E388240009810430090009808600E
:1024A00000E0FFE7FFE705B010BDC0462C24014067
:1024B00030240140342401400C2401401024014008
:1024C0000148006880B270474C24014081B0014649
:1024D000684601700078C00738B1FFE73B490868DB
:1024E0000122920510430860FFE7684600788007E4
:1024F000002807D5FFE73549086801225205104337
:102500000860FFE701B070470824014082B00190E5
:1025100068460170007830B3FFE701A84078C00733
:1025200038B1FFE72449086840F200121043086000
:10253000FFE701A840784007002807D5FFE71E49BC
:10254000086840F2004210430860FFE701A80078E5
:102550008007002806D5FFE71C49086802221043BF
:102560000860FFE725E001A84078C00738B1FFE721
:102570001149086840F2001290430860FFE701A883
:1025800040784007002807D5FFE70B49086840F26C
:10259000004290430860FFE701A800788007002808
:1025A00006D5FFE709490868022290430860FFE763
:1025B000FFE702B07047C0460424014003490868A1
:1025C0000122D205104308607047C046082401402C
:1025D00080B5022001F014FC024840F2E831FDF71A
:1025E00094FD80BD1000002080B584B00390039856
:1025F000FDF791FE18490968FDF7EBFDFDF7ABFE0D
:102600001649086016490020086016490120086034
:10261000FFE7144800680290FFE7002002A909784C
:10262000C907019041B1FFE702A880780121084065
:10263000414248410190FFE70198C0070028E8D1D6
:10264000FFE7084908680122904308600449002018
:10265000086004B080BDC046B80F002014E000E060
:1026600018E000E010E000E081B00146684601702B
:10267000007814214143AE4A88580123984388507A
:1026800001B0704781B0014668460170007814219E
:102690004143A74A885801231843885001B0704726
:1026A00081B0014668460170007814214143A04A78
:1026B000885820231843885001B07047B0B581B0C6
:1026C0000146684601700178142213464B43984C2A
:1026D00019590125A9431951017813464B4300218B
:1026E00019510478134663434F4C1951047813462B
:1026F00063434B4C195103785A434A4BD1500078ED
:1027000080000F228240594908681043086001B0D8
:10271000B0BDC046B0B584B0024603A800900270B8
:1027200002910078FFF7A0FF009B029800681C78D8
:1027300014210A4662433A4C1051029880681C7872
:102740000A466243374C10510298008A1C780A46A8
:102750006243354C10511A7808465043744A8058E9
:102760000190019843F60074A043019002984468D8
:10277000C5682C43406904430198204301900198A7
:102780001B78594388500298007E01280AD1FFE740
:1027900003A8007814214143654A88584023184310
:1027A000885009E003A8007814214143604A885802
:1027B000402398438850FFE70298407E01280AD1C1
:1027C000FFE703A8007814214143594A8858802321
:1027D0001843885009E003A8007814214143544A63
:1027E0008858802398438850FFE70298807E50B92C
:1027F000FFE703A80078142141434D4A885810236D
:102800009843885009E003A8007814214143484ABE
:102810008858102318438850FFE704B0B0BDC04665
:1028200010000240140002400C00024082B0024638
:1028300001A802700091009B0078142141433C4A9A
:1028400088581843885002B07047C04682B002468C
:1028500001A802700091009A00788000824003492C
:1028600008681043086002B07047C0460400024088
:1028700086B004AA10700391002002900190039882
:102880000090022808D0FFE70098042816D0FFE740
:102890000098082824D035E024480168039A04A849
:1028A00003789B009A40114001910178142048431D
:1028B0001F49405802210840029024E01B4801684B
:1028C000039A04A803789B009A4011400191017873
:1028D000142048431649405804210840029012E051
:1028E00012480168039A04A803789B009A4011409B
:1028F00001910178142048430D49405808210840AF
:10290000029000E0FFE7019838B1FFE7029820B19C
:10291000FFE705A90120087003E005A90020087061
:10292000FFE705A8007806B07047C04600000240E7
:102930000800024080B582B001900199086849689A
:1029400000F0B2F9C0B9FFE727480078A0B9FFE767
:1029500025490878401C0870244900200870019916
:102960008868C96800F0A0F9012804D1FFE71F4971
:1029700001200870FFE732E001990868496800F01B
:1029800093F901282AD1FFE717480078012825D1BB
:10299000FFE715490020087001998868C96800F0B0
:1029A00083F948B9FFE711480078012804D1FFE70F
:1029B00001990220087410E001998868C96800F044
:1029C00073F9012808D1FFE70848007820B9FFE72C
:1029D000019901200874FFE7FFE7FFE7FFE71020F8
:1029E00000F08CF802B080BDC10F0020C00F0020A5
:1029F00010B584B0009101460098069C03900292A5
:102A000001930398086002984860019888600698CE
:102A1000C8600320087404B010BD000085B00490A5
:102A200003A8017002A90A70049B304A11689943F7
:102A30001160049B2E4A116899431160049B2D4A32
:102A4000116899431160049B2B4A116899431160E6
:102A50000078019020B1FFE70198012806D00BE033
:102A6000049A224908681043086006E0049A204945
:102A700008681043086000E0FFE702A800780090B3
:102A800003282FD800998A0001A080188746C046E5
:102A900000F006B800F00FB800F018B800F021B848
:102AA000049A1449086810430860049A1249086897
:102AB0009043086017E0049A0E4908689043086044
:102AC000049A0D490868104308600CE0049A09490B
:102AD000086810430860049A0749086810430860B2
:102AE00001E0FFE7FFE705B07047C0460004014082
:102AF00004040140080401400C04014081B000902E
:102B000000980C49086001B07047C04682B0009040
:102B1000084800680099084204D0FFE701A9012095
:102B2000087003E001A900200870FFE701A8007801
:102B300002B0704714040140014800787047C04655
:102B400004000020014800687047C046D80F0020EC
:102B5000014800887047C0461C10002001480078DA
:102B60007047C04606000020014800887047C046F4
:102B70000800002081B068460021018007490A88CA
:102B80000349B1FBF2F10180008801B07047C046F3
:102B900040420F00014800887047C0460A000020EC
:102BA000014800787047C0460C00002001480078BA
:102BB0007047C0460D000020014800887047C0469D
:102BC000D411002086B00590049103920598006A04
:102BD00001900598406A009002A900200880FFE754
:102BE00002A8008807281DD8FFE702A801880398DB
:102BF000C840C00780B1FFE702A8018889000F2202
:102C00008A40019991430191049900888000814094
:102C1000019808430190FFE7FFE70298401C02A9D2
:102C20000880DDE702A908200880FFE702A80088E5
:102C30000F281FD8FFE702A801880398C840C007E3
:102C400090B1FFE702A80188890020390F228A404D
:102C500000999143009104990088800020388140B8
:102C6000009808430090FFE7FFE70298401C02A984
:102C70000880DBE701980599086200980599486289
:102C800006B0704783B002900191684602700078E8
:102C900020B1FFE701980299886103E00198029949
:102CA0008862FFE703B0704783B0019000910198FC
:102CB00000690099084204D0FFE702A901200870CA
:102CC00003E002A900200870FFE702A8007803B023
:102CD000704787B0069005910492039306980068A8
:102CE00001900698C068009002A900200880FFE7C4
:102CF00002A800880F282BD8FFE702A801880398B4
:102D0000C840C007F0B1FFE702A8018849000322CC
:102D100013468B40019999430191059B0188490015
:102D20008B40019919430191018849008A4000991B
:102D30009143009104990088400081400098084325
:102D40000090FFE7FFE70298401C02A90880CFE748
:102D500001980699086000980699C86007B0704706
:102D600010B586B0059004A8017003920293007814
:102D7000012806D1FFE7029A059948681043486088
:102D800005E0029A0599486890434860FFE7059876
:102D90008068009001A900200880FFE701A8008852
:102DA0000F281DD8FFE701A801880298C840C00776
:102DB00080B1FFE701A80188490003228A400099F9
:102DC0009143009103990088400081400098084396
:102DD0000090FFE7FFE70198401C01A90880DDE7AC
:102DE00000980599886006B010BD10B584B00091B8
:102DF000014600980390029201A8037003980860AE
:102E00000298486001984872FF200872002088727A
:102E10000873C872487304B010BD80B582B00190C9
:102E20000199FF200872019908684968FFF73CFF83
:102E30000199497A88420ED1FFE70199887A401CAE
:102E400088720198807A782804DBFFE7019978205E
:102E50008872FFE74AE00198807A642808DBFFE780
:102E60000198407B20B9FFE701993020087210E0FB
:102E70000198807A02280BDBFFE70199087B401C50
:102E8000087301992820C872019901204873FFE74F
:102E9000FFE70199002088720198C07A28B3FFE704
:102EA0000199C87A401EC8720198C07A00281BDCBC
:102EB000FFE70198007B012804D1FFE7019910206A
:102EC000087209E00198007B022804D1FFE701990C
:102ED00020200872FFE7FFE701990020C8720199DE
:102EE000087301994873FFE7FFE7FFE702B080BD71
:102EF00080B58CB002460BA802800AAA117009AAFC
:102F0000002111800891008842F2000188421DD101
:102F1000FFE70AA80078102816D1FFE7FFF740FE68
:102F200002280CD1FFE7FFF735FE00F0A3FFFFF703
:102F30001BFE00F08DFF012000F0ACFF03E002203B
:102F400000F0A8FFFFE700E0FFE7BAE00BA8008869
:102F500044F20001884237D1FFE70AA80078102820
:102F600030D1FFE7FFF700FEFDF7CAF90790FFF742
:102F700011FEFDF7C5F901460798FDF767F90890BE
:102F8000FFF708FE014609A8018001884908018071
:102F900000887C2805DCFFE709A940F2E8300880BA
:102FA000FFE709A80690008800F064FF06980088F3
:102FB000FDF7A6F90899FDF70CF9FDF7B3F900F054
:102FC00047FF00E0FFE77BE00BA8008848F2000124
:102FD000884257D1FFE70AA800780590102804D04E
:102FE000FFE7059820282BD04AE0FFF7D3FDFDF737
:102FF00087F90290FFF7B8FDFDF782F901460298C4
:1030000003913249FDF7E5F80399FDF789F8089037
:1030100008980490FFF7BEFDFDF772F90146049889
:10302000FDF752F930B9FFE7FFF7B4FDFDF773F98B
:103030000890FFE70898FDF775F900F009FF20E018
:10304000FFF792FDFDF75CF90190FFF7A3FDFDF797
:1030500057F91D49FDF7BDF801460198FDF760F8E5
:10306000089008980021FDF73DF918B9FFE7002006
:103070000890FFE70898FDF755F900F0E9FE00E039
:10308000FFE71CE00BA8008840F20021884215D120
:10309000FFE70AA8007810280ED1FFE7FFF75EFDD2
:1030A000022804D1FFE7012000F0C8FE03E002205F
:1030B00000F0C4FEFFE700E0FFE7FFE7FFE7FFE700
:1030C000FFE70CB080BDC0460AD723BD0AD7233D19
:1030D00010B584B00091014600980390029201A8B7
:1030E0000370039888600298486001984870002037
:1030F000087004B010BD000010B5B6B000201490E8
:10310000359034A9088033A9088032A9129108802B
:1031100031A9087030A9087001F02AF900F0FCF913
:1031200000F0BCFA00F0ACF900F0A0FB00F0FAFAF5
:1031300000F064FB149B2DA8AF490B9144F20002F0
:103140000D92FFF7C5FF0B99149BAC4A0C922F9878
:1031500090602E9850602D9810602AA848F20002C6
:103160000E92FFF7B5FF0C99149B2C9848612B9891
:1031700008612A98C86026A8A149109142F200026D
:10318000FFF733FE0D9A1099149B9E4C0F942998CB
:10319000E0602898A060279860602698206022A8A8
:1031A000FFF723FE0E9A1099149B2598E06124984E
:1031B000A06123986061229820611EA8FFF715FE88
:1031C0000F9A1099149B2198D062209890621F98B2
:1031D00050621E9810621AA840F20022FFF705FE06
:1031E0000F99109B1D98C8631C9888631B984863AF
:1031F0001A9808630820009015A81190102219460B
:10320000FFF7F6FB119980480CC90CC01CC91CC003
:103210001120FDF764FCC820FDF7E8FB1299088037
:1032200040F2E8301390FFF7DFF9FDF707FE13983F
:10323000FFF7DAF9FDF702FE14990091A02280232E
:103240000846FDF7B2FDFEF7B1FC0320FDF747FC91
:10325000FFF7BEF9FDF738FC6C4801F016FC6C482E
:1032600001F013FCFFE7FFF773FC34A90A91088013
:10327000FFF7A2FC01460A9833AA118000880A28A9
:1032800014DBFFE75F480990FFF7C7FD099810308E
:10329000FFF7C3FD09982030FFF7BFFD09983030D4
:1032A000FFF7BBFD002000F0BFFDFFE733A800885B
:1032B00040F2F411884222DBFFE70120089000F081
:1032C000A9FD089800F014FEFFF748FC014630A85D
:1032D00001700078022805D1FFE732A8008800F0CD
:1032E0004BFBFFE7FEF730FB002000F00BFE022057
:1032F000079000F08FFD079800F0FAFDFFE74148C6
:10330000007AFF280AD0FFE73E4906918888097AAB
:10331000FFF7EEFD0699FF200872FFE73948007EAF
:10332000FF280AD0FFE737490591888A097EFFF711
:10333000DFFD0599FF200876FFE732482821405C31
:10334000FF280DD0FFE72F490491888C2822039293
:10335000895CFFF7CDFD039A0499FF208854FFE7AD
:1033600028483821405CFF280DD0FFE7254902910D
:10337000888E38220192895CFFF7BAFD019A029982
:10338000FF208854FFE72048007C032833D0FFE764
:103390001D48007C012815D1FFE7FFF707FC014617
:1033A00031A801703199491E01700078012804DCB0
:1033B000FFE731A901200870FFE731A8007800F08D
:1033C0008DFD14E0FFF7F2FB014631A80170319941
:1033D000491C01700078152804DBFFE731A914208F
:1033E0000870FFE731A8007800F078FDFFE7064994
:1033F00003200874FFE736E700080048201000208B
:1034000000040048DC0F0020C40F002000440140ED
:103410000004004080B58AB00990089140F2005045
:1034200000F0B6FC09200021009100F07DFA009820
:10343000FFF744F900981149019101A90876099A0A
:10344000039201224A7640F20012029240F20042B8
:1034500004928876089A059242F200020692FFF7DB
:1034600059F90098FFF71CF90098FFF70BF900983D
:103470000221FFF7DBF90AB080BDC0464C240140B1
:1034800080B586B0DB4800F083FC224800F080FC69
:103490000920019000F0B6FB0198C00603210391BA
:1034A000002202920823FFF714FC0220049001215D
:1034B0000591FFF72BF8029940F20010FFF726F86C
:1034C000029940F20040FFF721F80298FEF7A4FEAF
:1034D00005990846FEF76CFE02980399049AFEF7D8
:1034E00041FFFFF76BF8059807214904FEF7FCFE42
:1034F00005990846FEF7BAFEFEF7ACFE0598FFF701
:1035000073F8FEF739FEFEF79DFE0598FEF7DEFF25
:1035100006B080BD0906000080B58CB05B4800F0A5
:1035200037FC5B4800F034FC40F2006000F030FCF7
:103530005848019044F20001009101220992FFF7DE
:10354000A1FB0198099A48F200010291FFF79AFB4A
:10355000099A5148069020210391FFF793FB0698A2
:10356000099A40210491FFF78DFB0698099A802162
:103570000591FFF787FB0698099A40F20011079121
:10358000FFF780FB009B0198099900220A92FFF740
:10359000A0FB0198029B09990A9AFFF79AFB0698EB
:1035A000099A0A9942F20003FFF793FB009B0698E1
:1035B000099A0A99FFF78DFB029B0698099A0A99C6
:1035C000FFF787FB0698099A0A9940F20023FFF754
:1035D00080FB0698099A0A990823FFF77AFB039B58
:1035E000069809990A9AFFF774FB049B06980999B3
:1035F0000A9AFFF76EFB059B069809990A9AFFF74E
:1036000068FB0698079B09990A9AFFF762FB0698E0
:10361000099A0A9910230B93FFF75BFB009B019813
:103620000A9903220892FFF79BFB0198029B089AD4
:103630000A99FFF795FB039B0698089A0A99FFF7EA
:103640008FFB049B0698089A0A99FFF789FB059B54
:103650000698089A0A99FFF783FB0698079B089A31
:103660000A99FFF77DFB0899072000F05DF909989A
:10367000042100F097FD0A990B980222FFF7CEF97A
:103680000B98FFF73BFA0CB080BDC0461305000055
:1036900012050000000800480004004810B58EB074
:1036A0009D4800F075FB1D4800F072FB0920C00624
:1036B000019000210491A0220292FFF783FA019861
:1036C000029B049A0221FFF704FB0198029B0499D4
:1036D00003220392FFF744FB1148069000F04CFCD4
:1036E00007A8059000F048FD039B049A05990698E9
:1036F0004CF20004089440F20414079440F2007461
:1037000009940C9340F200230A930D920B9200F05F
:1037100097FC069800F000FC0EB010BD0C060000EF
:103720000030014010B590B07B4800F031FB40F212
:10373000106000F02DFB0920C006019002210491C9
:103740000022069204230293FFF7C3FA0198029B1A
:1037500006990322FFF704FB0198029A0699FFF7E6
:1037600031FA2548089001F013F909A8039001F0F7
:1037700053FB0399069A089847230B804A808A8056
:10378000394B0B93CA800A7301F088F90DA8059094
:1037900001F0EDF8049B059A069908980124079416
:1037A0001480518093800823D38040F2001313814A
:1037B00040F20023538100F097FE0699089840F2EA
:1037C000F41201F05BF806990898602201F006F8FF
:1037D000069A0898114601F07BF8089800F0E8FD79
:1037E0000799089801F0FFFA089801F045F910B020
:1037F00010BDC046110500000040014080B588B0F2
:10380000174800F0C5FA1748039001F0C1F8039873
:1038100001220292114601F0CEFA04A8019001F0B3
:10382000FBFA0199039847220A8000224A808A8085
:10383000E94B0693CA800A7301F030F902990398A4
:1038400001F093FA1520022100F06EF80299039816
:1038500001F081FA039801F00FF908B080BDC0466D
:103860001106000000440140E703000080B58EB05F
:10387000294800F08DFA294800F08AFA0920C0068C
:103880000090022106910022049240230193FFF749
:1038900020FA0098019B04990322FFF761FA00982F
:1038A000019A01210391FFF78DF90399102000F08F
:1038B0003BF81B48079001F06BF808A8029001F054
:1038C000ABFA0299049A079847230B804A808A80B2
:1038D000144B0A93CA8001F0E1F80CA8059000F09F
:1038E000F4FD039B0499059A0798118053809180F9
:1038F000D18001F051F9079800F05AFD0699079818
:1039000001F033FA0699079801F025FA079801F0BB
:10391000B3F80EB080BDC0461105000001070000DD
:1039200000040040FFFF000080B584B00A46014655
:1039300003A80190017002A90A700022009280562B
:103940000978FEF7D7FB009901984056FEF7B8FBBF
:1039500004B080BD82B00190009101980099044AA2
:103960001140084303490860BFF34F8F02B070470E
:1039700080FFFF1F08ED00E010B590B00FA9088090
:103980000EA9002008800DA908800CA908800BA9A9
:1039900008800A908F480990FFF7CEF8012800D0E0
:1039A00015E10EA900200880FFE70EA800888A49CB
:1039B000884260DCFFE70EA8008841008E48405A2C
:1039C000FCF79EFC07900FA80088FCF799FC0146C5
:1039D0000798FCF73BFC8949FCF7FBFB8249FCF7A5
:1039E000F8FBFCF79FFC02460CA9088843007B48C3
:1039F000C252099A089209884900405AFCF780FC93
:103A000001460898FCF760FC48B9FFE70CA800885D
:103A100041007248405AFCF77EFC099018E00A9871
:103A200006900CA8008841006C48405AFCF768FCDE
:103A300001460698FCF756FC48B9FFE70CA8008839
:103A400041006648405AFCF766FC0A90FFE7FFE732
:103A50000CA908884300614AD45A5F20001BD05249
:103A60000C98401C0880FFE70E98654909784018BB
:103A70000EA9088099E70EA900200880FFE70EA88C
:103A800000885549884226DCFFE70EA800884100DF
:103A90005248405A272818DCFFE70EA8008840004B
:103AA0004E494018808829280FDBFFE70EA80088C0
:103AB0004B49884204DBFFE70DA90020088003E0A2
:103AC0000E980DA90880FFE705E0FFE70E98401C5F
:103AD0000EA90880D3E70EA900200880FFE70EA8F2
:103AE0000088632811DCFFE70DA800880EA909886B
:103AF000401842003948805A4A003A498852FFE744
:103B00000E98401C0EA90880E9E7364800880BA9EA
:103B100008800EA901200880FFE70EA80088612810
:103B20002BDCFFE70EA8039000884100314B595A67
:103B3000421C54001B5B0024009492B2FDF783F8F2
:103B4000039800880BA905910988421C4400254B65
:103B500004931B5B40F2E074009492B2FDF773F89B
:103B6000039A0498059912885200805A0880FFE74A
:103B70000E98401C0EA90880CFE70EA901200880EE
:103B8000FFE70EA8008863280FDCFFE70EA8018876
:103B900014484A001018801E008816498852FFE712
:103BA0000E98401C0EA90880EBE70A980E49029176
:103BB000FCF74CFB02990D4A10600998FCF746FB94
:103BC0000B490860FEF704FDFCF77EFFFFE710B02D
:103BD00010BDC046003C1C46E7030000E007002083
:103BE00085030000401000200000A0413810002094
:103BF0003C100020081100201000002048E19A3FEE
:103C00000D00002082B0014601A801705D4A1168D4
:103C10004CF20003994311605B4A11685B4B1940F9
:103C2000116000780090092800D9A7E000998A0067
:103C300001A080188746C04600F012B800F01CB8FA
:103C400000F026B800F02EB800F03BB800F046B8FF
:103C500000F056B800F061B800F071B800F07CB820
:103C6000494908680122120490430860086840F23C
:103C700000129043086082E0434908680122120460
:103C800010430860086840F200129043086076E034
:103C90003C49086808603C49086840F2001210433B
:103CA00008606CE0374908680860374908680122F5
:103CB000D20710430860086840F200121043086001
:103CC0005DE03049086844F20002104308602E4964
:103CD000086840F200121043086050E02949086863
:103CE00044F2000210430860274908680122D20705
:103CF00010430860086840F20012104308603EE07C
:103D00002049086848F20002104308601E4908680C
:103D100040F200121043086031E01A49086848F286
:103D2000000210430860184908680122D2071043B6
:103D30000860086840F20012104308601FE0114953
:103D400008684CF20002104308600F49086840F20E
:103D500000121043086012E00A4908684CF20002A1
:103D600010430860084908680122D2071043086020
:103D7000086840F200121043086000E0FFE702B05C
:103D80007047C0460410024030100240FFFEFE7F24
:103D900081B001466846018000881F22014611401B
:103DA00001238B408109154A88581843885001B077
:103DB0007047C04681B001466846018000881F22D6
:103DC0000146114001238B4081090C4A88589843D1
:103DD000885001B07047C04681B0014668460180F6
:103DE00000881F220146114001238B408109034AAC
:103DF00088581843885001B07047C04600100240F0
:103E000081B06946087000980149087001B0704798
:103E10000400002081B069460870009801490870CC
:103E200001B070470500002081B069460880009805
:103E30000149088001B070471C10002081B069461C
:103E4000087000980149087001B070470600002012
:103E500080B582B0014601A801800199044A118011
:103E600002881C48002100F009FD02B080BDC04658
:103E70000800002080B582B0014601A801800199A8
:103E8000034A11800188134800F09BFA02B080BDFC
:103E90000A00002080B582B0014601A801700078B8
:103EA000012807D1FFE70B4800F0EFFD0A49012088
:103EB00008700CE001A80078022807D1FFE7054848
:103EC00000F0DAFD044902200870FFE7FFE702B0C6
:103ED00080BDC046004001400C00002081B0694612
:103EE000087000980149087001B070470D0000206B
:103EF00081B06946087000980149087001B07047A8
:103F00000E00002081B069460880009801490880B1
:103F100001B07047D411002081B00090009908686A
:103F200040221043086001B07047000084B0039045
:103F300002A8018003988F49884205D1FFE702A8B3
:103F400000880399C86015E00398406841F20001B9
:103F500008400090009838B1FFE703980C300190BA
:103F600002980199087004E002A800880399C860CB
:103F7000FFE7FFE704B0704780B584B00390039873
:103F800002902E4988420ED0FFE702987949884274
:103F900011D1FFE740F20C300190FFF71DFF0198AF
:103FA000FFF708FF08E005480090FFF715FF0098AD
:103FB000FFF700FF00E0FFE704B080BD0E04000043
:103FC00083B001900091019880680099084204D064
:103FD000FFE702A9012008702BE0019817498842E9
:103FE00023D1FFE7009870B9FFE701988068C0040B
:103FF000800F20B1FFE702A90020087019E002A994
:104000000120087015E0009870B9FFE701988068FA
:104010004005800F20B1FFE702A90020087008E0EA
:1040200002A90120087004E0FFE702A9002008703F
:10403000FFE702A8007803B07047C0460038004090
:1040400086B00490039100200290019000900498A3
:1040500000680290029843F24001084002900498E0
:1040600000680190019843F64001084001900498CF
:104070004068009000983E490840009004983D49EF
:1040800088423DD1FFE703980168029808430290F7
:10409000039841680298084302900398C168029807
:1040A000084302900398016902980843029003981C
:1040B0004169029808430290039881690298084375
:1040C00002900398806840F2007188420BD0FFE7AD
:1040D0000398806840F60071884204D0FFE705A984
:1040E0000020087040E00398816840F6000001401D
:1040F000029808430290FFE702980499086029E0BB
:104100000398016801980843019003984168019859
:10411000084301900398C1680198084301900398EF
:104120000169019808430190039841690198084387
:1041300001900398816901980843019001980499BE
:1041400008600398816800980843009000980499DB
:104150004860FFE70499C86940F600029043C861CF
:1041600005A901200870FFE705A8007806B0704790
:10417000FFF000000030014081B000900099002065
:10418000086000994860009A40F2007191600099BF
:10419000C86000990861009948610099886101B080
:1041A0007047000085B00A4604A9087003A8027091
:1041B00002789207130F0F229A40D2430292097895
:1041C00002789207120F91400191007880080090C8
:1041D000032835D800998A0001A080188746C04678
:1041E00000F006B800F00EB800F016B800F01EB8E7
:1041F000029A1849086810400860019A086810433C
:1042000008601EE0029A1249086810400860019A8E
:1042100008681043086014E0029A0C4908681040CE
:104220000860019A0868104308600AE0029A06498B
:10423000086810400860019A08681043086000E0B0
:10424000FFE705B07047C046140001401000014070
:104250000C0001400800014084B00020039002904F
:10426000314908680122120410430860FFE70398EF
:10427000401C03902C48006801214904084002902A
:10428000FFE702990020019039B9FFE70398274919
:10429000401A411E88410190FFE70198C00700289D
:1042A000E5D1FFE7204800688003002802D4FFE73B
:1042B000FFE7FEE71E4908680222104305229043EB
:1042C00008601C4900910868086008680860086870
:1042D00008600868184A1040086008681D22120427
:1042E0001043086010490868012212061043086054
:1042F000FFE70D4800688001002801D4FFE7F8E7D8
:104300000C490868032290430860086802221043A1
:104310000860FFE7074800680C210840082801D022
:10432000FFE7F7E704B0704700100240FFFF00000E
:104330000020024004100240FFFFC27780B5FFF763
:104340008BFF80BD81B000900098042806D1FFE764
:104350000649086804221043086005E0034908681C
:10436000042290430860FFE701B0704710E000E0CE
:1043700080B50420C043FFF7E5FF08480068FBF75D
:10438000CAFF0749FBF762FF014606480160006863
:104390000549FBF71EFF0549086080BD00000020AD
:1043A0000024F44ABC0F002000007A44B80F00201B
:1043B00081B000900099086880221043086001B025
:1043C000704782B001906846018000880199C862F8
:1043D00002B0704784B0039002A8018000210191CF
:1043E0000088009003281DD800998A0001A0801839
:1043F0008746C04600F006B800F008B800F00AB8DA
:1044000000F00CB80398406B01900CE00398806BAF
:10441000019008E00398C06B019004E00398006CE1
:10442000019000E0FFE7019804B0704784B003906A
:1044300002A8018001A90A8000880090032841D8C1
:1044400000998A0001A080188746C04600F006B88F
:1044500000F010B800F01CB800F026B80399886985
:104460000C229043886101A802880399886910434F
:10447000886128E00399886940F60042904388618A
:1044800001A80088020203998869104388611AE034
:104490000399C8690C229043C86101A80288039956
:1044A000C8691043C8610EE00399C86940F600422C
:1044B0009043C86101A8008802020399C8691043AB
:1044C000C86100E0FFE704B0704781B00090009938
:1044D00000200880009A012151800099888000996D
:1044E000C88001B07047000084B0039002A801802A
:1044F000019200880090032800D964E100998A00A5
:1045000001A080188746C04600F006B800F063B8E6
:1045100000F0CBB800F023B90399086A0122904358
:104520000862039988690322904388610198028890
:104530000399086A104308620399086A02229043AB
:104540000862019882880399086A104308620398F8
:104550009E4988420FD0FFE703989D4988420AD0C0
:10456000FFE703989B49884205D0FFE703989A49E3
:1045700088422FD1FFE70399086A0422904308621A
:10458000019842880399086A104308620399086AEF
:104590000822904308620198C2880399086A104370
:1045A00008620399486840F20012904348600198FD
:1045B000028903994868104348600399486840F2AB
:1045C000002290434860019842890399486810434B
:1045D0004860FFE7F8E00399086A102290430862F8
:1045E0000399886940F200329043886101980088FD
:1045F00002010399086A104308620399086A20229D
:10460000904308620198808802010399086A104368
:10461000086203986D49884233D1FFE70399086A1D
:104620004022904308620198408802010399086A79
:10463000104308620399086A802290430862019837
:10464000C08802010399086A104308620399486808
:1046500040F200429043486001980089820003992B
:104660004868104348600399486840F60002904348
:104670004860019840898200039948681043486067
:10468000FFE70398F64988420ED1FFE7039948688F
:1046900040F20042904348600198008982000399EB
:1046A000486810434860FFE78EE00399086A40F2CB
:1046B0000012904308620399C86903229043C861BD
:1046C0000198008802020399086A1043086203995E
:1046D000086A40F200229043086201988088020232
:1046E0000399086A104308620398DC49884235D16F
:1046F000FFE70399086A40F200429043086201987C
:10470000408802020399086A104308620399086A04
:1047100040F60002904308620198C08802020399A3
:10472000086A104308620399486841F20002904306
:104730004860019800890201039948681043486065
:104740000399486842F2000290434860019840890A
:1047500002010399486810434860FFE734E0039979
:10476000086A41F20002904308620399C86940F266
:1047700000329043C8610198008802030399086AD7
:10478000104308620399086A42F2000290430862EB
:104790000198808802030399086A1043086203980D
:1047A000F74988420ED1FFE70399486844F20002B6
:1047B000904348600198008982010399486810433A
:1047C0004860FFE700E0FFE704B07047002C0140BD
:1047D00000400140004401400048014084B0039083
:1047E00002A8018001A90A8000880090032841D80E
:1047F00000998A0001A080188746C04600F006B8DC
:1048000000F010B800F01CB800F026B803998869D1
:1048100070229043886101A8028803998869104337
:10482000886128E00399886947F200029043886113
:1048300001A80088020203998869104388611AE080
:104840000399C86970229043C86101A8028803993E
:10485000C8691043C8610EE00399C86947F20002B5
:104860009043C86101A8008802020399C8691043F7
:10487000C86100E0FFE704B07047000084B0039017
:1048800002A8018001920088009003281CD800999A
:104890008A0001A08018874600F006B800F008B82A
:1048A00000F00AB800F00CB80198039948630CE0D6
:1048B00001980399886308E001980399C86304E0AC
:1048C00001980399086400E0FFE704B07047000016
:1048D00084B0039002A8018001A90A80008800909A
:1048E000032841D800998A0001A080188746C04655
:1048F00000F006B800F010B800F01CB800F026B8C0
:104900000399886908229043886101A80288039965
:1049100088691043886128E00399886940F600029D
:104920009043886101A800880202039988691043B6
:1049300088611AE00399C86908229043C86101A8F8
:1049400002880399C8691043C8610EE00399C869D9
:1049500040F600029043C86101A800880202039952
:10496000C8691043C86100E0FFE704B0704781B038
:104970000090009900200880009948800099888064
:104980000099C880009908810099488101B070475A
:1049900080B58AB00990099808907A49884226D053
:1049A000FFE708982C49884229D0FFE70898764904
:1049B00088422CD0FFE70898714988420FD0FFE762
:1049C0000898724988422BD0FFE7089870498842BE
:1049D0002FD0FFE708986F49884232D039E0254848
:1049E0000790FFF7F9F90798FFF7E4F932E020485C
:1049F0000690FFF7F1F90698FFF7DCF92AE01B486B
:104A00000590FFF7E9F90598FFF7D4F922E040F2A5
:104A100008400490FFF7E0F90498FFF7CBF919E09C
:104A200040F210300390FFF7D7F90398FFF7C2F96F
:104A300010E00D480290FFF7CFF90298FFF7BAF99E
:104A400008E008480190FFF7C7F90198FFF7B2F9AD
:104A500000E0FFE70AB080BD00100040002C0140DC
:104A60000040014012030000110300000404000094
:104A7000010400000B03000081B000900099086859
:104A800001229043086001B0704781B00090009906
:104A9000086801221043086001B0704782B001909D
:104AA00000910098008801998862019834498842F1
:104AB00005D0FFE701983349884212D1FFE70199F9
:104AC000086870229043086000984288019908683D
:104AD00010430860009882880199086810430860B4
:104AE000FFE7009880680199C862019824498842CC
:104AF00019D0FFE701982349884214D0FFE70198B5
:104B0000214988420FD0FFE70198204988420AD006
:104B1000FFE701981E49884205D0FFE701981D492B
:104B200088420DD1FFE70199086840F200329043B6
:104B300008600098C2880199086810430860FFE780
:104B400001980F4988420FD0FFE701980F4988422A
:104B50000AD0FFE701980E49884205D0FFE7019887
:104B60000C49884205D1FFE70098007B0199086352
:104B7000FFE70199486901221043486102B070477C
:104B8000002C014000040040002000400040014093
:104B9000004401400048014080B584B0039002A861
:104BA0000180019200880090032800D9C9E0009993
:104BB0008A0001A08018874600F006B800F030B8DF
:104BC00000F05EB800F08BB80399086A01229043A8
:104BD00008620399086A0A239843086201980388C7
:104BE0000399086A18430862039988690323984364
:104BF00088610198438803998869184388610399FB
:104C00008869F023984388610198C088030103995B
:104C10008869184388610399086A1043086291E023
:104C20000399086A1022904308620399086AA02336
:104C3000984308620198008803010399086A1843A1
:104C400008620399886940F20033984388610198AB
:104C50004088030203998869184388610399886929
:104C60004FF20003984388610198C08803030399B9
:104C70008869184388610399086A1043086261E0F3
:104C80000399086A40F20012904308620399086A87
:104C900040F60023984308620198008803020399B4
:104CA000086A184308620399C86903239843C861D6
:104CB000019843880399C8691843C8610399C86972
:104CC000F0239843C8610198C08803010399C8691B
:104CD0001843C8610399086A1043086232E00399D7
:104CE000086A41F20002904308620399086A4AF296
:104CF0000003984308620198008803030399086A37
:104D0000184308620399C86940F200339843C861A8
:104D10000198408803020399C8691843C861039940
:104D2000C8694FF200039843C8610198C088030323
:104D30000399C8691843C8610399086A1043086257
:104D400000E0FFE7039802A90988019A9288FFF71B
:104D50006DFB04B080BD82B001900091009A019972
:104D6000C8681043C86002B0704782B001900091DB
:104D70000098C0430199086102B0704784B0029066
:104D800001910298C068019908400090029800695A
:104D90000199084207D0FFE7009820B1FFE703A977
:104DA0000120087003E003A900200870FFE703A8B2
:104DB000007804B0704784B00091014600980391D8
:104DC00002A9088001A802700988039A91620078FC
:104DD000012806D1FFE70399486901221043486181
:104DE000FFE704B0704782B0019068460170007818
:104DF000012807D1FFE70199486C48F200021043EF
:104E0000486406E00199486C48F200029043486407
:104E1000FFE702B07047000081B0009000990020C9
:104E200008800099488000998880009A0349916021
:104E30000099C8800099087301B07047FFFF000017
:104E40000FB410B504A9074B02AA039800F0ECF8C0
:104E5000044602A9002000F083FC204610BC08BCD8
:104E600004B01847615700082021020C01D010211E
:104E70001046020A01D010460839020901D0104636
:104E8000091F820801D01046891E420801D0881EE1
:104E90007047081A704702E008C8121F08C1002AAC
:104EA000FAD170477047002001E001C1121F002AAB
:104EB000FBD17047F0B51FB486B00998089A030D6E
:104EC0000021024314D05148514A18185043051488
:104ED0001198012810981AD0281A401C00264D4F0E
:104EE0004D49009601910490002812DA444211E0E5
:104EF0001198012449A3012801D11098C1430698B3
:104F0000119A84600360C26041600BB0F0BD404202
:104F1000E4E70446210500203F4A001C514103916B
:104F2000029012E0E00707D032463B460199009814
:104F3000FBF75CFB0191009032463B461046194658
:104F4000FBF754FB06460F466410002CEAD1049888
:104F5000039B0028029A0999089806DAFBF746FB9A
:104F6000019B009AFBF742FB05E0FBF7A7FB019BC7
:104F7000009AFBF7A3FB04460E460022284BFBF7E2
:104F800035FC03D80020C043014607E00022254B32
:104F900020463146FBF778FAFBF708FC102409E0BD
:104FA000002C0ADB0A220023FBF7FDF9079B3032B5
:104FB0001A55641E02460A43F2D11122641C079B53
:104FC000121B1C19119B012B03D0012308430ED186
:104FD0000AE0084304D0112010900020119077E7D8
:104FE0001098151A6D1E0BE01098824202DD002306
:104FF0006D1C03E0824201DA00236D1E002BEED00F
:10500000069811998260C16030C07EE701FCFFFF05
:10501000104D0000000014400000F03F3000000080
:105020000000F0430000E03FFFB597B006460025C2
:1050300018E2252877D100242746FD49049400E092
:105040000443761C32780120203A90400842F7D180
:1050500030782A280ED002223078014630390929CA
:1050600016D804990A235943303940181443761C42
:105070000490F1E7189802C804911890002904DA06
:105080000120400304434842049002200443761C5C
:1050900030782E2814D1042004437078761C2A28F6
:1050A00009D11898761C80C8189009E00A214F434E
:1050B000303FC719761C3078014630390929F5D9B7
:1050C00030786C2810D006DC4C281AD068280ED016
:1050D0006A2817D104E0742813D07A2812D110E07E
:1050E0000120400504430CE00121090501E00321F2
:1050F00009050C437178814203D101200005241871
:10510000761C761C3078119066280BD013DC58285A
:105110007DD009DC00287BD04528F6D04628F4D085
:1051200047281AD1A5E118E0632835D0642870D04B
:10513000652812D19DE170286CD008DC6728F1D079
:1051400069287BD06E280DD06F2806D1BAE073286D
:105150002ED0752871D0782859D01A9A199990476D
:105160006D1C7EE16002400F022809D003280DD09B
:105170000428189801680DD00D60001D189070E18A
:105180001898EA1701680D604A60F6E718980168F8
:105190000D80F2E70D70F0E718986A4601781172F9
:1051A000001D18900020507202A80090012005E018
:1051B000189802C8189000200091C04361070DD5CF
:1051C000002101E00199491C0191B94212DA8142A2
:1051D000F8DB009A515C0029F4D10BE0002101E0DA
:1051E0000199491C01918142FADB019A0099895C7D
:1051F0000029F5D1019904981A9B471A214638468F
:10520000199A00F097FA0199401945180BE04FE000
:105210002CE113E04EE0009800990078491C0091C1
:105220001A9A199990470198401E0190401CF2D19A
:10523000214638461A9B199A10E137E00A200021CE
:10524000009001916002410F022907D0189A01CA0B
:105250001892C2179446032908D00AE01898C01D76
:10526000C108C90005C91891944607E000B2C217E9
:105270009446042902D140B2C1178C4600226146EF
:10528000944506DA0A460021404291418C462D2180
:1052900002E0210504D52B216A461173012103E0A8
:1052A000E10701D02021F7E7029155E00A200AE04A
:1052B000102008E0102000900021042004430191F8
:1052C000082703E008200021019100906002410FAF
:1052D000022907D0189A01CA18920022944603297D
:1052E00008D008E01898C01DC108C90005C9189168
:1052F000944603E080B2042900D1C0B2002102919B
:10530000210729D51199702906D0009A1021019BF7
:105310004A401A4305D00EE040216A46117301212C
:1053200008E06146014306D030216A4611731199A5
:10533000517302210291009A0821019B4A401A43AD
:105340000AD16146014301D1610705D530216A4682
:10535000117301217F1E02911199582904D035A1A2
:105360000E910DA90D910DE037A1F9E76146019B62
:10537000009AFBF718F80E9B8C469B5C0D9A521E08
:105380000D92137061460143F0D10D9805A9081ADA
:1053900020300190600703D501200004844300E021
:1053A00001270198874201DD381A00E000200199A9
:1053B00000904118029809180498401A0490E003DC
:1053C00006D421461A9B199A049800F0B3F945199E
:1053D000002706E003A81A9AC05D199990476D1C32
:1053E0007F1C02988742F5DBE0030CD521461A9B0F
:1053F000199A049800F09EF9451904E01A9A302091
:10540000199990476D1C0099481E00900029F5DC01
:1054100008E00D980D990078491C0D911A9A199978
:1054200090476D1C0199481E01900029F1DC63E151
:10543000092801003031323334353637383961626A
:10544000636465660000000030313233343536372E
:1054500038394142434445460000000000F05AF903
:105460004519761C3078002800D0E2E528461BB0AC
:10547000F0BD600700D406271898C01DC108C900F8
:1054800048680A680831C30FDB071891190001D07A
:105490009CA108E0210501D59BA104E0E10701D012
:1054A0009AA100E09AA1430011985B081091652829
:1054B0000CD006DC452809D046281DD0472841D10C
:1054C00041E0662818D067283CD13CE00021112F2C
:1054D00001DB112000E0781C0191009008A911A8BF
:1054E000FFF7E8FC139905910021119A15927F1C92
:1054F00012980197009150E00120C007039001200D
:10550000019008A9009711A8FFF7D4FC139A1499E9
:1055100005920022119B009212981593059A019210
:10552000002901D0104602E0791C40180190381A79
:1055300001D5019804E04042401E0090781C019083
:10554000C01B029043E0012F00DA01270021112F38
:1055500001DD112000E038460191009008A911A852
:10556000FFF7A8FC13990591119A00211298159242
:105570000091019721070CD40599B94201DB0199EB
:1055800000E00191012904DD159A491E515C302982
:1055900006D0B84201DA011D05DA0121029115E0B9
:1055A0000199491EEDE7002805DC0099411800919A
:1055B0000199091A03E0019A411C914200DD019111
:1055C0000099401A401C02900120C0070390200758
:1055D00006D402990198814202DB0020C043029068
:1055E00000206946C87707AF012103980337C90730
:1055F000884224D0022011902B201290039800287A
:105600000CDA404203902D20129007E00A21039803
:10561000FBF712F930317F1E039039701199481E43
:1056200011900029F2DC03980028EFD1791E12981E
:1056300008703078202108404530BF1E387006A819
:10564000C01BC01D039010980078002800D00120D6
:10565000019941180298C01709180398091804986D
:10566000401A401E0490E00306D421461A9B199A62
:10567000049800F05FF8451910980078002803D0CE
:105680001A9A199990476D1CE00324D521461A9B5C
:10569000199A049800F04EF845191CE0009800286B
:1056A00007DB00990598884203DD1598405C19993D
:1056B00001E0199930201A9A904700986D1C401CFF
:1056C00000900298401E0290002804D11A9A2E20C1
:1056D000199990476D1C0199481E01900029DDDC45
:1056E00005E038781A9A7F1C199990476D1C039928
:1056F000481E03900029F4DC21461A9B199A04984D
:10570000ACE600002D0000002B000000200000008F
:1057100000000000F8B5044600251E461746880420
:1057200004D405E039462020B0476D1C641EF9D52D
:105730002846F8BDFFB50446002581B01E46C803C3
:1057400001D5302700E02027880404D505E038463D
:105750000399B0476D1C641EF9D5284605B0F0BD0D
:105760000A68531C0B6010707047000000000000B6
:105770000000000000000000000000000008080811
:105780000808080800001818000000486C241200DF
:10579000000000000000000000000000002424249D
:1057A0007F1212127F12121200000000081C2A2A17
:1057B0000A0C1828282A2A1C08080000002225158F
:1057C00015152A585454542200000000000C1212DF
:1057D000120A76252911916E0000000606040300C6
:1057E0000000000000000000000000402010100831
:1057F00008080808081010204000000204080810DB
:105800001010101010080804020000000000080822
:105810006B1C1C6B0808000000000000000008085A
:1058200008087F08080808000000000000000000C9
:105830000000000000000606040300000000000055
:105840000000FE000000000000000000000000005A
:10585000000000000000060600000000804040201C
:10586000201010080804040202000000001824425E
:1058700042424242424224180000000000080E0842
:10588000080808080808083E00000000003C4242E2
:10589000422020100804427E00000000003C4242EA
:1058A000201820404042221C000000000020302828
:1058B000242422227E20207800000000007E0202A4
:1058C000021A26404042221C000000000038240238
:1058D000021A26424242241800000000007E2222C2
:1058E000101008080808080800000000003C4242A8
:1058F000422418244242423C000000000018244286
:10590000424264584040241C000000000000000097
:105910001818000000001818000000000000000027
:1059200000080000000000080804000000402010EB
:1059300008040204081020400000000000000000DD
:105940007F0000007F00000000000000000204084B
:10595000102040201008040200000000003C4242D9
:10596000464020101000181800000000001C225AA9
:10597000555555552D42221C0000000000080818FE
:105980001414243C224242E700000000001F22229F
:10599000221E22424242221F00000000007C42429E
:1059A000010101010142221C00000000001F2242EF
:1059B000424242424242221F00000000003F421287
:1059C000121E12120242423F00000000003F42122B
:1059D000121E12120202020700000000003C2222E6
:1059E000010101712122221C0000000000E7424257
:1059F00042427E42424242E700000000003E080868
:105A0000080808080808083E00000000007C101084
:105A10001010101010101010110F0000007722123B
:105A20000A0E0A121222227700000000000702026A
:105A3000020202020202427F0000000000773636B6
:105A400036362A2A2A2A2A6B0000000000E346463E
:105A50004A4A52525262624700000000001C224132
:105A6000414141414141221C00000000003F4242AF
:105A700042423E020202020700000000001C2241D6
:105A8000414141414D53321C60000000003F424201
:105A9000423E1212222242C700000000007C424215
:105AA000020418204042423E00000000007F4908E6
:105AB000080808080808081C0000000000E7424227
:105AC000424242424242423C0000000000E7424261
:105AD000222424141418080800000000006B49490F
:105AE00049495555362222220000000000E7422491
:105AF00024181818242442E700000000007722220E
:105B0000141408080808081C00000000007E21206A
:105B1000101008040442423F0000007808080808FA
:105B200008080808080808087800000002020404B1
:105B300008080810102020204040001E10101010EF
:105B400010101010101010101E000038440000003B
:105B50000000000000000000000000000000000045
:105B6000000000000000000000FF00060800000028
:105B70000000000000000000000000000000000025
:105B8000003C4278444242FC000000000003020254
:105B9000021A26424242261A0000000000000000BD
:105BA0000038440202024438000000000060404017
:105BB00040784442424264D80000000000000000E7
:105BC000003C427E0202423C0000000000F08808D7
:105BD000087E08080808083E0000000000000000D9
:105BE000007C22221C023C42423C000000030202D4
:105BF000023A4642424242E700000000000C0C001C
:105C0000000E08080808083E0000000000303000C0
:105C10000038202020202020221E00000003020245
:105C20000272120A1612227700000000000E080805
:105C3000080808080808083E0000000000000000EE
:105C4000007F9292929292B7000000000000000044
:105C5000003B4642424242E70000000000000000D4
:105C6000003C42424242423C000000000000000072
:105C7000001B26424242221E0207000000000000D4
:105C8000007844424242447840E0000000000000B6
:105C900000774C040404041F000000000000000012
:105CA000007C42023C40423E000000000000000830
:105CB000083E080808080830000000000000000046
:105CC00000634242424262DC00000000000000002B
:105CD00000E742242414080800000000000000002F
:105CE00000EB494955552222000000000000000049
:105CF000007624181818246E000000000000000030
:105D000000E74224241418080807000000000000DF
:105D1000007E22100808447E000000C020202020C1
:105D20002010202020202020C00010101010101063
:105D3000101010101010101010100006080808089D
:105D4000081008080808080806000C32C200000005
:105D50000000000000000000000000000000000043
:105D60000000000000000000000000000000000033
:105D70000000000000000000000000000000000023
:105D80000000000000000000000000000000000013
:105D90000000600060006000600060006000600063
:105DA00040002000200020000000000000006000F3
:105DB00060006000000000000000000000006006BD
:105DC00060063003980188004400000000000000D5
:105DD00000000000000000000000000000000000C3
:105DE00000000000000000000000000000000000B3
:105DF00000001002100210021002FE07FE07080247
:105E00000801080108010801FE07FE07040104015A
:105E10000401040100000000000000000000000078
:105E200040004000F00158034C03CC034C005800E4
:105E30007000E000C001C00140034C035C034C0350
:105E40004801F00040004000000000000000000099
:105E500000000E010A0191009100910051005100D3
:105E60003A00AE03A0025004500448044804480419
:105E70008402840300000000000000000000000015
:105E8000000038006C006C006C006C006C002C0092
:105E900098071C011A01330133016301E300C308B1
:105EA000C6093C07000000000000000000000C00D4
:105EB0001C0010001000080004000000000000009A
:105EC00000000000000000000000000000000000D2
:105ED00000000000000000000000000000000004BE
:105EE00000020001800080004000400020002000EF
:105EF0002000200020002000200040004000800002
:105F00008000000100020004000000000000020008
:105F10000400080010001000200020004000400095
:105F200040004000400040004000200020001000E1
:105F30001000080004000200000000000000000043
:105F40000000000000004000C0004000460C4E0F62
:105F5000D001F0015E0F460C400040004000000000
:105F60000000000000000000000000000000000031
:105F70000000000000000000400040004000400021
:105F80004000FE0F40004000400040004000000084
:105F90000000000000000000000000000000000001
:105FA00000000000000000000000000000000000F1
:105FB00000000000000000000000000000000C00D5
:105FC0001C00100010000800040000000000000089
:105FD00000000000000000000000000000000000C1
:105FE0000000FE07000000000000000000000000AC
:105FF00000000000000000000000000000000000A1
:106000000000000000000000000000000000000090
:1060100000000000000000000000000000001C0064
:106020001C001C0000000000000000000000000434
:106030000006000200030001000180008000400013
:106040004000600020002000100010000800080040
:106050000C00040006000200000000000000000028
:1060600000000000F00098010C030C030606060671
:106070000606060606060606060606060C030C03BA
:106080009801F00000000000000000000000000087
:106090000000000040007C006000600060006000C4
:1060A00060006000600060006000600060006000F0
:1060B0006000FC0300000000000000000000000081
:1060C00000000000F8008401020306030603000339
:1060D00000018001C00060002000100008020402DE
:1060E0000602FE03000000000000000000000000A7
:1060F000000000007800C600860186018001800152
:10610000C0007000800100010003000306030603C5
:106110008601F80000000000000000000000000000
:106120000000000080018001C001A001A0019001D9
:106130008801880184018201FE0F800180018001B5
:106140008001E007000000000000000000000000E7
:1061500000000000FC03040004000400040004002C
:10616000F4008C010403000300030603060382010C
:106170008401F800000000000000000000000000A2
:1061800000000000E00118030C030C0004000600EE
:10619000E60116030E0606060606060604060C02AF
:1061A0001803F000000000000000000000000000E4
:1061B00000000000F8070C060402040100010001C1
:1061C00080008000400040004000600060006000EF
:1061D00060006000000000000000000000000000FF
:1061E00000000000F8010C030606060606060C0275
:1061F0001C03F000C8010C03060606060606060688
:106200000C03F0010000000000000000000000008E
:1062100000000000F0000C010C0306020606060652
:10622000060606078C0678060006000300030C012C
:106230008C01780000000000000000000000000059
:106240000000000000000000000000000000E0006E
:10625000E000E00000000000000000000000E0009E
:10626000E000E0000000000000000000000000006E
:1062700000000000000000000000000000006000BE
:1062800060000000000000000000000000000000AE
:1062900060006000400020002000000000000000BE
:1062A00000000004000200018000400020001000F7
:1062B00008000400080010002000400080000001D9
:1062C00000020004000000000000000000000000C8
:1062D0000000000000000000000000000000FE07B9
:1062E000000000000000FE070000000000000000A9
:1062F000000000000000000000000000000000009E
:106300000000040008001000200040008000000190
:106310000002000400020001800040002000100084
:106320000800040000000000000000000000000061
:1063300000000000E0031806040C040C0C0C0C0C0C
:106340000007800140004000400000000000E00025
:10635000E000E0000000000000000000000000007D
:106360000000E00018030C02CC0564056605A605D4
:10637000B604B604B604B604B602E4010C040C027A
:106380001803F00000000000000000000000000002
:1063900000000000600060005000D00090009000FD
:1063A000880088010801F8010403040304020202C2
:1063B00002060F0F000000000000000000000000B7
:1063C00000000000FE008C030C030C030C030C0304
:1063D0008C01FC000C030C020C060C060C060C06CF
:1063E0000C03FE010000000000000000000000009F
:1063F00000000000E00318030C060C04040406006F
:106400000600060006000600060006040C040C0246
:106410001803F00000000000000000000000000071
:10642000000000007F008C010C030C030C060C061E
:106430000C060C060C060C060C060C060C030C03D2
:106440008C017F0000000000000000000000000040
:1064500000000000FF030603060406040600860091
:106460008600FE00860086008600060006040604FC
:106470000602FF0300000000000000000000000012
:1064800000000000FF030603060406040600860061
:106490008600FE00860086008600060006000600D4
:1064A00006001F00000000000000000000000000C7
:1064B00000000000F00018010C020C0204020600AB
:1064C000060006000600C60F060306030C030C03B5
:1064D0001803F000000000000000000000000000B1
:1064E000000000000F0F0606060606060606060652
:1064F0000606FE0706060606060606060606060643
:1065000006060F0F00000000000000000000000061
:1065100000000000FC03600060006000600060009C
:10652000600060006000600060006000600060006B
:106530006000FC03000000000000000000000000FC
:1065400000000000F807C000C000C000C000C0008C
:10655000C000C000C000C000C000C000C000C0003B
:10656000C000C000C60066003C0000000000000043
:1065700000000000CF038601C6004600260016007A
:1065800036002E006E004600C60086008601060119
:1065900006038F070000000000000000000000005C
:1065A000000000001F0006000600060006000600AE
:1065B00006000600060006000600060006040604A3
:1065C0000602FF03000000000000000000000000C1
:1065D000000000000707860386038E038E034E0328
:1065E0004E034A035A035A033A0332033203320377
:1065F00012038707000000000000000000000000F8
:10660000000000008E0F0C021C021C023402340237
:10661000640264024402C402840284038403040307
:1066200004031F0200000000000000000000000042
:1066300000000000F00098010C030C02060606069C
:106640000606060606060606060606060C020C03E5
:106650009801F000000000000000000000000000B1
:1066600000000000FF0006030606060606060606F2
:1066700006068603FE000600060006000600060069
:1066800006001F00000000000000000000000000E5
:1066900000000000F00098010C030C02060606063C
:1066A0000606060606060606060676064C02CC0315
:1066B0009801F000800700030000000000000000C7
:1066C00000000000FF010603060606060606060691
:1066D0000603FE004600C600860086010603060388
:1066E00006060F0E00000000000000000000000081
:1066F00000000000F8020C030602060206000E006D
:106700003C00F800E00380030007020602060606CC
:106710000C03F00100000000000000000000000079
:1067200000000000FE07620461086108600060006C
:106730006000600060006000600060006000600059
:106740006000F801000000000000000000000000F0
:10675000000000001E070C020C020C020C020C02CE
:106760000C020C020C020C020C020C020C020C02B9
:106770001801F00000000000000000000000000010
:10678000000000000F070602040104010C010C01C7
:106790008800880098009800500050007000300079
:1067A00020002000000000000000000000000000A9
:1067B00000000000F70E620442044604460464022E
:1067C0006402E402E4029C029C01980198018801A1
:1067D00088008800000000000000000000000000A9
:1067E000000000009E070C01080118019000B00095
:1067F0006000200060006000D00090008801080167
:1068000004038E07000000000000000000000000EC
:10681000000000000F0F060404020C02080118011A
:10682000B800B000700060006000600060006000B0
:106830006000F801000000000000000000000000FF
:1068400000000000FC070C0206030201800180002A
:1068500040004000200020001000180008040C0434
:106860000402FE0300000000000000000000E0033E
:106870002000200020002000200020002000200018
:106880002000200020002000200020002000200008
:10689000200020002000E0030000000000000000B5
:1068A00000000400040008000800100010001000A0
:1068B0002000200040004000C00080008000000157
:1068C00000010002000200020004000000007C0041
:1068D00040004000400040004000400040004000B8
:1068E00040004000400040004000400040004000A8
:1068F0004000400040007C0000000000600090006C
:10690000080100000000000000000000000000007E
:106910000000000000000000000000000000000077
:106920000000000000000000000000000000000067
:106930000000000000000000000000000000000057
:106940000000000000000000000000000000000047
:106950000000000000000000FF0F00000000180011
:1069600060000000000000000000000000000000C7
:106970000000000000000000000000000000000017
:106980000000000000000000000000000000000007
:106990000000000000000000000000000000F00106
:1069A0000C030C030003E0031C030E0306030603A1
:1069B0008E0B7C0E000000000000000000000000B4
:1069C000000008000E000C000C000C000C00CC01B4
:1069D0003C031C060C060C060C060C060C060C02EE
:1069E0001C03E401000000000000000000000000A3
:1069F0000000000000000000000000000000F000A7
:106A00008C018C01860106000600060006020C02BD
:106A10000C01F00000000000000000000000000079
:106A200000000002C003000300030003000378031A
:106A30008C030C0306030603060306030603040384
:106A40008C0778010000000000000000000000003A
:106A50000000000000000000000000000000E00155
:106A6000180308020C060C06FC070C000C001804A6
:106A70001802E0010000000000000000000000001B
:106A800000000000C0036006300630003000FE0148
:106A90003000300030003000300030003000300076
:106AA0003000FC01000000000000000000000000B9
:106AB0000000000000000000000000000000F007DF
:106AC000D8068C018C018C019801F8000C00FC00A8
:106AD000CC03060306038E03F8000000000000004C
:106AE000000008000E000C000C000C000C00EC0173
:106AF0001C030C030C030C030C030C030C030C030E
:106B00000C039E07000000000000000000000000D1
:106B100000000000600060000000000040007C00F9
:106B20006000600060006000600060006000600065
:106B30006000FC03000000000000000000000000F6
:106B400000000000C001C001000000000001F001D1
:106B5000800180018001800180018001800180012D
:106B6000800180018001CC007C000000000000005A
:106B7000000008000E000C000C000C000C008C0340
:106B80008C008C004C006C005C008C008C010C01B3
:106B90000C039E0700000000000000000000000041
:106BA000000040007C006000600060006000600049
:106BB00060006000600060006000600060006000D5
:106BC0006000FC0300000000000000000000000066
:106BD0000000000000000000000000000000370777
:106BE000EE066606660666066606660666066606BD
:106BF0006606FF0F0000000000000000000000001B
:106C00000000000000000000000000000000EE0195
:106C10001C030C030C030C030C030C030C030C03EC
:106C20000C039E07000000000000000000000000B0
:106C30000000000000000000000000000000F00064
:106C400098010C03060606060606060606060C0351
:106C50000C03F00000000000000000000000000035
:106C60000000000000000000000000000000EE0135
:106C70001C030C060C060C060C060C060C060C037A
:106C80001C03EC010C000C003E00000000000000A2
:106C9000000000000000000000000000000078027A
:106CA0008C030C0306030603060306030603040312
:106CB0008C03780300030003C007000000000000FD
:106CC00000000000000000000000000000009F0322
:106CD0005806380618001800180018001800180088
:106CE0001800FF000000000000000000000000008D
:106CF0000000000000000000000000000000F003A1
:106D00001C030C020C023800F000C003040304034F
:106D10008C03FC01000000000000000000000000E7
:106D20000000000000002000200030003000FE01C4
:106D300030003000300030003000300030003002D1
:106D40003002E00100000000000000000000000030
:106D500000000000000000000000000008028E0398
:106D60000C030C030C030C030C030C030C030C03AB
:106D70009C077801000000000000000000000000F7
:106D800000000000000000000000000000001E07DE
:106D90000C020801080118019000B000B00060006A
:106DA0006000200000000000000000000000000063
:106DB0000000000000000000000000000000F70ECE
:106DC0006204460464026402EC029C01980198018A
:106DD0009801080000000000000000000000000012
:106DE0000000000000000000000000000000BC07E0
:106DF00018011001B00060006000E0009000080180
:106E000008039E07000000000000000000000000D2
:106E100000000000000000000000000000009E07CD
:106E200008010801080190009000B00060006000B7
:106E300060002000200024001C0000000000000072
:106E40000000000000000000000000000000FC0145
:106E50008401C400440060002000300018020802D1
:106E60000C03FC0100000000000000000000000313
:106E70008000800080008000800080008000800012
:106E800040002000400080008000800080008000E2
:106E900080008000800000030000400040004000AF
:106EA00040004000400040004000400040004000E2
:106EB00040004000400040004000400040004000D2
:106EC00040004000400040004000000000000C0076
:106ED0001000100010001000100010001000100032
:106EE00020004000200010001000100010001000D2
:106EF0001000100010000C00000000001C00220414
:106F0000C204800300000000000000000000000038
:106F10000000000000000000000000000000000071
:106F200000000000000000000000202020202020A1
:106F300000202050574D200025312E32665620006B
:106F4000253364487A200020202532642525002539
:106F500033644B487A0025332E31664B487A002043
:106F6000253364487A00B4F2BFAA00CAE4B3F6D766
:106F7000B4CCAC00CAE4C8EBB7E5D6B500D5BCBF0D
:106F8000D5B1C800CAE4C8EBC6B5C2CA00CAE4B3EA
:106F9000F6C6B5C2CA00B9D8B1D500BCF2D2D7CABC
:106FA000BEB2A8C6F700CAE400840044012F02D292
:106FB0000505007F0454057C0557057405540454E9
:106FC00006B3F6002000220222022202FE03200065
:106FD0002000210421042104FF070004D7B4008409
:106FE00000840285048600F40784004401460145BC
:106FF00001240224021404CCAC0020002000FF076E
:10700000500088002401430620004A024A04090572
:10701000F001C6B500C8073A018A00CA077F0448D4
:10702000054A056A055105080184024304C2CA00E5
:107030002000FF0710008A027C0120005401FA02A0
:107040002000FF0720002000D5BC002000200020E9
:1070500000E00720002000FE03020202020202FEFE
:10706000030202BFD50010002000FF0789040401BD
:1070700002020000FE03200020002000FF07B1C82C
:107080000042004200420442025E01C2004200424D
:107090000052004A0446048207CAE4008400440106
:1070A0002F02D20505007F0454057C0557057405A1
:1070B00054045406C8EB000C0010002000200050BF
:1070C000005000500088008800040102020104B74B
:1070D000F900C4070400DF075504D5071500D507DC
:1070E0005505DD074405C4074404D6B5004400F443
:1070F000074200F2031302F2031202F2031202F239
:10710000031202FA07B7E50084008407C4041503DC
:10711000D5041501D5071501D5071D01D3070001B9
:10712000BCF2000402FC7E1209A1100800D01F046A
:1071300010E41324122412E41324122412E413047E
:10714000100418D2D700F00F10081008F00F100824
:107150001008F00F20001000F83F442242222021A6
:10716000102188144008CABE000000FC1F00000067
:107170000000000000FF7F800080008808881084E5
:107180002082408140A0004000B2A8000004040416
:107190000804C87F414442245204D03F482148118A
:1071A0004712440A4404240A24119060C6F70000E0
:1071B000007C3E442244227C3E80048008FF7F40C5
:1071C0000130060C1803607C3E442244227C3EB40D
:1071D000F20008000800C87F08043F0408040804FF
:1071E000280418040C040B040804080408040A0505
:1071F0000402BFAA000000FE3F1004100410041097
:10720000041004FF7F100410041004100408040884
:107210000404040204B9D80008081008100400008F
:10722000FC1F800080008000FF7F80004001400143
:10723000200210040C180360B1D5000400E83F00E0
:107240002002210221FA2F02218221422122211231
:10725000210A214221822002280210BCF2000000F3
:107260000020400060C000206000F0EF3F98300137
:10727000081102240902C0FE1F8000083000081017
:10728000FE08104208104208104208107E08104202
:1072900008104208107E08104208100008108009EB
:1072A00010000E100004D2D700000000000000C043
:1072B000FF03C00002C00002C00002C0FF03C00004
:1072C00002C00002C0FF03C0030280010080FF1F54
:1072D000C08C1820C40810460808630880210840A4
:1072E000300C301804004604808107600001000063
:1072F00000CABE00000000000000000004F0FF0F04
:10730000000000000000000000000000000020FE5F
:10731000FF3F001800001800809800C01801C01836
:107320000260180430180C101818081830041810CF
:10733000821F00000E00000400000000B2A8000040
:10734000000000C00010800030800020800000FF9E
:107350003F0083108682088C8200488200488200A9
:1073600040FE1F2012082012041022041022021CCA
:10737000430318810118C101986006D8100C580CFD
:1073800078200300000000C6F700000000000000A5
:10739000F0E30F30660C30660C30660C30660CF093
:1073A000E70F30FE0D100C13FCFF3F004200008180
:1073B0000080000160000EF0E73F2C260C20260C18
:1073C00020260C20260CE0E70F20260C10220400BB
:1073D00000000000F873000800000020100000000A
:1073E000964E00080874000810000020C81700001E
:1073F000A64E00080000000000A24A04020202009B
:08740000F401E803020A020096
:04000005080000CD22
:00000001FF
